{
  "contractName": "DBlogFactoryContract",
  "abi": [
    {
      "inputs": [],
      "stateMutability": "nonpayable",
      "type": "constructor"
    },
    {
      "anonymous": false,
      "inputs": [
        {
          "indexed": true,
          "internalType": "address",
          "name": "previousOwner",
          "type": "address"
        },
        {
          "indexed": true,
          "internalType": "address",
          "name": "newOwner",
          "type": "address"
        }
      ],
      "name": "OwnershipTransferred",
      "type": "event"
    },
    {
      "inputs": [
        {
          "internalType": "address",
          "name": "",
          "type": "address"
        }
      ],
      "name": "addressBlogCounts",
      "outputs": [
        {
          "internalType": "uint256",
          "name": "",
          "type": "uint256"
        }
      ],
      "stateMutability": "view",
      "type": "function",
      "constant": true
    },
    {
      "inputs": [
        {
          "internalType": "address",
          "name": "",
          "type": "address"
        },
        {
          "internalType": "uint256",
          "name": "",
          "type": "uint256"
        }
      ],
      "name": "addressBlogMap",
      "outputs": [
        {
          "internalType": "contract DBlogContract",
          "name": "",
          "type": "address"
        }
      ],
      "stateMutability": "view",
      "type": "function",
      "constant": true
    },
    {
      "inputs": [],
      "name": "blogCount",
      "outputs": [
        {
          "internalType": "uint256",
          "name": "",
          "type": "uint256"
        }
      ],
      "stateMutability": "view",
      "type": "function",
      "constant": true
    },
    {
      "inputs": [],
      "name": "owner",
      "outputs": [
        {
          "internalType": "address",
          "name": "",
          "type": "address"
        }
      ],
      "stateMutability": "view",
      "type": "function",
      "constant": true
    },
    {
      "inputs": [],
      "name": "renounceOwnership",
      "outputs": [],
      "stateMutability": "nonpayable",
      "type": "function"
    },
    {
      "inputs": [
        {
          "internalType": "address",
          "name": "newOwner",
          "type": "address"
        }
      ],
      "name": "transferOwnership",
      "outputs": [],
      "stateMutability": "nonpayable",
      "type": "function"
    },
    {
      "inputs": [
        {
          "internalType": "string",
          "name": "_blogName",
          "type": "string"
        }
      ],
      "name": "createBlog",
      "outputs": [],
      "stateMutability": "nonpayable",
      "type": "function"
    }
  ],
  "bytecode": "0x608060405234801561001057600080fd5b5061003f61002b61004c640100000000026401000000009004565b610054640100000000026401000000009004565b6000600181905550610118565b600033905090565b60008060009054906101000a900473ffffffffffffffffffffffffffffffffffffffff169050816000806101000a81548173ffffffffffffffffffffffffffffffffffffffff021916908373ffffffffffffffffffffffffffffffffffffffff1602179055508173ffffffffffffffffffffffffffffffffffffffff168173ffffffffffffffffffffffffffffffffffffffff167f8be0079c531659141344cd1fd0a4f28419497f9722a3daafe3b4186f6b6457e060405160405180910390a35050565b614432806101276000396000f3fe60806040523480156200001157600080fd5b5060043610620000a5576000357c0100000000000000000000000000000000000000000000000000000000900480638da5cb5b11620000805780638da5cb5b146200010c578063e8824299146200012e578063eba878661462000150578063f2fde38b146200018657620000a5565b8063648c724114620000aa578063706936d414620000e0578063715018a61462000100575b600080fd5b620000c86004803603810190620000c2919062000677565b620001a6565b604051620000d791906200088d565b60405180910390f35b620000fe6004803603810190620000f89190620006e4565b620001be565b005b6200010a620002f7565b005b6200011662000388565b604051620001259190620007eb565b60405180910390f35b62000138620003b1565b6040516200014791906200088d565b60405180910390f35b6200016e6004803603810190620001689190620006a3565b620003b7565b6040516200017d919062000808565b60405180910390f35b620001a460048036038101906200019e919062000677565b620003f9565b005b60036020528060005260406000206000915090505481565b60016000815480929190620001d39062000a06565b919050555080604051620001e790620005c9565b620001f3919062000825565b604051809103906000f08015801562000210573d6000803e3d6000fd5b50600260003373ffffffffffffffffffffffffffffffffffffffff1673ffffffffffffffffffffffffffffffffffffffff1681526020019081526020016000206000600360003373ffffffffffffffffffffffffffffffffffffffff1673ffffffffffffffffffffffffffffffffffffffff1681526020019081526020016000206000815480929190620002a49062000a06565b91905055815260200190815260200160002060006101000a81548173ffffffffffffffffffffffffffffffffffffffff021916908373ffffffffffffffffffffffffffffffffffffffff16021790555050565b62000301620004fd565b73ffffffffffffffffffffffffffffffffffffffff166200032162000388565b73ffffffffffffffffffffffffffffffffffffffff16146200037a576040517f08c379a000000000000000000000000000000000000000000000000000000000815260040162000371906200086b565b60405180910390fd5b62000386600062000505565b565b60008060009054906101000a900473ffffffffffffffffffffffffffffffffffffffff16905090565b60015481565b60026020528160005260406000206020528060005260406000206000915091509054906101000a900473ffffffffffffffffffffffffffffffffffffffff1681565b62000403620004fd565b73ffffffffffffffffffffffffffffffffffffffff166200042362000388565b73ffffffffffffffffffffffffffffffffffffffff16146200047c576040517f08c379a000000000000000000000000000000000000000000000000000000000815260040162000473906200086b565b60405180910390fd5b600073ffffffffffffffffffffffffffffffffffffffff168173ffffffffffffffffffffffffffffffffffffffff161415620004ef576040517f08c379a0000000000000000000000000000000000000000000000000000000008152600401620004e69062000849565b60405180910390fd5b620004fa8162000505565b50565b600033905090565b60008060009054906101000a900473ffffffffffffffffffffffffffffffffffffffff169050816000806101000a81548173ffffffffffffffffffffffffffffffffffffffff021916908373ffffffffffffffffffffffffffffffffffffffff1602179055508173ffffffffffffffffffffffffffffffffffffffff168173ffffffffffffffffffffffffffffffffffffffff167f8be0079c531659141344cd1fd0a4f28419497f9722a3daafe3b4186f6b6457e060405160405180910390a35050565b61388d8062000b7083390190565b6000620005ee620005e884620008d3565b620008aa565b9050828152602081018484840111156200060757600080fd5b620006148482856200098b565b509392505050565b6000813590506200062d8162000b3b565b92915050565b600082601f8301126200064557600080fd5b813562000657848260208601620005d7565b91505092915050565b600081359050620006718162000b55565b92915050565b6000602082840312156200068a57600080fd5b60006200069a848285016200061c565b91505092915050565b60008060408385031215620006b757600080fd5b6000620006c7858286016200061c565b9250506020620006da8582860162000660565b9150509250929050565b600060208284031215620006f757600080fd5b600082013567ffffffffffffffff8111156200071257600080fd5b620007208482850162000633565b91505092915050565b620007348162000925565b82525050565b620007458162000963565b82525050565b6000620007588262000909565b62000764818562000914565b9350620007768185602086016200099a565b620007818162000ab2565b840191505092915050565b60006200079b60268362000914565b9150620007a88262000ac3565b604082019050919050565b6000620007c260208362000914565b9150620007cf8262000b12565b602082019050919050565b620007e58162000959565b82525050565b600060208201905062000802600083018462000729565b92915050565b60006020820190506200081f60008301846200073a565b92915050565b600060208201905081810360008301526200084181846200074b565b905092915050565b6000602082019050818103600083015262000864816200078c565b9050919050565b600060208201905081810360008301526200088681620007b3565b9050919050565b6000602082019050620008a46000830184620007da565b92915050565b6000620008b6620008c9565b9050620008c48282620009d0565b919050565b6000604051905090565b600067ffffffffffffffff821115620008f157620008f062000a83565b5b620008fc8262000ab2565b9050602081019050919050565b600081519050919050565b600082825260208201905092915050565b6000620009328262000939565b9050919050565b600073ffffffffffffffffffffffffffffffffffffffff82169050919050565b6000819050919050565b6000620009708262000977565b9050919050565b6000620009848262000939565b9050919050565b82818337600083830152505050565b60005b83811015620009ba5780820151818401526020810190506200099d565b83811115620009ca576000848401525b50505050565b620009db8262000ab2565b810181811067ffffffffffffffff82111715620009fd57620009fc62000a83565b5b80604052505050565b600062000a138262000959565b91507fffffffffffffffffffffffffffffffffffffffffffffffffffffffffffffffff82141562000a495762000a4862000a54565b5b600182019050919050565b7f4e487b7100000000000000000000000000000000000000000000000000000000600052601160045260246000fd5b7f4e487b7100000000000000000000000000000000000000000000000000000000600052604160045260246000fd5b6000601f19601f8301169050919050565b7f4f776e61626c653a206e6577206f776e657220697320746865207a65726f206160008201527f6464726573730000000000000000000000000000000000000000000000000000602082015250565b7f4f776e61626c653a2063616c6c6572206973206e6f7420746865206f776e6572600082015250565b62000b468162000925565b811462000b5257600080fd5b50565b62000b608162000959565b811462000b6c57600080fd5b5056fe60806040523480156200001157600080fd5b506040516200388d3803806200388d833981810160405281019062000037919062000287565b620000696200005462000099640100000000026401000000009004565b620000a1640100000000026401000000009004565b80600190805190602001906200008192919062000165565b5060006002819055506000600381905550506200043c565b600033905090565b60008060009054906101000a900473ffffffffffffffffffffffffffffffffffffffff169050816000806101000a81548173ffffffffffffffffffffffffffffffffffffffff021916908373ffffffffffffffffffffffffffffffffffffffff1602179055508173ffffffffffffffffffffffffffffffffffffffff168173ffffffffffffffffffffffffffffffffffffffff167f8be0079c531659141344cd1fd0a4f28419497f9722a3daafe3b4186f6b6457e060405160405180910390a35050565b828054620001739062000361565b90600052602060002090601f016020900481019282620001975760008555620001e3565b82601f10620001b257805160ff1916838001178555620001e3565b82800160010185558215620001e3579182015b82811115620001e2578251825591602001919060010190620001c5565b5b509050620001f29190620001f6565b5090565b5b8082111562000211576000816000905550600101620001f7565b5090565b60006200022c6200022684620002f5565b620002cc565b9050828152602081018484840111156200024557600080fd5b620002528482856200032b565b509392505050565b600082601f8301126200026c57600080fd5b81516200027e84826020860162000215565b91505092915050565b6000602082840312156200029a57600080fd5b600082015167ffffffffffffffff811115620002b557600080fd5b620002c3848285016200025a565b91505092915050565b6000620002d8620002eb565b9050620002e6828262000397565b919050565b6000604051905090565b600067ffffffffffffffff821115620003135762000312620003fc565b5b6200031e826200042b565b9050602081019050919050565b60005b838110156200034b5780820151818401526020810190506200032e565b838111156200035b576000848401525b50505050565b600060028204905060018216806200037a57607f821691505b60208210811415620003915762000390620003cd565b5b50919050565b620003a2826200042b565b810181811067ffffffffffffffff82111715620003c457620003c3620003fc565b5b80604052505050565b7f4e487b7100000000000000000000000000000000000000000000000000000000600052602260045260246000fd5b7f4e487b7100000000000000000000000000000000000000000000000000000000600052604160045260246000fd5b6000601f19601f8301169050919050565b613441806200044c6000396000f3fe60806040523480156200001157600080fd5b50600436106200011d576000357c010000000000000000000000000000000000000000000000000000000090048063715018a611620000b6578063bf659334116200008c578063bf6593341462000298578063ca7de47114620002ce578063dc7288621462000304578063f2fde38b146200033a576200011d565b8063715018a61462000248578063792bb13f14620002545780638da5cb5b1462000276576200011d565b80634c7cfe9a11620000f85780634c7cfe9a146200019a57806352ecaa0614620001d05780635ae4697814620002065780636f810cbc1462000226576200011d565b806317906c2e14620001225780633601427f14620001445780634458f944146200017a575b600080fd5b6200012c6200035a565b6040516200013b919062001345565b60405180910390f35b6200016260048036038101906200015c919062000e87565b62000360565b604051620001719190620012a3565b60405180910390f35b62000198600480360381019062000192919062000fdd565b62000396565b005b620001b86004803603810190620001b2919062000fdd565b62000399565b604051620001c79190620012c0565b60405180910390f35b620001ee6004803603810190620001e8919062000e87565b620003cc565b604051620001fd919062001345565b60405180910390f35b6200022460048036038101906200021e919062000e87565b620003fa565b005b6200023062000499565b6040516200023f919062001345565b60405180910390f35b620002526200049f565b005b6200025e62000530565b6040516200026d9190620012dd565b60405180910390f35b62000280620005c6565b6040516200028f919062001204565b60405180910390f35b620002b66004803603810190620002b0919062000fdd565b620005ef565b604051620002c59190620012dd565b60405180910390f35b620002ec6004803603810190620002e6919062000ecc565b62000697565b604051620002fb919062001345565b60405180910390f35b6200032260048036038101906200031c919062000f83565b62000a2c565b60405162000331919062001204565b60405180910390f35b62000358600480360381019062000352919062000e5b565b62000a84565b005b60025481565b6008818051602081018201805184825260208301602085012081835280955050505050506000915054906101000a900460ff1681565b50565b60046020528060005260406000206000915054906101000a900473ffffffffffffffffffffffffffffffffffffffff1681565b6007818051602081018201805184825260208301602085012081835280955050505050506000915090505481565b6200040462000b88565b73ffffffffffffffffffffffffffffffffffffffff1662000424620005c6565b73ffffffffffffffffffffffffffffffffffffffff16146200047d576040517f08c379a0000000000000000000000000000000000000000000000000000000008152600401620004749062001323565b60405180910390fd5b80600190805190602001906200049592919062000c54565b5050565b60035481565b620004a962000b88565b73ffffffffffffffffffffffffffffffffffffffff16620004c9620005c6565b73ffffffffffffffffffffffffffffffffffffffff161462000522576040517f08c379a0000000000000000000000000000000000000000000000000000000008152600401620005199062001323565b60405180910390fd5b6200052e600062000b90565b565b600180546200053f9062001553565b80601f01602080910402602001604051908101604052809291908181526020018280546200056d9062001553565b8015620005be5780601f106200059257610100808354040283529160200191620005be565b820191906000526020600020905b815481529060010190602001808311620005a057829003601f168201915b505050505081565b60008060009054906101000a900473ffffffffffffffffffffffffffffffffffffffff16905090565b60056020528060005260406000206000915090508054620006109062001553565b80601f01602080910402602001604051908101604052809291908181526020018280546200063e9062001553565b80156200068f5780601f1062000663576101008083540402835291602001916200068f565b820191906000526020600020905b8154815290600101906020018083116200067157829003601f168201915b505050505081565b6000620006a362000b88565b73ffffffffffffffffffffffffffffffffffffffff16620006c3620005c6565b73ffffffffffffffffffffffffffffffffffffffff16146200071c576040517f08c379a0000000000000000000000000000000000000000000000000000000008152600401620007139062001323565b60405180910390fd5b600260008154809291906200073190620015bf565b919050555030600254868686866040516200074c9062000ce5565b6200075d9695949392919062001221565b604051809103906000f0801580156200077a573d6000803e3d6000fd5b5060046000600254815260200190815260200160002060006101000a81548173ffffffffffffffffffffffffffffffffffffffff021916908373ffffffffffffffffffffffffffffffffffffffff16021790555060005b835181101562000a1e57600084828151811062000817577f4e487b7100000000000000000000000000000000000000000000000000000000600052603260045260246000fd5b60200260200101519050600881604051620008339190620011eb565b908152602001604051809103902060009054906101000a900460ff16620008fb576001600882604051620008689190620011eb565b908152602001604051809103902060006101000a81548160ff021916908315150217905550806005600060036000815480929190620008a790620015bf565b9190505581526020019081526020016000209080519060200190620008ce92919062000c54565b506001600782604051620008e39190620011eb565b90815260200160405180910390208190555062000934565b6007816040516200090d9190620011eb565b908152602001604051809103902060008154809291906200092e90620015bf565b91905055505b60046000600254815260200190815260200160002060009054906101000a900473ffffffffffffffffffffffffffffffffffffffff166006826040516200097c9190620011eb565b908152602001604051809103902060006001600785604051620009a09190620011eb565b908152602001604051809103902054620009bb919062001461565b815260200190815260200160002060006101000a81548173ffffffffffffffffffffffffffffffffffffffff021916908373ffffffffffffffffffffffffffffffffffffffff16021790555050808062000a1590620015bf565b915050620007d1565b506002549050949350505050565b6006828051602081018201805184825260208301602085012081835280955050505050506020528060005260406000206000915091509054906101000a900473ffffffffffffffffffffffffffffffffffffffff1681565b62000a8e62000b88565b73ffffffffffffffffffffffffffffffffffffffff1662000aae620005c6565b73ffffffffffffffffffffffffffffffffffffffff161462000b07576040517f08c379a000000000000000000000000000000000000000000000000000000000815260040162000afe9062001323565b60405180910390fd5b600073ffffffffffffffffffffffffffffffffffffffff168173ffffffffffffffffffffffffffffffffffffffff16141562000b7a576040517f08c379a000000000000000000000000000000000000000000000000000000000815260040162000b719062001301565b60405180910390fd5b62000b858162000b90565b50565b600033905090565b60008060009054906101000a900473ffffffffffffffffffffffffffffffffffffffff169050816000806101000a81548173ffffffffffffffffffffffffffffffffffffffff021916908373ffffffffffffffffffffffffffffffffffffffff1602179055508173ffffffffffffffffffffffffffffffffffffffff168173ffffffffffffffffffffffffffffffffffffffff167f8be0079c531659141344cd1fd0a4f28419497f9722a3daafe3b4186f6b6457e060405160405180910390a35050565b82805462000c629062001553565b90600052602060002090601f01602090048101928262000c86576000855562000cd2565b82601f1062000ca157805160ff191683800117855562000cd2565b8280016001018555821562000cd2579182015b8281111562000cd157825182559160200191906001019062000cb4565b5b50905062000ce1919062000cf3565b5090565b611c9a806200177283390190565b5b8082111562000d0e57600081600090555060010162000cf4565b5090565b600062000d2962000d23846200138b565b62001362565b9050808382526020820190508260005b8581101562000d6d578135850162000d52888262000e17565b84526020840193506020830192505060018101905062000d39565b5050509392505050565b600062000d8e62000d8884620013ba565b62001362565b90508281526020810184848401111562000da757600080fd5b62000db48482856200150e565b509392505050565b60008135905062000dcd8162001723565b92915050565b600082601f83011262000de557600080fd5b813562000df784826020860162000d12565b91505092915050565b60008135905062000e11816200173d565b92915050565b600082601f83011262000e2957600080fd5b813562000e3b84826020860162000d77565b91505092915050565b60008135905062000e558162001757565b92915050565b60006020828403121562000e6e57600080fd5b600062000e7e8482850162000dbc565b91505092915050565b60006020828403121562000e9a57600080fd5b600082013567ffffffffffffffff81111562000eb557600080fd5b62000ec38482850162000e17565b91505092915050565b6000806000806080858703121562000ee357600080fd5b600085013567ffffffffffffffff81111562000efe57600080fd5b62000f0c8782880162000e17565b945050602085013567ffffffffffffffff81111562000f2a57600080fd5b62000f388782880162000e17565b935050604085013567ffffffffffffffff81111562000f5657600080fd5b62000f648782880162000dd3565b925050606062000f778782880162000e00565b91505092959194509250565b6000806040838503121562000f9757600080fd5b600083013567ffffffffffffffff81111562000fb257600080fd5b62000fc08582860162000e17565b925050602062000fd38582860162000e44565b9150509250929050565b60006020828403121562000ff057600080fd5b6000620010008482850162000e44565b91505092915050565b6000620010178383620010d3565b905092915050565b6200102a816200149c565b82525050565b60006200103d8262001400565b62001049818562001423565b9350836020820285016200105d85620013f0565b8060005b858110156200109f57848403895281516200107d858262001009565b94506200108a8362001416565b925060208a0199505060018101905062001061565b50829750879550505050505092915050565b620010bc81620014b0565b82525050565b620010cd81620014e6565b82525050565b6000620010e0826200140b565b620010ec818562001434565b9350620010fe8185602086016200151d565b62001109816200169a565b840191505092915050565b600062001121826200140b565b6200112d818562001445565b93506200113f8185602086016200151d565b6200114a816200169a565b840191505092915050565b600062001162826200140b565b6200116e818562001456565b9350620011808185602086016200151d565b80840191505092915050565b60006200119b60268362001445565b9150620011a882620016ab565b604082019050919050565b6000620011c260208362001445565b9150620011cf82620016fa565b602082019050919050565b620011e581620014dc565b82525050565b6000620011f9828462001155565b915081905092915050565b60006020820190506200121b60008301846200101f565b92915050565b600060c0820190506200123860008301896200101f565b620012476020830188620011da565b81810360408301526200125b818762001114565b9050818103606083015262001271818662001114565b9050818103608083015262001287818562001030565b90506200129860a0830184620010b1565b979650505050505050565b6000602082019050620012ba6000830184620010b1565b92915050565b6000602082019050620012d76000830184620010c2565b92915050565b60006020820190508181036000830152620012f9818462001114565b905092915050565b600060208201905081810360008301526200131c816200118c565b9050919050565b600060208201905081810360008301526200133e81620011b3565b9050919050565b60006020820190506200135c6000830184620011da565b92915050565b60006200136e62001381565b90506200137c828262001589565b919050565b6000604051905090565b600067ffffffffffffffff821115620013a957620013a86200166b565b5b602082029050602081019050919050565b600067ffffffffffffffff821115620013d857620013d76200166b565b5b620013e3826200169a565b9050602081019050919050565b6000819050602082019050919050565b600081519050919050565b600081519050919050565b6000602082019050919050565b600082825260208201905092915050565b600082825260208201905092915050565b600082825260208201905092915050565b600081905092915050565b60006200146e82620014dc565b91506200147b83620014dc565b9250828210156200149157620014906200160d565b5b828203905092915050565b6000620014a982620014bc565b9050919050565b60008115159050919050565b600073ffffffffffffffffffffffffffffffffffffffff82169050919050565b6000819050919050565b6000620014f382620014fa565b9050919050565b60006200150782620014bc565b9050919050565b82818337600083830152505050565b60005b838110156200153d57808201518184015260208101905062001520565b838111156200154d576000848401525b50505050565b600060028204905060018216806200156c57607f821691505b602082108114156200158357620015826200163c565b5b50919050565b62001594826200169a565b810181811067ffffffffffffffff82111715620015b657620015b56200166b565b5b80604052505050565b6000620015cc82620014dc565b91507fffffffffffffffffffffffffffffffffffffffffffffffffffffffffffffffff8214156200160257620016016200160d565b5b600182019050919050565b7f4e487b7100000000000000000000000000000000000000000000000000000000600052601160045260246000fd5b7f4e487b7100000000000000000000000000000000000000000000000000000000600052602260045260246000fd5b7f4e487b7100000000000000000000000000000000000000000000000000000000600052604160045260246000fd5b6000601f19601f8301169050919050565b7f4f776e61626c653a206e6577206f776e657220697320746865207a65726f206160008201527f6464726573730000000000000000000000000000000000000000000000000000602082015250565b7f4f776e61626c653a2063616c6c6572206973206e6f7420746865206f776e6572600082015250565b6200172e816200149c565b81146200173a57600080fd5b50565b6200174881620014b0565b81146200175457600080fd5b50565b6200176281620014dc565b81146200176e57600080fd5b5056fe60806040523480156200001157600080fd5b5060405162001c9a38038062001c9a833981810160405281019062000037919062000640565b62000069620000546200014c640100000000026401000000009004565b62000154640100000000026401000000009004565b620000838662000218640100000000026401000000009004565b85600160006101000a81548173ffffffffffffffffffffffffffffffffffffffff021916908373ffffffffffffffffffffffffffffffffffffffff160217905550846002819055508360039080519060200190620000e392919062000372565b508260049080519060200190620000fc92919062000372565b5081600590805190602001906200011592919062000403565b506005600681905550600060098190555080600860016101000a81548160ff02191690831515021790555050505050505062000a73565b600033905090565b60008060009054906101000a900473ffffffffffffffffffffffffffffffffffffffff169050816000806101000a81548173ffffffffffffffffffffffffffffffffffffffff021916908373ffffffffffffffffffffffffffffffffffffffff1602179055508173ffffffffffffffffffffffffffffffffffffffff168173ffffffffffffffffffffffffffffffffffffffff167f8be0079c531659141344cd1fd0a4f28419497f9722a3daafe3b4186f6b6457e060405160405180910390a35050565b620002316200014c640100000000026401000000009004565b73ffffffffffffffffffffffffffffffffffffffff166200026062000349640100000000026401000000009004565b73ffffffffffffffffffffffffffffffffffffffff1614620002b9576040517f08c379a0000000000000000000000000000000000000000000000000000000008152600401620002b09062000791565b60405180910390fd5b600073ffffffffffffffffffffffffffffffffffffffff168173ffffffffffffffffffffffffffffffffffffffff1614156200032c576040517f08c379a000000000000000000000000000000000000000000000000000000000815260040162000323906200076f565b60405180910390fd5b620003468162000154640100000000026401000000009004565b50565b60008060009054906101000a900473ffffffffffffffffffffffffffffffffffffffff16905090565b8280546200038090620008d2565b90600052602060002090601f016020900481019282620003a45760008555620003f0565b82601f10620003bf57805160ff1916838001178555620003f0565b82800160010185558215620003f0579182015b82811115620003ef578251825591602001919060010190620003d2565b5b509050620003ff91906200046a565b5090565b82805482825590600052602060002090810192821562000457579160200282015b82811115620004565782518290805190602001906200044592919062000372565b509160200191906001019062000424565b5b50905062000466919062000489565b5090565b5b80821115620004855760008160009055506001016200046b565b5090565b5b80821115620004ad5760008181620004a39190620004b1565b506001016200048a565b5090565b508054620004bf90620008d2565b6000825580601f10620004d35750620004f4565b601f016020900490600052602060002090810190620004f391906200046a565b5b50565b60006200050e6200050884620007dc565b620007b3565b9050808382526020820190508260005b85811015620005525781518501620005378882620005fc565b8452602084019350602083019250506001810190506200051e565b5050509392505050565b6000620005736200056d846200080b565b620007b3565b9050828152602081018484840111156200058c57600080fd5b620005998482856200089c565b509392505050565b600081519050620005b28162000a25565b92915050565b600082601f830112620005ca57600080fd5b8151620005dc848260208601620004f7565b91505092915050565b600081519050620005f68162000a3f565b92915050565b600082601f8301126200060e57600080fd5b8151620006208482602086016200055c565b91505092915050565b6000815190506200063a8162000a59565b92915050565b60008060008060008060c087890312156200065a57600080fd5b60006200066a89828a01620005a1565b96505060206200067d89828a0162000629565b955050604087015167ffffffffffffffff8111156200069b57600080fd5b620006a989828a01620005fc565b945050606087015167ffffffffffffffff811115620006c757600080fd5b620006d589828a01620005fc565b935050608087015167ffffffffffffffff811115620006f357600080fd5b6200070189828a01620005b8565b92505060a06200071489828a01620005e5565b9150509295509295509295565b60006200073060268362000841565b91506200073d82620009ad565b604082019050919050565b60006200075760208362000841565b91506200076482620009fc565b602082019050919050565b600060208201905081810360008301526200078a8162000721565b9050919050565b60006020820190508181036000830152620007ac8162000748565b9050919050565b6000620007bf620007d2565b9050620007cd828262000908565b919050565b6000604051905090565b600067ffffffffffffffff821115620007fa57620007f96200096d565b5b602082029050602081019050919050565b600067ffffffffffffffff8211156200082957620008286200096d565b5b62000834826200099c565b9050602081019050919050565b600082825260208201905092915050565b60006200085f8262000872565b9050919050565b60008115159050919050565b600073ffffffffffffffffffffffffffffffffffffffff82169050919050565b6000819050919050565b60005b83811015620008bc5780820151818401526020810190506200089f565b83811115620008cc576000848401525b50505050565b60006002820490506001821680620008eb57607f821691505b602082108114156200090257620009016200093e565b5b50919050565b62000913826200099c565b810181811067ffffffffffffffff821117156200093557620009346200096d565b5b80604052505050565b7f4e487b7100000000000000000000000000000000000000000000000000000000600052602260045260246000fd5b7f4e487b7100000000000000000000000000000000000000000000000000000000600052604160045260246000fd5b6000601f19601f8301169050919050565b7f4f776e61626c653a206e6577206f776e657220697320746865207a65726f206160008201527f6464726573730000000000000000000000000000000000000000000000000000602082015250565b7f4f776e61626c653a2063616c6c6572206973206e6f7420746865206f776e6572600082015250565b62000a308162000852565b811462000a3c57600080fd5b50565b62000a4a8162000866565b811462000a5657600080fd5b50565b62000a648162000892565b811462000a7057600080fd5b50565b6112178062000a836000396000f3fe608060405234801561001057600080fd5b5060043610610107576000357c010000000000000000000000000000000000000000000000000000000090048063843b4386116100a9578063bbc78bd711610083578063bbc78bd71461021e578063d2c82ed91461023c578063e5a0af3d1461025a578063f2fde38b1461027857610107565b8063843b4386146101c65780638a4d5a67146101e25780638da5cb5b1461020057610107565b80632f23f022116100e55780632f23f0221461017657806345ff20de146101805780634a79d50c1461019e578063715018a6146101bc57610107565b80630ab89cc21461010c5780631aa30f531461012857806320822abc14610146575b600080fd5b61012660048036038101906101219190610b7a565b610294565b005b61013061032d565b60405161013d9190610e01565b60405180910390f35b610160600480360381019061015b9190610be4565b610333565b60405161016d9190610d5f565b60405180910390f35b61017e6103df565b005b610188610561565b6040516101959190610e01565b60405180910390f35b6101a6610567565b6040516101b39190610d5f565b60405180910390f35b6101c46105f5565b005b6101e060048036038101906101db9190610ba3565b61067d565b005b6101ea61074d565b6040516101f79190610d5f565b60405180910390f35b6102086107db565b6040516102159190610d0e565b60405180910390f35b610226610804565b6040516102339190610d44565b60405180910390f35b61024461082a565b6040516102519190610d29565b60405180910390f35b61026261083d565b60405161026f9190610e01565b60405180910390f35b610292600480360381019061028d9190610b51565b610843565b005b61029c61093b565b73ffffffffffffffffffffffffffffffffffffffff166102ba6107db565b73ffffffffffffffffffffffffffffffffffffffff1614610310576040517f08c379a000000000000000000000000000000000000000000000000000000000815260040161030790610de1565b60405180910390fd5b80600860006101000a81548160ff02191690831515021790555050565b60025481565b6005818154811061034357600080fd5b90600052602060002001600091509050805461035e90610f3c565b80601f016020809104026020016040519081016040528092919081815260200182805461038a90610f3c565b80156103d75780601f106103ac576101008083540402835291602001916103d7565b820191906000526020600020905b8154815290600101906020018083116103ba57829003601f168201915b505050505081565b6103e761093b565b73ffffffffffffffffffffffffffffffffffffffff166104056107db565b73ffffffffffffffffffffffffffffffffffffffff16141561045c576040517f08c379a000000000000000000000000000000000000000000000000000000000815260040161045390610dc1565b60405180910390fd5b60001515600760003373ffffffffffffffffffffffffffffffffffffffff1673ffffffffffffffffffffffffffffffffffffffff16815260200190815260200160002060009054906101000a900460ff161515146104ef576040517f08c379a00000000000000000000000000000000000000000000000000000000081526004016104e690610da1565b60405180910390fd5b6006600081548092919061050290610f9f565b91905055506001600760003373ffffffffffffffffffffffffffffffffffffffff1673ffffffffffffffffffffffffffffffffffffffff16815260200190815260200160002060006101000a81548160ff021916908315150217905550565b60095481565b6003805461057490610f3c565b80601f01602080910402602001604051908101604052809291908181526020018280546105a090610f3c565b80156105ed5780601f106105c2576101008083540402835291602001916105ed565b820191906000526020600020905b8154815290600101906020018083116105d057829003601f168201915b505050505081565b6105fd61093b565b73ffffffffffffffffffffffffffffffffffffffff1661061b6107db565b73ffffffffffffffffffffffffffffffffffffffff1614610671576040517f08c379a000000000000000000000000000000000000000000000000000000000815260040161066890610de1565b60405180910390fd5b61067b6000610943565b565b60405180606001604052806009600081548092919061069b90610f9f565b9190505581526020018281526020013373ffffffffffffffffffffffffffffffffffffffff16815250600a600060095481526020019081526020016000206000820151816000015560208201518160010190805190602001906106ff929190610a07565b5060408201518160020160006101000a81548173ffffffffffffffffffffffffffffffffffffffff021916908373ffffffffffffffffffffffffffffffffffffffff16021790555090505050565b6004805461075a90610f3c565b80601f016020809104026020016040519081016040528092919081815260200182805461078690610f3c565b80156107d35780601f106107a8576101008083540402835291602001916107d3565b820191906000526020600020905b8154815290600101906020018083116107b657829003601f168201915b505050505081565b60008060009054906101000a900473ffffffffffffffffffffffffffffffffffffffff16905090565b600160009054906101000a900473ffffffffffffffffffffffffffffffffffffffff1681565b600860019054906101000a900460ff1681565b60065481565b61084b61093b565b73ffffffffffffffffffffffffffffffffffffffff166108696107db565b73ffffffffffffffffffffffffffffffffffffffff16146108bf576040517f08c379a00000000000000000000000000000000000000000000000000000000081526004016108b690610de1565b60405180910390fd5b600073ffffffffffffffffffffffffffffffffffffffff168173ffffffffffffffffffffffffffffffffffffffff16141561092f576040517f08c379a000000000000000000000000000000000000000000000000000000000815260040161092690610d81565b60405180910390fd5b61093881610943565b50565b600033905090565b60008060009054906101000a900473ffffffffffffffffffffffffffffffffffffffff169050816000806101000a81548173ffffffffffffffffffffffffffffffffffffffff021916908373ffffffffffffffffffffffffffffffffffffffff1602179055508173ffffffffffffffffffffffffffffffffffffffff168173ffffffffffffffffffffffffffffffffffffffff167f8be0079c531659141344cd1fd0a4f28419497f9722a3daafe3b4186f6b6457e060405160405180910390a35050565b828054610a1390610f3c565b90600052602060002090601f016020900481019282610a355760008555610a7c565b82601f10610a4e57805160ff1916838001178555610a7c565b82800160010185558215610a7c579182015b82811115610a7b578251825591602001919060010190610a60565b5b509050610a899190610a8d565b5090565b5b80821115610aa6576000816000905550600101610a8e565b5090565b6000610abd610ab884610e41565b610e1c565b905082815260208101848484011115610ad557600080fd5b610ae0848285610efa565b509392505050565b600081359050610af78161119c565b92915050565b600081359050610b0c816111b3565b92915050565b600082601f830112610b2357600080fd5b8135610b33848260208601610aaa565b91505092915050565b600081359050610b4b816111ca565b92915050565b600060208284031215610b6357600080fd5b6000610b7184828501610ae8565b91505092915050565b600060208284031215610b8c57600080fd5b6000610b9a84828501610afd565b91505092915050565b600060208284031215610bb557600080fd5b600082013567ffffffffffffffff811115610bcf57600080fd5b610bdb84828501610b12565b91505092915050565b600060208284031215610bf657600080fd5b6000610c0484828501610b3c565b91505092915050565b610c1681610e8e565b82525050565b610c2581610ea0565b82525050565b610c3481610ed6565b82525050565b6000610c4582610e72565b610c4f8185610e7d565b9350610c5f818560208601610f09565b610c6881611075565b840191505092915050565b6000610c80602683610e7d565b9150610c8b82611086565b604082019050919050565b6000610ca3602b83610e7d565b9150610cae826110d5565b604082019050919050565b6000610cc6602e83610e7d565b9150610cd182611124565b604082019050919050565b6000610ce9602083610e7d565b9150610cf482611173565b602082019050919050565b610d0881610ecc565b82525050565b6000602082019050610d236000830184610c0d565b92915050565b6000602082019050610d3e6000830184610c1c565b92915050565b6000602082019050610d596000830184610c2b565b92915050565b60006020820190508181036000830152610d798184610c3a565b905092915050565b60006020820190508181036000830152610d9a81610c73565b9050919050565b60006020820190508181036000830152610dba81610c96565b9050919050565b60006020820190508181036000830152610dda81610cb9565b9050919050565b60006020820190508181036000830152610dfa81610cdc565b9050919050565b6000602082019050610e166000830184610cff565b92915050565b6000610e26610e37565b9050610e328282610f6e565b919050565b6000604051905090565b600067ffffffffffffffff821115610e5c57610e5b611046565b5b610e6582611075565b9050602081019050919050565b600081519050919050565b600082825260208201905092915050565b6000610e9982610eac565b9050919050565b60008115159050919050565b600073ffffffffffffffffffffffffffffffffffffffff82169050919050565b6000819050919050565b6000610ee182610ee8565b9050919050565b6000610ef382610eac565b9050919050565b82818337600083830152505050565b60005b83811015610f27578082015181840152602081019050610f0c565b83811115610f36576000848401525b50505050565b60006002820490506001821680610f5457607f821691505b60208210811415610f6857610f67611017565b5b50919050565b610f7782611075565b810181811067ffffffffffffffff82111715610f9657610f95611046565b5b80604052505050565b6000610faa82610ecc565b91507fffffffffffffffffffffffffffffffffffffffffffffffffffffffffffffffff821415610fdd57610fdc610fe8565b5b600182019050919050565b7f4e487b7100000000000000000000000000000000000000000000000000000000600052601160045260246000fd5b7f4e487b7100000000000000000000000000000000000000000000000000000000600052602260045260246000fd5b7f4e487b7100000000000000000000000000000000000000000000000000000000600052604160045260246000fd5b6000601f19601f8301169050919050565b7f4f776e61626c653a206e6577206f776e657220697320746865207a65726f206160008201527f6464726573730000000000000000000000000000000000000000000000000000602082015250565b7f43616c6c657220616464726573732068617320616c7265616479206c696b656460008201527f207468697320706f73742e000000000000000000000000000000000000000000602082015250565b7f43616c6c657220697320746865206f776e65722e2043616e6e6f74206265206360008201527f616c6c6564206279206f776e6572000000000000000000000000000000000000602082015250565b7f4f776e61626c653a2063616c6c6572206973206e6f7420746865206f776e6572600082015250565b6111a581610e8e565b81146111b057600080fd5b50565b6111bc81610ea0565b81146111c757600080fd5b50565b6111d381610ecc565b81146111de57600080fd5b5056fea264697066735822122077c553d2baf9076e6c01a09f9869f34316cec22bfc73c03438ca4fb6fb67c7b564736f6c63430008010033a264697066735822122023a76537307e1cdeaa3495eaedf948efe22f7c7c50e46ad0cb21697da5c3d46864736f6c63430008010033a2646970667358221220038dee8f0d54981c89eb1d1376463358d15f6b47e04f5cc9e01aab5a802e1dc864736f6c63430008010033",
  "immutableReferences": {},
  "source": "// SPDX-License-Identifier: MIT\r\npragma solidity >=0.4.22 <0.9.0;\r\n\r\nimport \"./DBlogContract.sol\";\r\nimport '@openzeppelin/contracts/access/Ownable.sol';\r\n\r\n// struct DBlogUser {\r\n// \tbool exists;\r\n// \tuint postCount;\r\n// }\r\n\r\ncontract DBlogFactoryContract is Ownable {\r\n\r\n\tuint public blogCount;\r\n\r\n\tmapping(address => mapping(uint => DBlogContract)) public addressBlogMap;\r\n\tmapping(address => uint) public addressBlogCounts;\r\n\r\n\tconstructor() {\r\n\t\tblogCount = 0;\r\n\t}\r\n\r\n\tfunction createBlog(string memory _blogName) public {\r\n\t\tblogCount++;\r\n\t\taddressBlogMap[msg.sender][addressBlogCounts[msg.sender]++] = new DBlogContract(_blogName);\r\n\t}\r\n}                                   ",
  "sourcePath": "C:/Users/EREID/Desktop/Repos/dblog-dapp/src/contracts/DBlogFactoryContract.sol",
  "compiler": {
    "name": "solc",
    "version": "0.8.1+commit.df193b15.Emscripten.clang"
  },
  "schemaVersion": "3.4.1",
  "updatedAt": "2021-07-20T03:27:47.209Z",
  "networkType": "ethereum",
  "devdoc": {
    "kind": "dev",
    "methods": {
      "owner()": {
        "details": "Returns the address of the current owner."
      },
      "renounceOwnership()": {
        "details": "Leaves the contract without owner. It will not be possible to call `onlyOwner` functions anymore. Can only be called by the current owner. NOTE: Renouncing ownership will leave the contract without an owner, thereby removing any functionality that is only available to the owner."
      },
      "transferOwnership(address)": {
        "details": "Transfers ownership of the contract to a new account (`newOwner`). Can only be called by the current owner."
      }
    },
    "version": 1
  },
  "userdoc": {
    "kind": "user",
    "methods": {},
    "version": 1
  }
}