{
  "contractName": "DBlogContract",
  "abi": [
    {
      "inputs": [
        {
          "internalType": "string",
          "name": "_blogName",
          "type": "string"
        }
      ],
      "stateMutability": "nonpayable",
      "type": "constructor"
    },
    {
      "anonymous": false,
      "inputs": [
        {
          "indexed": true,
          "internalType": "address",
          "name": "previousOwner",
          "type": "address"
        },
        {
          "indexed": true,
          "internalType": "address",
          "name": "newOwner",
          "type": "address"
        }
      ],
      "name": "OwnershipTransferred",
      "type": "event"
    },
    {
      "inputs": [],
      "name": "blogName",
      "outputs": [
        {
          "internalType": "string",
          "name": "",
          "type": "string"
        }
      ],
      "stateMutability": "view",
      "type": "function",
      "constant": true
    },
    {
      "inputs": [],
      "name": "owner",
      "outputs": [
        {
          "internalType": "address",
          "name": "",
          "type": "address"
        }
      ],
      "stateMutability": "view",
      "type": "function",
      "constant": true
    },
    {
      "inputs": [
        {
          "internalType": "uint256",
          "name": "",
          "type": "uint256"
        }
      ],
      "name": "postMap",
      "outputs": [
        {
          "internalType": "contract DBlogPostContract",
          "name": "",
          "type": "address"
        }
      ],
      "stateMutability": "view",
      "type": "function",
      "constant": true
    },
    {
      "inputs": [],
      "name": "renounceOwnership",
      "outputs": [],
      "stateMutability": "nonpayable",
      "type": "function"
    },
    {
      "inputs": [
        {
          "internalType": "string",
          "name": "",
          "type": "string"
        }
      ],
      "name": "tagExistence",
      "outputs": [
        {
          "internalType": "bool",
          "name": "",
          "type": "bool"
        }
      ],
      "stateMutability": "view",
      "type": "function",
      "constant": true
    },
    {
      "inputs": [
        {
          "internalType": "uint256",
          "name": "",
          "type": "uint256"
        }
      ],
      "name": "tagNames",
      "outputs": [
        {
          "internalType": "string",
          "name": "",
          "type": "string"
        }
      ],
      "stateMutability": "view",
      "type": "function",
      "constant": true
    },
    {
      "inputs": [
        {
          "internalType": "string",
          "name": "",
          "type": "string"
        }
      ],
      "name": "tagPageCounts",
      "outputs": [
        {
          "internalType": "uint256",
          "name": "",
          "type": "uint256"
        }
      ],
      "stateMutability": "view",
      "type": "function",
      "constant": true
    },
    {
      "inputs": [
        {
          "internalType": "string",
          "name": "",
          "type": "string"
        },
        {
          "internalType": "uint256",
          "name": "",
          "type": "uint256"
        }
      ],
      "name": "tagPageMap",
      "outputs": [
        {
          "internalType": "address",
          "name": "",
          "type": "address"
        }
      ],
      "stateMutability": "view",
      "type": "function",
      "constant": true
    },
    {
      "inputs": [
        {
          "internalType": "address",
          "name": "newOwner",
          "type": "address"
        }
      ],
      "name": "transferOwnership",
      "outputs": [],
      "stateMutability": "nonpayable",
      "type": "function"
    },
    {
      "inputs": [
        {
          "internalType": "string",
          "name": "_postTitle",
          "type": "string"
        },
        {
          "internalType": "string",
          "name": "_postContent",
          "type": "string"
        },
        {
          "internalType": "string[]",
          "name": "_tags",
          "type": "string[]"
        },
        {
          "internalType": "bool",
          "name": "_commentsEnabled",
          "type": "bool"
        }
      ],
      "name": "publishBlogPost",
      "outputs": [
        {
          "internalType": "uint256",
          "name": "postNum",
          "type": "uint256"
        }
      ],
      "stateMutability": "nonpayable",
      "type": "function"
    },
    {
      "inputs": [
        {
          "internalType": "uint256",
          "name": "_postNum",
          "type": "uint256"
        }
      ],
      "name": "deleteBlogPost",
      "outputs": [],
      "stateMutability": "nonpayable",
      "type": "function"
    },
    {
      "inputs": [
        {
          "internalType": "string",
          "name": "_blogName",
          "type": "string"
        }
      ],
      "name": "setBlogName",
      "outputs": [],
      "stateMutability": "nonpayable",
      "type": "function"
    }
  ],
  "bytecode": "0x60806040523480156200001157600080fd5b506040516200380138038062003801833981810160405281019062000037919062000287565b620000696200005462000099640100000000026401000000009004565b620000a1640100000000026401000000009004565b80600190805190602001906200008192919062000165565b5060006002819055506000600381905550506200043c565b600033905090565b60008060009054906101000a900473ffffffffffffffffffffffffffffffffffffffff169050816000806101000a81548173ffffffffffffffffffffffffffffffffffffffff021916908373ffffffffffffffffffffffffffffffffffffffff1602179055508173ffffffffffffffffffffffffffffffffffffffff168173ffffffffffffffffffffffffffffffffffffffff167f8be0079c531659141344cd1fd0a4f28419497f9722a3daafe3b4186f6b6457e060405160405180910390a35050565b828054620001739062000361565b90600052602060002090601f016020900481019282620001975760008555620001e3565b82601f10620001b257805160ff1916838001178555620001e3565b82800160010185558215620001e3579182015b82811115620001e2578251825591602001919060010190620001c5565b5b509050620001f29190620001f6565b5090565b5b8082111562000211576000816000905550600101620001f7565b5090565b60006200022c6200022684620002f5565b620002cc565b9050828152602081018484840111156200024557600080fd5b620002528482856200032b565b509392505050565b600082601f8301126200026c57600080fd5b81516200027e84826020860162000215565b91505092915050565b6000602082840312156200029a57600080fd5b600082015167ffffffffffffffff811115620002b557600080fd5b620002c3848285016200025a565b91505092915050565b6000620002d8620002eb565b9050620002e6828262000397565b919050565b6000604051905090565b600067ffffffffffffffff821115620003135762000312620003fc565b5b6200031e826200042b565b9050602081019050919050565b60005b838110156200034b5780820151818401526020810190506200032e565b838111156200035b576000848401525b50505050565b600060028204905060018216806200037a57607f821691505b60208210811415620003915762000390620003cd565b5b50919050565b620003a2826200042b565b810181811067ffffffffffffffff82111715620003c457620003c3620003fc565b5b80604052505050565b7f4e487b7100000000000000000000000000000000000000000000000000000000600052602260045260246000fd5b7f4e487b7100000000000000000000000000000000000000000000000000000000600052604160045260246000fd5b6000601f19601f8301169050919050565b6133b5806200044c6000396000f3fe60806040523480156200001157600080fd5b5060043610620000e1576000357c010000000000000000000000000000000000000000000000000000000090048063792bb13f1162000098578063792bb13f14620001d45780638da5cb5b14620001f6578063bf6593341462000218578063ca7de471146200024e578063dc7288621462000284578063f2fde38b14620002ba57620000e1565b80633601427f14620000e65780634458f944146200011c5780634c7cfe9a146200013c57806352ecaa0614620001725780635ae4697814620001a8578063715018a614620001c8575b600080fd5b620001046004803603810190620000fe919062000dfb565b620002da565b60405162000113919062001217565b60405180910390f35b6200013a600480360381019062000134919062000f51565b62000310565b005b6200015a600480360381019062000154919062000f51565b62000313565b60405162000169919062001234565b60405180910390f35b6200019060048036038101906200018a919062000dfb565b62000346565b6040516200019f9190620012b9565b60405180910390f35b620001c66004803603810190620001c0919062000dfb565b62000374565b005b620001d262000413565b005b620001de620004a4565b604051620001ed919062001251565b60405180910390f35b620002006200053a565b6040516200020f919062001178565b60405180910390f35b62000236600480360381019062000230919062000f51565b62000563565b60405162000245919062001251565b60405180910390f35b6200026c600480360381019062000266919062000e40565b6200060b565b6040516200027b9190620012b9565b60405180910390f35b620002a260048036038101906200029c919062000ef7565b620009a0565b604051620002b1919062001178565b60405180910390f35b620002d86004803603810190620002d2919062000dcf565b620009f8565b005b6008818051602081018201805184825260208301602085012081835280955050505050506000915054906101000a900460ff1681565b50565b60046020528060005260406000206000915054906101000a900473ffffffffffffffffffffffffffffffffffffffff1681565b6007818051602081018201805184825260208301602085012081835280955050505050506000915090505481565b6200037e62000afc565b73ffffffffffffffffffffffffffffffffffffffff166200039e6200053a565b73ffffffffffffffffffffffffffffffffffffffff1614620003f7576040517f08c379a0000000000000000000000000000000000000000000000000000000008152600401620003ee9062001297565b60405180910390fd5b80600190805190602001906200040f92919062000bc8565b5050565b6200041d62000afc565b73ffffffffffffffffffffffffffffffffffffffff166200043d6200053a565b73ffffffffffffffffffffffffffffffffffffffff161462000496576040517f08c379a00000000000000000000000000000000000000000000000000000000081526004016200048d9062001297565b60405180910390fd5b620004a2600062000b04565b565b60018054620004b390620014c7565b80601f0160208091040260200160405190810160405280929190818152602001828054620004e190620014c7565b8015620005325780601f10620005065761010080835404028352916020019162000532565b820191906000526020600020905b8154815290600101906020018083116200051457829003601f168201915b505050505081565b60008060009054906101000a900473ffffffffffffffffffffffffffffffffffffffff16905090565b600560205280600052604060002060009150905080546200058490620014c7565b80601f0160208091040260200160405190810160405280929190818152602001828054620005b290620014c7565b8015620006035780601f10620005d75761010080835404028352916020019162000603565b820191906000526020600020905b815481529060010190602001808311620005e557829003601f168201915b505050505081565b60006200061762000afc565b73ffffffffffffffffffffffffffffffffffffffff16620006376200053a565b73ffffffffffffffffffffffffffffffffffffffff161462000690576040517f08c379a0000000000000000000000000000000000000000000000000000000008152600401620006879062001297565b60405180910390fd5b60026000815480929190620006a59062001533565b91905055503060025486868686604051620006c09062000c59565b620006d19695949392919062001195565b604051809103906000f080158015620006ee573d6000803e3d6000fd5b5060046000600254815260200190815260200160002060006101000a81548173ffffffffffffffffffffffffffffffffffffffff021916908373ffffffffffffffffffffffffffffffffffffffff16021790555060005b8351811015620009925760008482815181106200078b577f4e487b7100000000000000000000000000000000000000000000000000000000600052603260045260246000fd5b60200260200101519050600881604051620007a791906200115f565b908152602001604051809103902060009054906101000a900460ff166200086f576001600882604051620007dc91906200115f565b908152602001604051809103902060006101000a81548160ff0219169083151502179055508060056000600360008154809291906200081b9062001533565b91905055815260200190815260200160002090805190602001906200084292919062000bc8565b5060016007826040516200085791906200115f565b908152602001604051809103902081905550620008a8565b6007816040516200088191906200115f565b90815260200160405180910390206000815480929190620008a29062001533565b91905055505b60046000600254815260200190815260200160002060009054906101000a900473ffffffffffffffffffffffffffffffffffffffff16600682604051620008f091906200115f565b9081526020016040518091039020600060016007856040516200091491906200115f565b9081526020016040518091039020546200092f9190620013d5565b815260200190815260200160002060006101000a81548173ffffffffffffffffffffffffffffffffffffffff021916908373ffffffffffffffffffffffffffffffffffffffff160217905550508080620009899062001533565b91505062000745565b506002549050949350505050565b6006828051602081018201805184825260208301602085012081835280955050505050506020528060005260406000206000915091509054906101000a900473ffffffffffffffffffffffffffffffffffffffff1681565b62000a0262000afc565b73ffffffffffffffffffffffffffffffffffffffff1662000a226200053a565b73ffffffffffffffffffffffffffffffffffffffff161462000a7b576040517f08c379a000000000000000000000000000000000000000000000000000000000815260040162000a729062001297565b60405180910390fd5b600073ffffffffffffffffffffffffffffffffffffffff168173ffffffffffffffffffffffffffffffffffffffff16141562000aee576040517f08c379a000000000000000000000000000000000000000000000000000000000815260040162000ae59062001275565b60405180910390fd5b62000af98162000b04565b50565b600033905090565b60008060009054906101000a900473ffffffffffffffffffffffffffffffffffffffff169050816000806101000a81548173ffffffffffffffffffffffffffffffffffffffff021916908373ffffffffffffffffffffffffffffffffffffffff1602179055508173ffffffffffffffffffffffffffffffffffffffff168173ffffffffffffffffffffffffffffffffffffffff167f8be0079c531659141344cd1fd0a4f28419497f9722a3daafe3b4186f6b6457e060405160405180910390a35050565b82805462000bd690620014c7565b90600052602060002090601f01602090048101928262000bfa576000855562000c46565b82601f1062000c1557805160ff191683800117855562000c46565b8280016001018555821562000c46579182015b8281111562000c4557825182559160200191906001019062000c28565b5b50905062000c55919062000c67565b5090565b611c9a80620016e683390190565b5b8082111562000c8257600081600090555060010162000c68565b5090565b600062000c9d62000c9784620012ff565b620012d6565b9050808382526020820190508260005b8581101562000ce1578135850162000cc6888262000d8b565b84526020840193506020830192505060018101905062000cad565b5050509392505050565b600062000d0262000cfc846200132e565b620012d6565b90508281526020810184848401111562000d1b57600080fd5b62000d2884828562001482565b509392505050565b60008135905062000d418162001697565b92915050565b600082601f83011262000d5957600080fd5b813562000d6b84826020860162000c86565b91505092915050565b60008135905062000d8581620016b1565b92915050565b600082601f83011262000d9d57600080fd5b813562000daf84826020860162000ceb565b91505092915050565b60008135905062000dc981620016cb565b92915050565b60006020828403121562000de257600080fd5b600062000df28482850162000d30565b91505092915050565b60006020828403121562000e0e57600080fd5b600082013567ffffffffffffffff81111562000e2957600080fd5b62000e378482850162000d8b565b91505092915050565b6000806000806080858703121562000e5757600080fd5b600085013567ffffffffffffffff81111562000e7257600080fd5b62000e808782880162000d8b565b945050602085013567ffffffffffffffff81111562000e9e57600080fd5b62000eac8782880162000d8b565b935050604085013567ffffffffffffffff81111562000eca57600080fd5b62000ed88782880162000d47565b925050606062000eeb8782880162000d74565b91505092959194509250565b6000806040838503121562000f0b57600080fd5b600083013567ffffffffffffffff81111562000f2657600080fd5b62000f348582860162000d8b565b925050602062000f478582860162000db8565b9150509250929050565b60006020828403121562000f6457600080fd5b600062000f748482850162000db8565b91505092915050565b600062000f8b838362001047565b905092915050565b62000f9e8162001410565b82525050565b600062000fb18262001374565b62000fbd818562001397565b93508360208202850162000fd18562001364565b8060005b8581101562001013578484038952815162000ff1858262000f7d565b945062000ffe836200138a565b925060208a0199505060018101905062000fd5565b50829750879550505050505092915050565b620010308162001424565b82525050565b62001041816200145a565b82525050565b600062001054826200137f565b620010608185620013a8565b93506200107281856020860162001491565b6200107d816200160e565b840191505092915050565b600062001095826200137f565b620010a18185620013b9565b9350620010b381856020860162001491565b620010be816200160e565b840191505092915050565b6000620010d6826200137f565b620010e28185620013ca565b9350620010f481856020860162001491565b80840191505092915050565b60006200110f602683620013b9565b91506200111c826200161f565b604082019050919050565b600062001136602083620013b9565b915062001143826200166e565b602082019050919050565b620011598162001450565b82525050565b60006200116d8284620010c9565b915081905092915050565b60006020820190506200118f600083018462000f93565b92915050565b600060c082019050620011ac600083018962000f93565b620011bb60208301886200114e565b8181036040830152620011cf818762001088565b90508181036060830152620011e5818662001088565b90508181036080830152620011fb818562000fa4565b90506200120c60a083018462001025565b979650505050505050565b60006020820190506200122e600083018462001025565b92915050565b60006020820190506200124b600083018462001036565b92915050565b600060208201905081810360008301526200126d818462001088565b905092915050565b60006020820190508181036000830152620012908162001100565b9050919050565b60006020820190508181036000830152620012b28162001127565b9050919050565b6000602082019050620012d060008301846200114e565b92915050565b6000620012e2620012f5565b9050620012f08282620014fd565b919050565b6000604051905090565b600067ffffffffffffffff8211156200131d576200131c620015df565b5b602082029050602081019050919050565b600067ffffffffffffffff8211156200134c576200134b620015df565b5b62001357826200160e565b9050602081019050919050565b6000819050602082019050919050565b600081519050919050565b600081519050919050565b6000602082019050919050565b600082825260208201905092915050565b600082825260208201905092915050565b600082825260208201905092915050565b600081905092915050565b6000620013e28262001450565b9150620013ef8362001450565b92508282101562001405576200140462001581565b5b828203905092915050565b60006200141d8262001430565b9050919050565b60008115159050919050565b600073ffffffffffffffffffffffffffffffffffffffff82169050919050565b6000819050919050565b600062001467826200146e565b9050919050565b60006200147b8262001430565b9050919050565b82818337600083830152505050565b60005b83811015620014b157808201518184015260208101905062001494565b83811115620014c1576000848401525b50505050565b60006002820490506001821680620014e057607f821691505b60208210811415620014f757620014f6620015b0565b5b50919050565b62001508826200160e565b810181811067ffffffffffffffff821117156200152a5762001529620015df565b5b80604052505050565b6000620015408262001450565b91507fffffffffffffffffffffffffffffffffffffffffffffffffffffffffffffffff82141562001576576200157562001581565b5b600182019050919050565b7f4e487b7100000000000000000000000000000000000000000000000000000000600052601160045260246000fd5b7f4e487b7100000000000000000000000000000000000000000000000000000000600052602260045260246000fd5b7f4e487b7100000000000000000000000000000000000000000000000000000000600052604160045260246000fd5b6000601f19601f8301169050919050565b7f4f776e61626c653a206e6577206f776e657220697320746865207a65726f206160008201527f6464726573730000000000000000000000000000000000000000000000000000602082015250565b7f4f776e61626c653a2063616c6c6572206973206e6f7420746865206f776e6572600082015250565b620016a28162001410565b8114620016ae57600080fd5b50565b620016bc8162001424565b8114620016c857600080fd5b50565b620016d68162001450565b8114620016e257600080fd5b5056fe60806040523480156200001157600080fd5b5060405162001c9a38038062001c9a833981810160405281019062000037919062000640565b62000069620000546200014c640100000000026401000000009004565b62000154640100000000026401000000009004565b620000838662000218640100000000026401000000009004565b85600160006101000a81548173ffffffffffffffffffffffffffffffffffffffff021916908373ffffffffffffffffffffffffffffffffffffffff160217905550846002819055508360039080519060200190620000e392919062000372565b508260049080519060200190620000fc92919062000372565b5081600590805190602001906200011592919062000403565b506000600681905550600060098190555080600860016101000a81548160ff02191690831515021790555050505050505062000a73565b600033905090565b60008060009054906101000a900473ffffffffffffffffffffffffffffffffffffffff169050816000806101000a81548173ffffffffffffffffffffffffffffffffffffffff021916908373ffffffffffffffffffffffffffffffffffffffff1602179055508173ffffffffffffffffffffffffffffffffffffffff168173ffffffffffffffffffffffffffffffffffffffff167f8be0079c531659141344cd1fd0a4f28419497f9722a3daafe3b4186f6b6457e060405160405180910390a35050565b620002316200014c640100000000026401000000009004565b73ffffffffffffffffffffffffffffffffffffffff166200026062000349640100000000026401000000009004565b73ffffffffffffffffffffffffffffffffffffffff1614620002b9576040517f08c379a0000000000000000000000000000000000000000000000000000000008152600401620002b09062000791565b60405180910390fd5b600073ffffffffffffffffffffffffffffffffffffffff168173ffffffffffffffffffffffffffffffffffffffff1614156200032c576040517f08c379a000000000000000000000000000000000000000000000000000000000815260040162000323906200076f565b60405180910390fd5b620003468162000154640100000000026401000000009004565b50565b60008060009054906101000a900473ffffffffffffffffffffffffffffffffffffffff16905090565b8280546200038090620008d2565b90600052602060002090601f016020900481019282620003a45760008555620003f0565b82601f10620003bf57805160ff1916838001178555620003f0565b82800160010185558215620003f0579182015b82811115620003ef578251825591602001919060010190620003d2565b5b509050620003ff91906200046a565b5090565b82805482825590600052602060002090810192821562000457579160200282015b82811115620004565782518290805190602001906200044592919062000372565b509160200191906001019062000424565b5b50905062000466919062000489565b5090565b5b80821115620004855760008160009055506001016200046b565b5090565b5b80821115620004ad5760008181620004a39190620004b1565b506001016200048a565b5090565b508054620004bf90620008d2565b6000825580601f10620004d35750620004f4565b601f016020900490600052602060002090810190620004f391906200046a565b5b50565b60006200050e6200050884620007dc565b620007b3565b9050808382526020820190508260005b85811015620005525781518501620005378882620005fc565b8452602084019350602083019250506001810190506200051e565b5050509392505050565b6000620005736200056d846200080b565b620007b3565b9050828152602081018484840111156200058c57600080fd5b620005998482856200089c565b509392505050565b600081519050620005b28162000a25565b92915050565b600082601f830112620005ca57600080fd5b8151620005dc848260208601620004f7565b91505092915050565b600081519050620005f68162000a3f565b92915050565b600082601f8301126200060e57600080fd5b8151620006208482602086016200055c565b91505092915050565b6000815190506200063a8162000a59565b92915050565b60008060008060008060c087890312156200065a57600080fd5b60006200066a89828a01620005a1565b96505060206200067d89828a0162000629565b955050604087015167ffffffffffffffff8111156200069b57600080fd5b620006a989828a01620005fc565b945050606087015167ffffffffffffffff811115620006c757600080fd5b620006d589828a01620005fc565b935050608087015167ffffffffffffffff811115620006f357600080fd5b6200070189828a01620005b8565b92505060a06200071489828a01620005e5565b9150509295509295509295565b60006200073060268362000841565b91506200073d82620009ad565b604082019050919050565b60006200075760208362000841565b91506200076482620009fc565b602082019050919050565b600060208201905081810360008301526200078a8162000721565b9050919050565b60006020820190508181036000830152620007ac8162000748565b9050919050565b6000620007bf620007d2565b9050620007cd828262000908565b919050565b6000604051905090565b600067ffffffffffffffff821115620007fa57620007f96200096d565b5b602082029050602081019050919050565b600067ffffffffffffffff8211156200082957620008286200096d565b5b62000834826200099c565b9050602081019050919050565b600082825260208201905092915050565b60006200085f8262000872565b9050919050565b60008115159050919050565b600073ffffffffffffffffffffffffffffffffffffffff82169050919050565b6000819050919050565b60005b83811015620008bc5780820151818401526020810190506200089f565b83811115620008cc576000848401525b50505050565b60006002820490506001821680620008eb57607f821691505b602082108114156200090257620009016200093e565b5b50919050565b62000913826200099c565b810181811067ffffffffffffffff821117156200093557620009346200096d565b5b80604052505050565b7f4e487b7100000000000000000000000000000000000000000000000000000000600052602260045260246000fd5b7f4e487b7100000000000000000000000000000000000000000000000000000000600052604160045260246000fd5b6000601f19601f8301169050919050565b7f4f776e61626c653a206e6577206f776e657220697320746865207a65726f206160008201527f6464726573730000000000000000000000000000000000000000000000000000602082015250565b7f4f776e61626c653a2063616c6c6572206973206e6f7420746865206f776e6572600082015250565b62000a308162000852565b811462000a3c57600080fd5b50565b62000a4a8162000866565b811462000a5657600080fd5b50565b62000a648162000892565b811462000a7057600080fd5b50565b6112178062000a836000396000f3fe608060405234801561001057600080fd5b5060043610610107576000357c010000000000000000000000000000000000000000000000000000000090048063843b4386116100a9578063bbc78bd711610083578063bbc78bd71461021e578063d2c82ed91461023c578063e5a0af3d1461025a578063f2fde38b1461027857610107565b8063843b4386146101c65780638a4d5a67146101e25780638da5cb5b1461020057610107565b80632f23f022116100e55780632f23f0221461017657806345ff20de146101805780634a79d50c1461019e578063715018a6146101bc57610107565b80630ab89cc21461010c5780631aa30f531461012857806320822abc14610146575b600080fd5b61012660048036038101906101219190610b7a565b610294565b005b61013061032d565b60405161013d9190610e01565b60405180910390f35b610160600480360381019061015b9190610be4565b610333565b60405161016d9190610d5f565b60405180910390f35b61017e6103df565b005b610188610561565b6040516101959190610e01565b60405180910390f35b6101a6610567565b6040516101b39190610d5f565b60405180910390f35b6101c46105f5565b005b6101e060048036038101906101db9190610ba3565b61067d565b005b6101ea61074d565b6040516101f79190610d5f565b60405180910390f35b6102086107db565b6040516102159190610d0e565b60405180910390f35b610226610804565b6040516102339190610d44565b60405180910390f35b61024461082a565b6040516102519190610d29565b60405180910390f35b61026261083d565b60405161026f9190610e01565b60405180910390f35b610292600480360381019061028d9190610b51565b610843565b005b61029c61093b565b73ffffffffffffffffffffffffffffffffffffffff166102ba6107db565b73ffffffffffffffffffffffffffffffffffffffff1614610310576040517f08c379a000000000000000000000000000000000000000000000000000000000815260040161030790610de1565b60405180910390fd5b80600860006101000a81548160ff02191690831515021790555050565b60025481565b6005818154811061034357600080fd5b90600052602060002001600091509050805461035e90610f3c565b80601f016020809104026020016040519081016040528092919081815260200182805461038a90610f3c565b80156103d75780601f106103ac576101008083540402835291602001916103d7565b820191906000526020600020905b8154815290600101906020018083116103ba57829003601f168201915b505050505081565b6103e761093b565b73ffffffffffffffffffffffffffffffffffffffff166104056107db565b73ffffffffffffffffffffffffffffffffffffffff16141561045c576040517f08c379a000000000000000000000000000000000000000000000000000000000815260040161045390610dc1565b60405180910390fd5b60001515600760003373ffffffffffffffffffffffffffffffffffffffff1673ffffffffffffffffffffffffffffffffffffffff16815260200190815260200160002060009054906101000a900460ff161515146104ef576040517f08c379a00000000000000000000000000000000000000000000000000000000081526004016104e690610da1565b60405180910390fd5b6006600081548092919061050290610f9f565b91905055506001600760003373ffffffffffffffffffffffffffffffffffffffff1673ffffffffffffffffffffffffffffffffffffffff16815260200190815260200160002060006101000a81548160ff021916908315150217905550565b60095481565b6003805461057490610f3c565b80601f01602080910402602001604051908101604052809291908181526020018280546105a090610f3c565b80156105ed5780601f106105c2576101008083540402835291602001916105ed565b820191906000526020600020905b8154815290600101906020018083116105d057829003601f168201915b505050505081565b6105fd61093b565b73ffffffffffffffffffffffffffffffffffffffff1661061b6107db565b73ffffffffffffffffffffffffffffffffffffffff1614610671576040517f08c379a000000000000000000000000000000000000000000000000000000000815260040161066890610de1565b60405180910390fd5b61067b6000610943565b565b60405180606001604052806009600081548092919061069b90610f9f565b9190505581526020018281526020013373ffffffffffffffffffffffffffffffffffffffff16815250600a600060095481526020019081526020016000206000820151816000015560208201518160010190805190602001906106ff929190610a07565b5060408201518160020160006101000a81548173ffffffffffffffffffffffffffffffffffffffff021916908373ffffffffffffffffffffffffffffffffffffffff16021790555090505050565b6004805461075a90610f3c565b80601f016020809104026020016040519081016040528092919081815260200182805461078690610f3c565b80156107d35780601f106107a8576101008083540402835291602001916107d3565b820191906000526020600020905b8154815290600101906020018083116107b657829003601f168201915b505050505081565b60008060009054906101000a900473ffffffffffffffffffffffffffffffffffffffff16905090565b600160009054906101000a900473ffffffffffffffffffffffffffffffffffffffff1681565b600860019054906101000a900460ff1681565b60065481565b61084b61093b565b73ffffffffffffffffffffffffffffffffffffffff166108696107db565b73ffffffffffffffffffffffffffffffffffffffff16146108bf576040517f08c379a00000000000000000000000000000000000000000000000000000000081526004016108b690610de1565b60405180910390fd5b600073ffffffffffffffffffffffffffffffffffffffff168173ffffffffffffffffffffffffffffffffffffffff16141561092f576040517f08c379a000000000000000000000000000000000000000000000000000000000815260040161092690610d81565b60405180910390fd5b61093881610943565b50565b600033905090565b60008060009054906101000a900473ffffffffffffffffffffffffffffffffffffffff169050816000806101000a81548173ffffffffffffffffffffffffffffffffffffffff021916908373ffffffffffffffffffffffffffffffffffffffff1602179055508173ffffffffffffffffffffffffffffffffffffffff168173ffffffffffffffffffffffffffffffffffffffff167f8be0079c531659141344cd1fd0a4f28419497f9722a3daafe3b4186f6b6457e060405160405180910390a35050565b828054610a1390610f3c565b90600052602060002090601f016020900481019282610a355760008555610a7c565b82601f10610a4e57805160ff1916838001178555610a7c565b82800160010185558215610a7c579182015b82811115610a7b578251825591602001919060010190610a60565b5b509050610a899190610a8d565b5090565b5b80821115610aa6576000816000905550600101610a8e565b5090565b6000610abd610ab884610e41565b610e1c565b905082815260208101848484011115610ad557600080fd5b610ae0848285610efa565b509392505050565b600081359050610af78161119c565b92915050565b600081359050610b0c816111b3565b92915050565b600082601f830112610b2357600080fd5b8135610b33848260208601610aaa565b91505092915050565b600081359050610b4b816111ca565b92915050565b600060208284031215610b6357600080fd5b6000610b7184828501610ae8565b91505092915050565b600060208284031215610b8c57600080fd5b6000610b9a84828501610afd565b91505092915050565b600060208284031215610bb557600080fd5b600082013567ffffffffffffffff811115610bcf57600080fd5b610bdb84828501610b12565b91505092915050565b600060208284031215610bf657600080fd5b6000610c0484828501610b3c565b91505092915050565b610c1681610e8e565b82525050565b610c2581610ea0565b82525050565b610c3481610ed6565b82525050565b6000610c4582610e72565b610c4f8185610e7d565b9350610c5f818560208601610f09565b610c6881611075565b840191505092915050565b6000610c80602683610e7d565b9150610c8b82611086565b604082019050919050565b6000610ca3602b83610e7d565b9150610cae826110d5565b604082019050919050565b6000610cc6602e83610e7d565b9150610cd182611124565b604082019050919050565b6000610ce9602083610e7d565b9150610cf482611173565b602082019050919050565b610d0881610ecc565b82525050565b6000602082019050610d236000830184610c0d565b92915050565b6000602082019050610d3e6000830184610c1c565b92915050565b6000602082019050610d596000830184610c2b565b92915050565b60006020820190508181036000830152610d798184610c3a565b905092915050565b60006020820190508181036000830152610d9a81610c73565b9050919050565b60006020820190508181036000830152610dba81610c96565b9050919050565b60006020820190508181036000830152610dda81610cb9565b9050919050565b60006020820190508181036000830152610dfa81610cdc565b9050919050565b6000602082019050610e166000830184610cff565b92915050565b6000610e26610e37565b9050610e328282610f6e565b919050565b6000604051905090565b600067ffffffffffffffff821115610e5c57610e5b611046565b5b610e6582611075565b9050602081019050919050565b600081519050919050565b600082825260208201905092915050565b6000610e9982610eac565b9050919050565b60008115159050919050565b600073ffffffffffffffffffffffffffffffffffffffff82169050919050565b6000819050919050565b6000610ee182610ee8565b9050919050565b6000610ef382610eac565b9050919050565b82818337600083830152505050565b60005b83811015610f27578082015181840152602081019050610f0c565b83811115610f36576000848401525b50505050565b60006002820490506001821680610f5457607f821691505b60208210811415610f6857610f67611017565b5b50919050565b610f7782611075565b810181811067ffffffffffffffff82111715610f9657610f95611046565b5b80604052505050565b6000610faa82610ecc565b91507fffffffffffffffffffffffffffffffffffffffffffffffffffffffffffffffff821415610fdd57610fdc610fe8565b5b600182019050919050565b7f4e487b7100000000000000000000000000000000000000000000000000000000600052601160045260246000fd5b7f4e487b7100000000000000000000000000000000000000000000000000000000600052602260045260246000fd5b7f4e487b7100000000000000000000000000000000000000000000000000000000600052604160045260246000fd5b6000601f19601f8301169050919050565b7f4f776e61626c653a206e6577206f776e657220697320746865207a65726f206160008201527f6464726573730000000000000000000000000000000000000000000000000000602082015250565b7f43616c6c657220616464726573732068617320616c7265616479206c696b656460008201527f207468697320706f73742e000000000000000000000000000000000000000000602082015250565b7f43616c6c657220697320746865206f776e65722e2043616e6e6f74206265206360008201527f616c6c6564206279206f776e6572000000000000000000000000000000000000602082015250565b7f4f776e61626c653a2063616c6c6572206973206e6f7420746865206f776e6572600082015250565b6111a581610e8e565b81146111b057600080fd5b50565b6111bc81610ea0565b81146111c757600080fd5b50565b6111d381610ecc565b81146111de57600080fd5b5056fea2646970667358221220ff13684dc732e3a9b4a373db9192c6d82cc3a9c1a67e7e7d82410c539ca806d164736f6c63430008010033a26469706673582212204aa630d11d2ea9e2cd91867b75650d5cd8771f2da87803b029ef40a0a984420264736f6c63430008010033",
  "immutableReferences": {},
  "source": "// SPDX-License-Identifier: MIT\r\npragma solidity >=0.4.22 <0.9.0;\r\n\r\nimport \"./DBlogPostContract.sol\";\r\nimport '@openzeppelin/contracts/access/Ownable.sol';\r\n\r\ncontract DBlogContract is Ownable {\r\n    \r\n    string public blogName;\r\n    \r\n    uint postCount;\r\n    uint tagCount;\r\n    \r\n    // TODO is this needed or is address fine\r\n    mapping(uint => DBlogPostContract) public postMap;\r\n    mapping(uint => string) public tagNames;\r\n    \r\n    // required for ui to iterate through page names for given tag\r\n    mapping(string => mapping(uint => address)) public tagPageMap;\r\n    mapping(string => uint) public tagPageCounts;\r\n    mapping(string => bool) public tagExistence;\r\n    \r\n    constructor(string memory _blogName) {\r\n        blogName = _blogName;\r\n        postCount = 0;\r\n        tagCount = 0;\r\n    }\r\n    \r\n    function publishBlogPost(string memory _postTitle, \r\n        string memory _postContent, \r\n        string[] memory _tags,\r\n        bool _commentsEnabled) onlyOwner public returns(uint postNum)  {\r\n        \r\n        // TODO handle duplicate tags passed\r\n        postCount++;\r\n        postMap[postCount] = new DBlogPostContract(address(this), postCount, _postTitle, _postContent, _tags, _commentsEnabled);\r\n        \r\n        for(uint i = 0; i < _tags.length; i++) {\r\n            string memory lowercaseTagName = _tags[i];\r\n            \r\n            if (!tagExistence[lowercaseTagName]) {\r\n                tagExistence[lowercaseTagName] = true;\r\n                tagNames[tagCount++] = lowercaseTagName;\r\n                tagPageCounts[lowercaseTagName] = 1;\r\n            }\r\n            else {\r\n                tagPageCounts[lowercaseTagName]++;\r\n            }\r\n            \r\n            tagPageMap[lowercaseTagName][tagPageCounts[lowercaseTagName] - 1] = address(postMap[postCount]);\r\n        }\r\n        \r\n        return postCount;\r\n    }\r\n    \r\n    function deleteBlogPost(uint _postNum) public {\r\n        // must be owner\r\n        \r\n        // if (postMap[_postNum]) {\r\n        //     postMap[_postNum].isDeleted = true;\r\n        // }\r\n        \r\n        // todo delete tag if no posts \r\n    }\r\n\r\n    function setBlogName(string memory _blogName) onlyOwner public {\r\n        blogName = _blogName;\r\n    }\r\n    \r\n}",
  "sourcePath": "C:/Users/EREID/Desktop/Repos/dblog-dapp/src/contracts/DBlogContract.sol",
  "compiler": {
    "name": "solc",
    "version": "0.8.1+commit.df193b15.Emscripten.clang"
  },
  "schemaVersion": "3.4.1",
  "updatedAt": "2021-07-12T01:54:45.024Z",
  "networkType": "ethereum",
  "devdoc": {
    "kind": "dev",
    "methods": {
      "owner()": {
        "details": "Returns the address of the current owner."
      },
      "renounceOwnership()": {
        "details": "Leaves the contract without owner. It will not be possible to call `onlyOwner` functions anymore. Can only be called by the current owner. NOTE: Renouncing ownership will leave the contract without an owner, thereby removing any functionality that is only available to the owner."
      },
      "transferOwnership(address)": {
        "details": "Transfers ownership of the contract to a new account (`newOwner`). Can only be called by the current owner."
      }
    },
    "version": 1
  },
  "userdoc": {
    "kind": "user",
    "methods": {},
    "version": 1
  }
}