{
  "contractName": "DBlogPostContract",
  "abi": [
    {
      "inputs": [
        {
          "internalType": "address",
          "name": "_blogAddress",
          "type": "address"
        },
        {
          "internalType": "uint256",
          "name": "_postNum",
          "type": "uint256"
        },
        {
          "internalType": "string",
          "name": "_postTitle",
          "type": "string"
        },
        {
          "internalType": "string",
          "name": "_postContentIpfsCid",
          "type": "string"
        },
        {
          "internalType": "string[]",
          "name": "_tags",
          "type": "string[]"
        },
        {
          "internalType": "bool",
          "name": "_commentsEnabled",
          "type": "bool"
        }
      ],
      "stateMutability": "nonpayable",
      "type": "constructor"
    },
    {
      "anonymous": false,
      "inputs": [
        {
          "indexed": true,
          "internalType": "address",
          "name": "previousOwner",
          "type": "address"
        },
        {
          "indexed": true,
          "internalType": "address",
          "name": "newOwner",
          "type": "address"
        }
      ],
      "name": "OwnershipTransferred",
      "type": "event"
    },
    {
      "inputs": [],
      "name": "blog",
      "outputs": [
        {
          "internalType": "contract DBlogContract",
          "name": "",
          "type": "address"
        }
      ],
      "stateMutability": "view",
      "type": "function"
    },
    {
      "inputs": [],
      "name": "commentCount",
      "outputs": [
        {
          "internalType": "uint256",
          "name": "",
          "type": "uint256"
        }
      ],
      "stateMutability": "view",
      "type": "function"
    },
    {
      "inputs": [],
      "name": "commentsEnabled",
      "outputs": [
        {
          "internalType": "bool",
          "name": "",
          "type": "bool"
        }
      ],
      "stateMutability": "view",
      "type": "function"
    },
    {
      "inputs": [],
      "name": "contentIpfsCid",
      "outputs": [
        {
          "internalType": "string",
          "name": "",
          "type": "string"
        }
      ],
      "stateMutability": "view",
      "type": "function"
    },
    {
      "inputs": [],
      "name": "isDeleted",
      "outputs": [
        {
          "internalType": "bool",
          "name": "",
          "type": "bool"
        }
      ],
      "stateMutability": "view",
      "type": "function"
    },
    {
      "inputs": [],
      "name": "likeCount",
      "outputs": [
        {
          "internalType": "uint256",
          "name": "",
          "type": "uint256"
        }
      ],
      "stateMutability": "view",
      "type": "function"
    },
    {
      "inputs": [
        {
          "internalType": "address",
          "name": "",
          "type": "address"
        }
      ],
      "name": "likers",
      "outputs": [
        {
          "internalType": "bool",
          "name": "",
          "type": "bool"
        }
      ],
      "stateMutability": "view",
      "type": "function"
    },
    {
      "inputs": [],
      "name": "owner",
      "outputs": [
        {
          "internalType": "address",
          "name": "",
          "type": "address"
        }
      ],
      "stateMutability": "view",
      "type": "function"
    },
    {
      "inputs": [],
      "name": "postNum",
      "outputs": [
        {
          "internalType": "uint256",
          "name": "",
          "type": "uint256"
        }
      ],
      "stateMutability": "view",
      "type": "function"
    },
    {
      "inputs": [],
      "name": "renounceOwnership",
      "outputs": [],
      "stateMutability": "nonpayable",
      "type": "function"
    },
    {
      "inputs": [
        {
          "internalType": "uint256",
          "name": "",
          "type": "uint256"
        }
      ],
      "name": "tags",
      "outputs": [
        {
          "internalType": "string",
          "name": "",
          "type": "string"
        }
      ],
      "stateMutability": "view",
      "type": "function"
    },
    {
      "inputs": [],
      "name": "title",
      "outputs": [
        {
          "internalType": "string",
          "name": "",
          "type": "string"
        }
      ],
      "stateMutability": "view",
      "type": "function"
    },
    {
      "inputs": [
        {
          "internalType": "address",
          "name": "newOwner",
          "type": "address"
        }
      ],
      "name": "transferOwnership",
      "outputs": [],
      "stateMutability": "nonpayable",
      "type": "function"
    },
    {
      "inputs": [],
      "name": "likePost",
      "outputs": [],
      "stateMutability": "nonpayable",
      "type": "function"
    },
    {
      "inputs": [
        {
          "internalType": "string",
          "name": "_contentIpfsCid",
          "type": "string"
        }
      ],
      "name": "addComment",
      "outputs": [],
      "stateMutability": "nonpayable",
      "type": "function"
    },
    {
      "inputs": [
        {
          "internalType": "bool",
          "name": "_isDeleted",
          "type": "bool"
        }
      ],
      "name": "setDeleted",
      "outputs": [],
      "stateMutability": "nonpayable",
      "type": "function"
    }
  ],
  "bytecode": "0x60806040523480156200001157600080fd5b5060405162001d3138038062001d31833981810160405281019062000037919062000640565b62000069620000546200014c640100000000026401000000009004565b62000154640100000000026401000000009004565b620000838662000218640100000000026401000000009004565b85600160006101000a81548173ffffffffffffffffffffffffffffffffffffffff021916908373ffffffffffffffffffffffffffffffffffffffff160217905550846002819055508360039080519060200190620000e392919062000372565b508260049080519060200190620000fc92919062000372565b5081600590805190602001906200011592919062000403565b506000600681905550600060098190555080600860016101000a81548160ff02191690831515021790555050505050505062000a73565b600033905090565b60008060009054906101000a900473ffffffffffffffffffffffffffffffffffffffff169050816000806101000a81548173ffffffffffffffffffffffffffffffffffffffff021916908373ffffffffffffffffffffffffffffffffffffffff1602179055508173ffffffffffffffffffffffffffffffffffffffff168173ffffffffffffffffffffffffffffffffffffffff167f8be0079c531659141344cd1fd0a4f28419497f9722a3daafe3b4186f6b6457e060405160405180910390a35050565b620002316200014c640100000000026401000000009004565b73ffffffffffffffffffffffffffffffffffffffff166200026062000349640100000000026401000000009004565b73ffffffffffffffffffffffffffffffffffffffff1614620002b9576040517f08c379a0000000000000000000000000000000000000000000000000000000008152600401620002b09062000791565b60405180910390fd5b600073ffffffffffffffffffffffffffffffffffffffff168173ffffffffffffffffffffffffffffffffffffffff1614156200032c576040517f08c379a000000000000000000000000000000000000000000000000000000000815260040162000323906200076f565b60405180910390fd5b620003468162000154640100000000026401000000009004565b50565b60008060009054906101000a900473ffffffffffffffffffffffffffffffffffffffff16905090565b8280546200038090620008d2565b90600052602060002090601f016020900481019282620003a45760008555620003f0565b82601f10620003bf57805160ff1916838001178555620003f0565b82800160010185558215620003f0579182015b82811115620003ef578251825591602001919060010190620003d2565b5b509050620003ff91906200046a565b5090565b82805482825590600052602060002090810192821562000457579160200282015b82811115620004565782518290805190602001906200044592919062000372565b509160200191906001019062000424565b5b50905062000466919062000489565b5090565b5b80821115620004855760008160009055506001016200046b565b5090565b5b80821115620004ad5760008181620004a39190620004b1565b506001016200048a565b5090565b508054620004bf90620008d2565b6000825580601f10620004d35750620004f4565b601f016020900490600052602060002090810190620004f391906200046a565b5b50565b60006200050e6200050884620007dc565b620007b3565b9050808382526020820190508260005b85811015620005525781518501620005378882620005fc565b8452602084019350602083019250506001810190506200051e565b5050509392505050565b6000620005736200056d846200080b565b620007b3565b9050828152602081018484840111156200058c57600080fd5b620005998482856200089c565b509392505050565b600081519050620005b28162000a25565b92915050565b600082601f830112620005ca57600080fd5b8151620005dc848260208601620004f7565b91505092915050565b600081519050620005f68162000a3f565b92915050565b600082601f8301126200060e57600080fd5b8151620006208482602086016200055c565b91505092915050565b6000815190506200063a8162000a59565b92915050565b60008060008060008060c087890312156200065a57600080fd5b60006200066a89828a01620005a1565b96505060206200067d89828a0162000629565b955050604087015167ffffffffffffffff8111156200069b57600080fd5b620006a989828a01620005fc565b945050606087015167ffffffffffffffff811115620006c757600080fd5b620006d589828a01620005fc565b935050608087015167ffffffffffffffff811115620006f357600080fd5b6200070189828a01620005b8565b92505060a06200071489828a01620005e5565b9150509295509295509295565b60006200073060268362000841565b91506200073d82620009ad565b604082019050919050565b60006200075760208362000841565b91506200076482620009fc565b602082019050919050565b600060208201905081810360008301526200078a8162000721565b9050919050565b60006020820190508181036000830152620007ac8162000748565b9050919050565b6000620007bf620007d2565b9050620007cd828262000908565b919050565b6000604051905090565b600067ffffffffffffffff821115620007fa57620007f96200096d565b5b602082029050602081019050919050565b600067ffffffffffffffff8211156200082957620008286200096d565b5b62000834826200099c565b9050602081019050919050565b600082825260208201905092915050565b60006200085f8262000872565b9050919050565b60008115159050919050565b600073ffffffffffffffffffffffffffffffffffffffff82169050919050565b6000819050919050565b60005b83811015620008bc5780820151818401526020810190506200089f565b83811115620008cc576000848401525b50505050565b60006002820490506001821680620008eb57607f821691505b602082108114156200090257620009016200093e565b5b50919050565b62000913826200099c565b810181811067ffffffffffffffff821117156200093557620009346200096d565b5b80604052505050565b7f4e487b7100000000000000000000000000000000000000000000000000000000600052602260045260246000fd5b7f4e487b7100000000000000000000000000000000000000000000000000000000600052604160045260246000fd5b6000601f19601f8301169050919050565b7f4f776e61626c653a206e6577206f776e657220697320746865207a65726f206160008201527f6464726573730000000000000000000000000000000000000000000000000000602082015250565b7f4f776e61626c653a2063616c6c6572206973206e6f7420746865206f776e6572600082015250565b62000a308162000852565b811462000a3c57600080fd5b50565b62000a4a8162000866565b811462000a5657600080fd5b50565b62000a648162000892565b811462000a7057600080fd5b50565b6112ae8062000a836000396000f3fe608060405234801561001057600080fd5b506004361061011d576000357c010000000000000000000000000000000000000000000000000000000090048063818bf15d116100b4578063d2c82ed911610083578063d2c82ed914610282578063d7efb6b7146102a0578063e5a0af3d146102be578063f2fde38b146102dc5761011d565b8063818bf15d146101fa578063843b43861461022a5780638da5cb5b14610246578063bbc78bd7146102645761011d565b80633af5faf5116100f05780633af5faf51461019657806345ff20de146101b45780634a79d50c146101d2578063715018a6146101f05761011d565b80630ab89cc2146101225780631aa30f531461013e57806320822abc1461015c5780632f23f0221461018c575b600080fd5b61013c60048036038101906101379190610c11565b6102f8565b005b610146610391565b6040516101539190610e98565b60405180910390f35b61017660048036038101906101719190610c7b565b610397565b6040516101839190610df6565b60405180910390f35b610194610443565b005b61019e6105c5565b6040516101ab9190610df6565b60405180910390f35b6101bc610653565b6040516101c99190610e98565b60405180910390f35b6101da610659565b6040516101e79190610df6565b60405180910390f35b6101f86106e7565b005b610214600480360381019061020f9190610be8565b61076f565b6040516102219190610dc0565b60405180910390f35b610244600480360381019061023f9190610c3a565b61078f565b005b61024e61085f565b60405161025b9190610da5565b60405180910390f35b61026c610888565b6040516102799190610ddb565b60405180910390f35b61028a6108ae565b6040516102979190610dc0565b60405180910390f35b6102a86108c1565b6040516102b59190610dc0565b60405180910390f35b6102c66108d4565b6040516102d39190610e98565b60405180910390f35b6102f660048036038101906102f19190610be8565b6108da565b005b6103006109d2565b73ffffffffffffffffffffffffffffffffffffffff1661031e61085f565b73ffffffffffffffffffffffffffffffffffffffff1614610374576040517f08c379a000000000000000000000000000000000000000000000000000000000815260040161036b90610e78565b60405180910390fd5b80600860006101000a81548160ff02191690831515021790555050565b60025481565b600581815481106103a757600080fd5b9060005260206000200160009150905080546103c290610fd3565b80601f01602080910402602001604051908101604052809291908181526020018280546103ee90610fd3565b801561043b5780601f106104105761010080835404028352916020019161043b565b820191906000526020600020905b81548152906001019060200180831161041e57829003601f168201915b505050505081565b61044b6109d2565b73ffffffffffffffffffffffffffffffffffffffff1661046961085f565b73ffffffffffffffffffffffffffffffffffffffff1614156104c0576040517f08c379a00000000000000000000000000000000000000000000000000000000081526004016104b790610e58565b60405180910390fd5b60001515600760003373ffffffffffffffffffffffffffffffffffffffff1673ffffffffffffffffffffffffffffffffffffffff16815260200190815260200160002060009054906101000a900460ff16151514610553576040517f08c379a000000000000000000000000000000000000000000000000000000000815260040161054a90610e38565b60405180910390fd5b6006600081548092919061056690611036565b91905055506001600760003373ffffffffffffffffffffffffffffffffffffffff1673ffffffffffffffffffffffffffffffffffffffff16815260200190815260200160002060006101000a81548160ff021916908315150217905550565b600480546105d290610fd3565b80601f01602080910402602001604051908101604052809291908181526020018280546105fe90610fd3565b801561064b5780601f106106205761010080835404028352916020019161064b565b820191906000526020600020905b81548152906001019060200180831161062e57829003601f168201915b505050505081565b60095481565b6003805461066690610fd3565b80601f016020809104026020016040519081016040528092919081815260200182805461069290610fd3565b80156106df5780601f106106b4576101008083540402835291602001916106df565b820191906000526020600020905b8154815290600101906020018083116106c257829003601f168201915b505050505081565b6106ef6109d2565b73ffffffffffffffffffffffffffffffffffffffff1661070d61085f565b73ffffffffffffffffffffffffffffffffffffffff1614610763576040517f08c379a000000000000000000000000000000000000000000000000000000000815260040161075a90610e78565b60405180910390fd5b61076d60006109da565b565b60076020528060005260406000206000915054906101000a900460ff1681565b6040518060600160405280600960008154809291906107ad90611036565b9190505581526020018281526020013373ffffffffffffffffffffffffffffffffffffffff16815250600a60006009548152602001908152602001600020600082015181600001556020820151816001019080519060200190610811929190610a9e565b5060408201518160020160006101000a81548173ffffffffffffffffffffffffffffffffffffffff021916908373ffffffffffffffffffffffffffffffffffffffff16021790555090505050565b60008060009054906101000a900473ffffffffffffffffffffffffffffffffffffffff16905090565b600160009054906101000a900473ffffffffffffffffffffffffffffffffffffffff1681565b600860019054906101000a900460ff1681565b600860009054906101000a900460ff1681565b60065481565b6108e26109d2565b73ffffffffffffffffffffffffffffffffffffffff1661090061085f565b73ffffffffffffffffffffffffffffffffffffffff1614610956576040517f08c379a000000000000000000000000000000000000000000000000000000000815260040161094d90610e78565b60405180910390fd5b600073ffffffffffffffffffffffffffffffffffffffff168173ffffffffffffffffffffffffffffffffffffffff1614156109c6576040517f08c379a00000000000000000000000000000000000000000000000000000000081526004016109bd90610e18565b60405180910390fd5b6109cf816109da565b50565b600033905090565b60008060009054906101000a900473ffffffffffffffffffffffffffffffffffffffff169050816000806101000a81548173ffffffffffffffffffffffffffffffffffffffff021916908373ffffffffffffffffffffffffffffffffffffffff1602179055508173ffffffffffffffffffffffffffffffffffffffff168173ffffffffffffffffffffffffffffffffffffffff167f8be0079c531659141344cd1fd0a4f28419497f9722a3daafe3b4186f6b6457e060405160405180910390a35050565b828054610aaa90610fd3565b90600052602060002090601f016020900481019282610acc5760008555610b13565b82601f10610ae557805160ff1916838001178555610b13565b82800160010185558215610b13579182015b82811115610b12578251825591602001919060010190610af7565b5b509050610b209190610b24565b5090565b5b80821115610b3d576000816000905550600101610b25565b5090565b6000610b54610b4f84610ed8565b610eb3565b905082815260208101848484011115610b6c57600080fd5b610b77848285610f91565b509392505050565b600081359050610b8e81611233565b92915050565b600081359050610ba38161124a565b92915050565b600082601f830112610bba57600080fd5b8135610bca848260208601610b41565b91505092915050565b600081359050610be281611261565b92915050565b600060208284031215610bfa57600080fd5b6000610c0884828501610b7f565b91505092915050565b600060208284031215610c2357600080fd5b6000610c3184828501610b94565b91505092915050565b600060208284031215610c4c57600080fd5b600082013567ffffffffffffffff811115610c6657600080fd5b610c7284828501610ba9565b91505092915050565b600060208284031215610c8d57600080fd5b6000610c9b84828501610bd3565b91505092915050565b610cad81610f25565b82525050565b610cbc81610f37565b82525050565b610ccb81610f6d565b82525050565b6000610cdc82610f09565b610ce68185610f14565b9350610cf6818560208601610fa0565b610cff8161110c565b840191505092915050565b6000610d17602683610f14565b9150610d228261111d565b604082019050919050565b6000610d3a602b83610f14565b9150610d458261116c565b604082019050919050565b6000610d5d602e83610f14565b9150610d68826111bb565b604082019050919050565b6000610d80602083610f14565b9150610d8b8261120a565b602082019050919050565b610d9f81610f63565b82525050565b6000602082019050610dba6000830184610ca4565b92915050565b6000602082019050610dd56000830184610cb3565b92915050565b6000602082019050610df06000830184610cc2565b92915050565b60006020820190508181036000830152610e108184610cd1565b905092915050565b60006020820190508181036000830152610e3181610d0a565b9050919050565b60006020820190508181036000830152610e5181610d2d565b9050919050565b60006020820190508181036000830152610e7181610d50565b9050919050565b60006020820190508181036000830152610e9181610d73565b9050919050565b6000602082019050610ead6000830184610d96565b92915050565b6000610ebd610ece565b9050610ec98282611005565b919050565b6000604051905090565b600067ffffffffffffffff821115610ef357610ef26110dd565b5b610efc8261110c565b9050602081019050919050565b600081519050919050565b600082825260208201905092915050565b6000610f3082610f43565b9050919050565b60008115159050919050565b600073ffffffffffffffffffffffffffffffffffffffff82169050919050565b6000819050919050565b6000610f7882610f7f565b9050919050565b6000610f8a82610f43565b9050919050565b82818337600083830152505050565b60005b83811015610fbe578082015181840152602081019050610fa3565b83811115610fcd576000848401525b50505050565b60006002820490506001821680610feb57607f821691505b60208210811415610fff57610ffe6110ae565b5b50919050565b61100e8261110c565b810181811067ffffffffffffffff8211171561102d5761102c6110dd565b5b80604052505050565b600061104182610f63565b91507fffffffffffffffffffffffffffffffffffffffffffffffffffffffffffffffff8214156110745761107361107f565b5b600182019050919050565b7f4e487b7100000000000000000000000000000000000000000000000000000000600052601160045260246000fd5b7f4e487b7100000000000000000000000000000000000000000000000000000000600052602260045260246000fd5b7f4e487b7100000000000000000000000000000000000000000000000000000000600052604160045260246000fd5b6000601f19601f8301169050919050565b7f4f776e61626c653a206e6577206f776e657220697320746865207a65726f206160008201527f6464726573730000000000000000000000000000000000000000000000000000602082015250565b7f43616c6c657220616464726573732068617320616c7265616479206c696b656460008201527f207468697320706f73742e000000000000000000000000000000000000000000602082015250565b7f43616c6c657220697320746865206f776e65722e2043616e6e6f74206265206360008201527f616c6c6564206279206f776e6572000000000000000000000000000000000000602082015250565b7f4f776e61626c653a2063616c6c6572206973206e6f7420746865206f776e6572600082015250565b61123c81610f25565b811461124757600080fd5b50565b61125381610f37565b811461125e57600080fd5b50565b61126a81610f63565b811461127557600080fd5b5056fea264697066735822122022dc83cef9006632014876b5e1827548d61b79a8b3d22c497372079f237ef71d64736f6c63430008010033",
  "immutableReferences": {},
  "source": "// SPDX-License-Identifier: MIT\r\npragma solidity >=0.4.22 <0.9.0;\r\n\r\nimport \"./DBlogContract.sol\";\r\nimport '@openzeppelin/contracts/access/Ownable.sol';\r\n\r\ncontract DBlogPostContract is Ownable {\r\n    DBlogContract public blog;\r\n    uint public postNum;\r\n    string public title;\r\n    string public contentIpfsCid;\r\n    string[] public tags;\r\n    uint public likeCount;\r\n    mapping(address => bool) public likers;\r\n    bool public isDeleted;\r\n    \r\n    bool public commentsEnabled;\r\n    uint public commentCount;\r\n    mapping(uint => Comment) comments;\r\n\r\n    struct Comment {\r\n        uint exists;\r\n        string contentIpfsCid;\r\n        address writer;\r\n    }\r\n    // TODO add the ablility to append text !! add edit option to UI, and split long posts into multiple calls\r\n    // TODO owner of this is dblogcontract. Make owner the blog contract owner\r\n    constructor(\r\n        address _blogAddress,\r\n        uint _postNum,\r\n        string memory _postTitle,\r\n        string memory _postContentIpfsCid,\r\n        string[] memory _tags,\r\n        bool _commentsEnabled) {\r\n            \r\n        transferOwnership(_blogAddress);\r\n            \r\n        blog = DBlogContract(_blogAddress);\r\n        postNum = _postNum;\r\n        title = _postTitle;\r\n        contentIpfsCid = _postContentIpfsCid;\r\n        tags = _tags;\r\n        likeCount = 0;\r\n        commentCount = 0;\r\n        commentsEnabled = _commentsEnabled;\r\n    }\r\n     \r\n    function likePost() notOwner public {\r\n        require(likers[msg.sender] == false, \"Caller address has already liked this post.\");\r\n       \r\n        likeCount++;\r\n        likers[msg.sender] = true;\r\n    }\r\n    \r\n    function addComment(string memory _contentIpfsCid) public {\r\n        comments[commentCount] = Comment(commentCount++, _contentIpfsCid, msg.sender);\r\n    }\r\n    \r\n    function setDeleted(bool _isDeleted) onlyOwner public {\r\n        isDeleted = _isDeleted;\r\n    }\r\n    \r\n    /**\r\n     * @dev Throws if called by the owner.\r\n     */\r\n    modifier notOwner() {\r\n        require(owner() != _msgSender(), \"Caller is the owner. Cannot be called by owner\");\r\n        _;\r\n    }\r\n}",
  "sourcePath": "C:\\Users\\EREID\\Desktop\\Repos\\dblog-dapp\\src\\contracts\\DBlogPostContract.sol",
  "compiler": {
    "name": "solc",
    "version": "0.8.1+commit.df193b15.Emscripten.clang"
  },
  "schemaVersion": "3.4.1",
  "updatedAt": "2021-10-18T03:37:12.018Z",
  "networkType": "ethereum",
  "devdoc": {
    "kind": "dev",
    "methods": {
      "owner()": {
        "details": "Returns the address of the current owner."
      },
      "renounceOwnership()": {
        "details": "Leaves the contract without owner. It will not be possible to call `onlyOwner` functions anymore. Can only be called by the current owner. NOTE: Renouncing ownership will leave the contract without an owner, thereby removing any functionality that is only available to the owner."
      },
      "transferOwnership(address)": {
        "details": "Transfers ownership of the contract to a new account (`newOwner`). Can only be called by the current owner."
      }
    },
    "version": 1
  },
  "userdoc": {
    "kind": "user",
    "methods": {},
    "version": 1
  }
}