{
  "contractName": "DBlogContract",
  "abi": [
    {
      "inputs": [
        {
          "internalType": "address",
          "name": "_blogOwnerAddress",
          "type": "address"
        },
        {
          "internalType": "string",
          "name": "_blogName",
          "type": "string"
        }
      ],
      "stateMutability": "nonpayable",
      "type": "constructor"
    },
    {
      "anonymous": false,
      "inputs": [
        {
          "indexed": true,
          "internalType": "address",
          "name": "previousOwner",
          "type": "address"
        },
        {
          "indexed": true,
          "internalType": "address",
          "name": "newOwner",
          "type": "address"
        }
      ],
      "name": "OwnershipTransferred",
      "type": "event"
    },
    {
      "anonymous": false,
      "inputs": [
        {
          "indexed": true,
          "internalType": "contract DBlogPostContract",
          "name": "_postAddress",
          "type": "address"
        }
      ],
      "name": "PostCreated",
      "type": "event"
    },
    {
      "inputs": [],
      "name": "blogName",
      "outputs": [
        {
          "internalType": "string",
          "name": "",
          "type": "string"
        }
      ],
      "stateMutability": "view",
      "type": "function",
      "constant": true
    },
    {
      "inputs": [],
      "name": "owner",
      "outputs": [
        {
          "internalType": "address",
          "name": "",
          "type": "address"
        }
      ],
      "stateMutability": "view",
      "type": "function",
      "constant": true
    },
    {
      "inputs": [],
      "name": "postCount",
      "outputs": [
        {
          "internalType": "uint256",
          "name": "",
          "type": "uint256"
        }
      ],
      "stateMutability": "view",
      "type": "function",
      "constant": true
    },
    {
      "inputs": [
        {
          "internalType": "uint256",
          "name": "",
          "type": "uint256"
        }
      ],
      "name": "postMap",
      "outputs": [
        {
          "internalType": "contract DBlogPostContract",
          "name": "",
          "type": "address"
        }
      ],
      "stateMutability": "view",
      "type": "function",
      "constant": true
    },
    {
      "inputs": [],
      "name": "renounceOwnership",
      "outputs": [],
      "stateMutability": "nonpayable",
      "type": "function"
    },
    {
      "inputs": [],
      "name": "tagCount",
      "outputs": [
        {
          "internalType": "uint256",
          "name": "",
          "type": "uint256"
        }
      ],
      "stateMutability": "view",
      "type": "function",
      "constant": true
    },
    {
      "inputs": [
        {
          "internalType": "string",
          "name": "",
          "type": "string"
        }
      ],
      "name": "tagExistence",
      "outputs": [
        {
          "internalType": "bool",
          "name": "",
          "type": "bool"
        }
      ],
      "stateMutability": "view",
      "type": "function",
      "constant": true
    },
    {
      "inputs": [
        {
          "internalType": "uint256",
          "name": "",
          "type": "uint256"
        }
      ],
      "name": "tagNames",
      "outputs": [
        {
          "internalType": "string",
          "name": "",
          "type": "string"
        }
      ],
      "stateMutability": "view",
      "type": "function",
      "constant": true
    },
    {
      "inputs": [
        {
          "internalType": "string",
          "name": "",
          "type": "string"
        }
      ],
      "name": "tagPageCounts",
      "outputs": [
        {
          "internalType": "uint256",
          "name": "",
          "type": "uint256"
        }
      ],
      "stateMutability": "view",
      "type": "function",
      "constant": true
    },
    {
      "inputs": [
        {
          "internalType": "string",
          "name": "",
          "type": "string"
        },
        {
          "internalType": "uint256",
          "name": "",
          "type": "uint256"
        }
      ],
      "name": "tagPageMap",
      "outputs": [
        {
          "internalType": "address",
          "name": "",
          "type": "address"
        }
      ],
      "stateMutability": "view",
      "type": "function",
      "constant": true
    },
    {
      "inputs": [
        {
          "internalType": "address",
          "name": "newOwner",
          "type": "address"
        }
      ],
      "name": "transferOwnership",
      "outputs": [],
      "stateMutability": "nonpayable",
      "type": "function"
    },
    {
      "inputs": [
        {
          "internalType": "string",
          "name": "_postTitle",
          "type": "string"
        },
        {
          "internalType": "string",
          "name": "_postContent",
          "type": "string"
        },
        {
          "internalType": "string[]",
          "name": "_tags",
          "type": "string[]"
        },
        {
          "internalType": "bool",
          "name": "_commentsEnabled",
          "type": "bool"
        }
      ],
      "name": "publishBlogPost",
      "outputs": [
        {
          "internalType": "uint256",
          "name": "postNum",
          "type": "uint256"
        }
      ],
      "stateMutability": "nonpayable",
      "type": "function"
    },
    {
      "inputs": [
        {
          "internalType": "uint256",
          "name": "_postNum",
          "type": "uint256"
        }
      ],
      "name": "deleteBlogPost",
      "outputs": [],
      "stateMutability": "nonpayable",
      "type": "function"
    },
    {
      "inputs": [
        {
          "internalType": "string",
          "name": "_blogName",
          "type": "string"
        }
      ],
      "name": "setBlogName",
      "outputs": [],
      "stateMutability": "nonpayable",
      "type": "function"
    }
  ],
  "bytecode": "0x60806040523480156200001157600080fd5b5060405162003c0f38038062003c0f833981810160405281019062000037919062000413565b6200006962000054620000b4640100000000026401000000009004565b620000bc640100000000026401000000009004565b620000838262000180640100000000026401000000009004565b80600190805190602001906200009b929190620002da565b5060006002819055506000600381905550505062000746565b600033905090565b60008060009054906101000a900473ffffffffffffffffffffffffffffffffffffffff169050816000806101000a81548173ffffffffffffffffffffffffffffffffffffffff021916908373ffffffffffffffffffffffffffffffffffffffff1602179055508173ffffffffffffffffffffffffffffffffffffffff168173ffffffffffffffffffffffffffffffffffffffff167f8be0079c531659141344cd1fd0a4f28419497f9722a3daafe3b4186f6b6457e060405160405180910390a35050565b62000199620000b4640100000000026401000000009004565b73ffffffffffffffffffffffffffffffffffffffff16620001c8620002b1640100000000026401000000009004565b73ffffffffffffffffffffffffffffffffffffffff161462000221576040517f08c379a00000000000000000000000000000000000000000000000000000000081526004016200021890620004dd565b60405180910390fd5b600073ffffffffffffffffffffffffffffffffffffffff168173ffffffffffffffffffffffffffffffffffffffff16141562000294576040517f08c379a00000000000000000000000000000000000000000000000000000000081526004016200028b90620004bb565b60405180910390fd5b620002ae81620000bc640100000000026401000000009004565b50565b60008060009054906101000a900473ffffffffffffffffffffffffffffffffffffffff16905090565b828054620002e890620005d9565b90600052602060002090601f0160209004810192826200030c576000855562000358565b82601f106200032757805160ff191683800117855562000358565b8280016001018555821562000358579182015b82811115620003575782518255916020019190600101906200033a565b5b5090506200036791906200036b565b5090565b5b80821115620003865760008160009055506001016200036c565b5090565b6000620003a16200039b8462000528565b620004ff565b905082815260208101848484011115620003ba57600080fd5b620003c7848285620005a3565b509392505050565b600081519050620003e0816200072c565b92915050565b600082601f830112620003f857600080fd5b81516200040a8482602086016200038a565b91505092915050565b600080604083850312156200042757600080fd5b60006200043785828601620003cf565b925050602083015167ffffffffffffffff8111156200045557600080fd5b6200046385828601620003e6565b9150509250929050565b60006200047c6026836200055e565b91506200048982620006b4565b604082019050919050565b6000620004a36020836200055e565b9150620004b08262000703565b602082019050919050565b60006020820190508181036000830152620004d6816200046d565b9050919050565b60006020820190508181036000830152620004f88162000494565b9050919050565b60006200050b6200051e565b90506200051982826200060f565b919050565b6000604051905090565b600067ffffffffffffffff82111562000546576200054562000674565b5b6200055182620006a3565b9050602081019050919050565b600082825260208201905092915050565b60006200057c8262000583565b9050919050565b600073ffffffffffffffffffffffffffffffffffffffff82169050919050565b60005b83811015620005c3578082015181840152602081019050620005a6565b83811115620005d3576000848401525b50505050565b60006002820490506001821680620005f257607f821691505b6020821081141562000609576200060862000645565b5b50919050565b6200061a82620006a3565b810181811067ffffffffffffffff821117156200063c576200063b62000674565b5b80604052505050565b7f4e487b7100000000000000000000000000000000000000000000000000000000600052602260045260246000fd5b7f4e487b7100000000000000000000000000000000000000000000000000000000600052604160045260246000fd5b6000601f19601f8301169050919050565b7f4f776e61626c653a206e6577206f776e657220697320746865207a65726f206160008201527f6464726573730000000000000000000000000000000000000000000000000000602082015250565b7f4f776e61626c653a2063616c6c6572206973206e6f7420746865206f776e6572600082015250565b62000737816200056f565b81146200074357600080fd5b50565b6134b980620007566000396000f3fe60806040523480156200001157600080fd5b50600436106200011d576000357c010000000000000000000000000000000000000000000000000000000090048063715018a611620000b6578063bf659334116200008c578063bf6593341462000298578063ca7de47114620002ce578063dc7288621462000304578063f2fde38b146200033a576200011d565b8063715018a61462000248578063792bb13f14620002545780638da5cb5b1462000276576200011d565b80634c7cfe9a11620000f85780634c7cfe9a146200019a57806352ecaa0614620001d05780635ae4697814620002065780636f810cbc1462000226576200011d565b806317906c2e14620001225780633601427f14620001445780634458f944146200017a575b600080fd5b6200012c6200035a565b6040516200013b9190620013bd565b60405180910390f35b6200016260048036038101906200015c919062000eff565b62000360565b6040516200017191906200131b565b60405180910390f35b62000198600480360381019062000192919062001055565b62000396565b005b620001b86004803603810190620001b2919062001055565b62000399565b604051620001c7919062001338565b60405180910390f35b620001ee6004803603810190620001e8919062000eff565b620003cc565b604051620001fd9190620013bd565b60405180910390f35b6200022460048036038101906200021e919062000eff565b620003fa565b005b6200023062000499565b6040516200023f9190620013bd565b60405180910390f35b620002526200049f565b005b6200025e62000530565b6040516200026d919062001355565b60405180910390f35b62000280620005c6565b6040516200028f91906200127c565b60405180910390f35b620002b66004803603810190620002b0919062001055565b620005ef565b604051620002c5919062001355565b60405180910390f35b620002ec6004803603810190620002e6919062000f44565b62000697565b604051620002fb9190620013bd565b60405180910390f35b6200032260048036038101906200031c919062000ffb565b62000aa4565b6040516200033191906200127c565b60405180910390f35b62000358600480360381019062000352919062000ed3565b62000afc565b005b60025481565b6008818051602081018201805184825260208301602085012081835280955050505050506000915054906101000a900460ff1681565b50565b60046020528060005260406000206000915054906101000a900473ffffffffffffffffffffffffffffffffffffffff1681565b6007818051602081018201805184825260208301602085012081835280955050505050506000915090505481565b6200040462000c00565b73ffffffffffffffffffffffffffffffffffffffff1662000424620005c6565b73ffffffffffffffffffffffffffffffffffffffff16146200047d576040517f08c379a000000000000000000000000000000000000000000000000000000000815260040162000474906200139b565b60405180910390fd5b80600190805190602001906200049592919062000ccc565b5050565b60035481565b620004a962000c00565b73ffffffffffffffffffffffffffffffffffffffff16620004c9620005c6565b73ffffffffffffffffffffffffffffffffffffffff161462000522576040517f08c379a000000000000000000000000000000000000000000000000000000000815260040162000519906200139b565b60405180910390fd5b6200052e600062000c08565b565b600180546200053f90620015cb565b80601f01602080910402602001604051908101604052809291908181526020018280546200056d90620015cb565b8015620005be5780601f106200059257610100808354040283529160200191620005be565b820191906000526020600020905b815481529060010190602001808311620005a057829003601f168201915b505050505081565b60008060009054906101000a900473ffffffffffffffffffffffffffffffffffffffff16905090565b600560205280600052604060002060009150905080546200061090620015cb565b80601f01602080910402602001604051908101604052809291908181526020018280546200063e90620015cb565b80156200068f5780601f1062000663576101008083540402835291602001916200068f565b820191906000526020600020905b8154815290600101906020018083116200067157829003601f168201915b505050505081565b6000620006a362000c00565b73ffffffffffffffffffffffffffffffffffffffff16620006c3620005c6565b73ffffffffffffffffffffffffffffffffffffffff16146200071c576040517f08c379a000000000000000000000000000000000000000000000000000000000815260040162000713906200139b565b60405180910390fd5b60026000815480929190620007319062001637565b919050555030600254868686866040516200074c9062000d5d565b6200075d9695949392919062001299565b604051809103906000f0801580156200077a573d6000803e3d6000fd5b5060046000600254815260200190815260200160002060006101000a81548173ffffffffffffffffffffffffffffffffffffffff021916908373ffffffffffffffffffffffffffffffffffffffff16021790555060005b835181101562000a1e57600084828151811062000817577f4e487b7100000000000000000000000000000000000000000000000000000000600052603260045260246000fd5b6020026020010151905060088160405162000833919062001263565b908152602001604051809103902060009054906101000a900460ff16620008fb57600160088260405162000868919062001263565b908152602001604051809103902060006101000a81548160ff021916908315150217905550806005600060036000815480929190620008a79062001637565b9190505581526020019081526020016000209080519060200190620008ce92919062000ccc565b506001600782604051620008e3919062001263565b90815260200160405180910390208190555062000934565b6007816040516200090d919062001263565b908152602001604051809103902060008154809291906200092e9062001637565b91905055505b60046000600254815260200190815260200160002060009054906101000a900473ffffffffffffffffffffffffffffffffffffffff166006826040516200097c919062001263565b908152602001604051809103902060006001600785604051620009a0919062001263565b908152602001604051809103902054620009bb9190620014d9565b815260200190815260200160002060006101000a81548173ffffffffffffffffffffffffffffffffffffffff021916908373ffffffffffffffffffffffffffffffffffffffff16021790555050808062000a159062001637565b915050620007d1565b5060046000600254815260200190815260200160002060009054906101000a900473ffffffffffffffffffffffffffffffffffffffff1673ffffffffffffffffffffffffffffffffffffffff167fb28b103e6296194f6aecace93990102a06a5ae0720dc23aaf51589d563d52dde60405160405180910390a26002549050949350505050565b6006828051602081018201805184825260208301602085012081835280955050505050506020528060005260406000206000915091509054906101000a900473ffffffffffffffffffffffffffffffffffffffff1681565b62000b0662000c00565b73ffffffffffffffffffffffffffffffffffffffff1662000b26620005c6565b73ffffffffffffffffffffffffffffffffffffffff161462000b7f576040517f08c379a000000000000000000000000000000000000000000000000000000000815260040162000b76906200139b565b60405180910390fd5b600073ffffffffffffffffffffffffffffffffffffffff168173ffffffffffffffffffffffffffffffffffffffff16141562000bf2576040517f08c379a000000000000000000000000000000000000000000000000000000000815260040162000be99062001379565b60405180910390fd5b62000bfd8162000c08565b50565b600033905090565b60008060009054906101000a900473ffffffffffffffffffffffffffffffffffffffff169050816000806101000a81548173ffffffffffffffffffffffffffffffffffffffff021916908373ffffffffffffffffffffffffffffffffffffffff1602179055508173ffffffffffffffffffffffffffffffffffffffff168173ffffffffffffffffffffffffffffffffffffffff167f8be0079c531659141344cd1fd0a4f28419497f9722a3daafe3b4186f6b6457e060405160405180910390a35050565b82805462000cda90620015cb565b90600052602060002090601f01602090048101928262000cfe576000855562000d4a565b82601f1062000d1957805160ff191683800117855562000d4a565b8280016001018555821562000d4a579182015b8281111562000d4957825182559160200191906001019062000d2c565b5b50905062000d59919062000d6b565b5090565b611c9a80620017ea83390190565b5b8082111562000d8657600081600090555060010162000d6c565b5090565b600062000da162000d9b8462001403565b620013da565b9050808382526020820190508260005b8581101562000de5578135850162000dca888262000e8f565b84526020840193506020830192505060018101905062000db1565b5050509392505050565b600062000e0662000e008462001432565b620013da565b90508281526020810184848401111562000e1f57600080fd5b62000e2c84828562001586565b509392505050565b60008135905062000e45816200179b565b92915050565b600082601f83011262000e5d57600080fd5b813562000e6f84826020860162000d8a565b91505092915050565b60008135905062000e8981620017b5565b92915050565b600082601f83011262000ea157600080fd5b813562000eb384826020860162000def565b91505092915050565b60008135905062000ecd81620017cf565b92915050565b60006020828403121562000ee657600080fd5b600062000ef68482850162000e34565b91505092915050565b60006020828403121562000f1257600080fd5b600082013567ffffffffffffffff81111562000f2d57600080fd5b62000f3b8482850162000e8f565b91505092915050565b6000806000806080858703121562000f5b57600080fd5b600085013567ffffffffffffffff81111562000f7657600080fd5b62000f848782880162000e8f565b945050602085013567ffffffffffffffff81111562000fa257600080fd5b62000fb08782880162000e8f565b935050604085013567ffffffffffffffff81111562000fce57600080fd5b62000fdc8782880162000e4b565b925050606062000fef8782880162000e78565b91505092959194509250565b600080604083850312156200100f57600080fd5b600083013567ffffffffffffffff8111156200102a57600080fd5b620010388582860162000e8f565b92505060206200104b8582860162000ebc565b9150509250929050565b6000602082840312156200106857600080fd5b6000620010788482850162000ebc565b91505092915050565b60006200108f83836200114b565b905092915050565b620010a28162001514565b82525050565b6000620010b58262001478565b620010c181856200149b565b935083602082028501620010d58562001468565b8060005b85811015620011175784840389528151620010f5858262001081565b945062001102836200148e565b925060208a01995050600181019050620010d9565b50829750879550505050505092915050565b620011348162001528565b82525050565b62001145816200155e565b82525050565b6000620011588262001483565b620011648185620014ac565b93506200117681856020860162001595565b620011818162001712565b840191505092915050565b6000620011998262001483565b620011a58185620014bd565b9350620011b781856020860162001595565b620011c28162001712565b840191505092915050565b6000620011da8262001483565b620011e68185620014ce565b9350620011f881856020860162001595565b80840191505092915050565b600062001213602683620014bd565b9150620012208262001723565b604082019050919050565b60006200123a602083620014bd565b9150620012478262001772565b602082019050919050565b6200125d8162001554565b82525050565b6000620012718284620011cd565b915081905092915050565b600060208201905062001293600083018462001097565b92915050565b600060c082019050620012b0600083018962001097565b620012bf602083018862001252565b8181036040830152620012d381876200118c565b90508181036060830152620012e981866200118c565b90508181036080830152620012ff8185620010a8565b90506200131060a083018462001129565b979650505050505050565b600060208201905062001332600083018462001129565b92915050565b60006020820190506200134f60008301846200113a565b92915050565b600060208201905081810360008301526200137181846200118c565b905092915050565b60006020820190508181036000830152620013948162001204565b9050919050565b60006020820190508181036000830152620013b6816200122b565b9050919050565b6000602082019050620013d4600083018462001252565b92915050565b6000620013e6620013f9565b9050620013f4828262001601565b919050565b6000604051905090565b600067ffffffffffffffff821115620014215762001420620016e3565b5b602082029050602081019050919050565b600067ffffffffffffffff82111562001450576200144f620016e3565b5b6200145b8262001712565b9050602081019050919050565b6000819050602082019050919050565b600081519050919050565b600081519050919050565b6000602082019050919050565b600082825260208201905092915050565b600082825260208201905092915050565b600082825260208201905092915050565b600081905092915050565b6000620014e68262001554565b9150620014f38362001554565b92508282101562001509576200150862001685565b5b828203905092915050565b6000620015218262001534565b9050919050565b60008115159050919050565b600073ffffffffffffffffffffffffffffffffffffffff82169050919050565b6000819050919050565b60006200156b8262001572565b9050919050565b60006200157f8262001534565b9050919050565b82818337600083830152505050565b60005b83811015620015b557808201518184015260208101905062001598565b83811115620015c5576000848401525b50505050565b60006002820490506001821680620015e457607f821691505b60208210811415620015fb57620015fa620016b4565b5b50919050565b6200160c8262001712565b810181811067ffffffffffffffff821117156200162e576200162d620016e3565b5b80604052505050565b6000620016448262001554565b91507fffffffffffffffffffffffffffffffffffffffffffffffffffffffffffffffff8214156200167a576200167962001685565b5b600182019050919050565b7f4e487b7100000000000000000000000000000000000000000000000000000000600052601160045260246000fd5b7f4e487b7100000000000000000000000000000000000000000000000000000000600052602260045260246000fd5b7f4e487b7100000000000000000000000000000000000000000000000000000000600052604160045260246000fd5b6000601f19601f8301169050919050565b7f4f776e61626c653a206e6577206f776e657220697320746865207a65726f206160008201527f6464726573730000000000000000000000000000000000000000000000000000602082015250565b7f4f776e61626c653a2063616c6c6572206973206e6f7420746865206f776e6572600082015250565b620017a68162001514565b8114620017b257600080fd5b50565b620017c08162001528565b8114620017cc57600080fd5b50565b620017da8162001554565b8114620017e657600080fd5b5056fe60806040523480156200001157600080fd5b5060405162001c9a38038062001c9a833981810160405281019062000037919062000640565b62000069620000546200014c640100000000026401000000009004565b62000154640100000000026401000000009004565b620000838662000218640100000000026401000000009004565b85600160006101000a81548173ffffffffffffffffffffffffffffffffffffffff021916908373ffffffffffffffffffffffffffffffffffffffff160217905550846002819055508360039080519060200190620000e392919062000372565b508260049080519060200190620000fc92919062000372565b5081600590805190602001906200011592919062000403565b506005600681905550600060098190555080600860016101000a81548160ff02191690831515021790555050505050505062000a73565b600033905090565b60008060009054906101000a900473ffffffffffffffffffffffffffffffffffffffff169050816000806101000a81548173ffffffffffffffffffffffffffffffffffffffff021916908373ffffffffffffffffffffffffffffffffffffffff1602179055508173ffffffffffffffffffffffffffffffffffffffff168173ffffffffffffffffffffffffffffffffffffffff167f8be0079c531659141344cd1fd0a4f28419497f9722a3daafe3b4186f6b6457e060405160405180910390a35050565b620002316200014c640100000000026401000000009004565b73ffffffffffffffffffffffffffffffffffffffff166200026062000349640100000000026401000000009004565b73ffffffffffffffffffffffffffffffffffffffff1614620002b9576040517f08c379a0000000000000000000000000000000000000000000000000000000008152600401620002b09062000791565b60405180910390fd5b600073ffffffffffffffffffffffffffffffffffffffff168173ffffffffffffffffffffffffffffffffffffffff1614156200032c576040517f08c379a000000000000000000000000000000000000000000000000000000000815260040162000323906200076f565b60405180910390fd5b620003468162000154640100000000026401000000009004565b50565b60008060009054906101000a900473ffffffffffffffffffffffffffffffffffffffff16905090565b8280546200038090620008d2565b90600052602060002090601f016020900481019282620003a45760008555620003f0565b82601f10620003bf57805160ff1916838001178555620003f0565b82800160010185558215620003f0579182015b82811115620003ef578251825591602001919060010190620003d2565b5b509050620003ff91906200046a565b5090565b82805482825590600052602060002090810192821562000457579160200282015b82811115620004565782518290805190602001906200044592919062000372565b509160200191906001019062000424565b5b50905062000466919062000489565b5090565b5b80821115620004855760008160009055506001016200046b565b5090565b5b80821115620004ad5760008181620004a39190620004b1565b506001016200048a565b5090565b508054620004bf90620008d2565b6000825580601f10620004d35750620004f4565b601f016020900490600052602060002090810190620004f391906200046a565b5b50565b60006200050e6200050884620007dc565b620007b3565b9050808382526020820190508260005b85811015620005525781518501620005378882620005fc565b8452602084019350602083019250506001810190506200051e565b5050509392505050565b6000620005736200056d846200080b565b620007b3565b9050828152602081018484840111156200058c57600080fd5b620005998482856200089c565b509392505050565b600081519050620005b28162000a25565b92915050565b600082601f830112620005ca57600080fd5b8151620005dc848260208601620004f7565b91505092915050565b600081519050620005f68162000a3f565b92915050565b600082601f8301126200060e57600080fd5b8151620006208482602086016200055c565b91505092915050565b6000815190506200063a8162000a59565b92915050565b60008060008060008060c087890312156200065a57600080fd5b60006200066a89828a01620005a1565b96505060206200067d89828a0162000629565b955050604087015167ffffffffffffffff8111156200069b57600080fd5b620006a989828a01620005fc565b945050606087015167ffffffffffffffff811115620006c757600080fd5b620006d589828a01620005fc565b935050608087015167ffffffffffffffff811115620006f357600080fd5b6200070189828a01620005b8565b92505060a06200071489828a01620005e5565b9150509295509295509295565b60006200073060268362000841565b91506200073d82620009ad565b604082019050919050565b60006200075760208362000841565b91506200076482620009fc565b602082019050919050565b600060208201905081810360008301526200078a8162000721565b9050919050565b60006020820190508181036000830152620007ac8162000748565b9050919050565b6000620007bf620007d2565b9050620007cd828262000908565b919050565b6000604051905090565b600067ffffffffffffffff821115620007fa57620007f96200096d565b5b602082029050602081019050919050565b600067ffffffffffffffff8211156200082957620008286200096d565b5b62000834826200099c565b9050602081019050919050565b600082825260208201905092915050565b60006200085f8262000872565b9050919050565b60008115159050919050565b600073ffffffffffffffffffffffffffffffffffffffff82169050919050565b6000819050919050565b60005b83811015620008bc5780820151818401526020810190506200089f565b83811115620008cc576000848401525b50505050565b60006002820490506001821680620008eb57607f821691505b602082108114156200090257620009016200093e565b5b50919050565b62000913826200099c565b810181811067ffffffffffffffff821117156200093557620009346200096d565b5b80604052505050565b7f4e487b7100000000000000000000000000000000000000000000000000000000600052602260045260246000fd5b7f4e487b7100000000000000000000000000000000000000000000000000000000600052604160045260246000fd5b6000601f19601f8301169050919050565b7f4f776e61626c653a206e6577206f776e657220697320746865207a65726f206160008201527f6464726573730000000000000000000000000000000000000000000000000000602082015250565b7f4f776e61626c653a2063616c6c6572206973206e6f7420746865206f776e6572600082015250565b62000a308162000852565b811462000a3c57600080fd5b50565b62000a4a8162000866565b811462000a5657600080fd5b50565b62000a648162000892565b811462000a7057600080fd5b50565b6112178062000a836000396000f3fe608060405234801561001057600080fd5b5060043610610107576000357c010000000000000000000000000000000000000000000000000000000090048063843b4386116100a9578063bbc78bd711610083578063bbc78bd71461021e578063d2c82ed91461023c578063e5a0af3d1461025a578063f2fde38b1461027857610107565b8063843b4386146101c65780638a4d5a67146101e25780638da5cb5b1461020057610107565b80632f23f022116100e55780632f23f0221461017657806345ff20de146101805780634a79d50c1461019e578063715018a6146101bc57610107565b80630ab89cc21461010c5780631aa30f531461012857806320822abc14610146575b600080fd5b61012660048036038101906101219190610b7a565b610294565b005b61013061032d565b60405161013d9190610e01565b60405180910390f35b610160600480360381019061015b9190610be4565b610333565b60405161016d9190610d5f565b60405180910390f35b61017e6103df565b005b610188610561565b6040516101959190610e01565b60405180910390f35b6101a6610567565b6040516101b39190610d5f565b60405180910390f35b6101c46105f5565b005b6101e060048036038101906101db9190610ba3565b61067d565b005b6101ea61074d565b6040516101f79190610d5f565b60405180910390f35b6102086107db565b6040516102159190610d0e565b60405180910390f35b610226610804565b6040516102339190610d44565b60405180910390f35b61024461082a565b6040516102519190610d29565b60405180910390f35b61026261083d565b60405161026f9190610e01565b60405180910390f35b610292600480360381019061028d9190610b51565b610843565b005b61029c61093b565b73ffffffffffffffffffffffffffffffffffffffff166102ba6107db565b73ffffffffffffffffffffffffffffffffffffffff1614610310576040517f08c379a000000000000000000000000000000000000000000000000000000000815260040161030790610de1565b60405180910390fd5b80600860006101000a81548160ff02191690831515021790555050565b60025481565b6005818154811061034357600080fd5b90600052602060002001600091509050805461035e90610f3c565b80601f016020809104026020016040519081016040528092919081815260200182805461038a90610f3c565b80156103d75780601f106103ac576101008083540402835291602001916103d7565b820191906000526020600020905b8154815290600101906020018083116103ba57829003601f168201915b505050505081565b6103e761093b565b73ffffffffffffffffffffffffffffffffffffffff166104056107db565b73ffffffffffffffffffffffffffffffffffffffff16141561045c576040517f08c379a000000000000000000000000000000000000000000000000000000000815260040161045390610dc1565b60405180910390fd5b60001515600760003373ffffffffffffffffffffffffffffffffffffffff1673ffffffffffffffffffffffffffffffffffffffff16815260200190815260200160002060009054906101000a900460ff161515146104ef576040517f08c379a00000000000000000000000000000000000000000000000000000000081526004016104e690610da1565b60405180910390fd5b6006600081548092919061050290610f9f565b91905055506001600760003373ffffffffffffffffffffffffffffffffffffffff1673ffffffffffffffffffffffffffffffffffffffff16815260200190815260200160002060006101000a81548160ff021916908315150217905550565b60095481565b6003805461057490610f3c565b80601f01602080910402602001604051908101604052809291908181526020018280546105a090610f3c565b80156105ed5780601f106105c2576101008083540402835291602001916105ed565b820191906000526020600020905b8154815290600101906020018083116105d057829003601f168201915b505050505081565b6105fd61093b565b73ffffffffffffffffffffffffffffffffffffffff1661061b6107db565b73ffffffffffffffffffffffffffffffffffffffff1614610671576040517f08c379a000000000000000000000000000000000000000000000000000000000815260040161066890610de1565b60405180910390fd5b61067b6000610943565b565b60405180606001604052806009600081548092919061069b90610f9f565b9190505581526020018281526020013373ffffffffffffffffffffffffffffffffffffffff16815250600a600060095481526020019081526020016000206000820151816000015560208201518160010190805190602001906106ff929190610a07565b5060408201518160020160006101000a81548173ffffffffffffffffffffffffffffffffffffffff021916908373ffffffffffffffffffffffffffffffffffffffff16021790555090505050565b6004805461075a90610f3c565b80601f016020809104026020016040519081016040528092919081815260200182805461078690610f3c565b80156107d35780601f106107a8576101008083540402835291602001916107d3565b820191906000526020600020905b8154815290600101906020018083116107b657829003601f168201915b505050505081565b60008060009054906101000a900473ffffffffffffffffffffffffffffffffffffffff16905090565b600160009054906101000a900473ffffffffffffffffffffffffffffffffffffffff1681565b600860019054906101000a900460ff1681565b60065481565b61084b61093b565b73ffffffffffffffffffffffffffffffffffffffff166108696107db565b73ffffffffffffffffffffffffffffffffffffffff16146108bf576040517f08c379a00000000000000000000000000000000000000000000000000000000081526004016108b690610de1565b60405180910390fd5b600073ffffffffffffffffffffffffffffffffffffffff168173ffffffffffffffffffffffffffffffffffffffff16141561092f576040517f08c379a000000000000000000000000000000000000000000000000000000000815260040161092690610d81565b60405180910390fd5b61093881610943565b50565b600033905090565b60008060009054906101000a900473ffffffffffffffffffffffffffffffffffffffff169050816000806101000a81548173ffffffffffffffffffffffffffffffffffffffff021916908373ffffffffffffffffffffffffffffffffffffffff1602179055508173ffffffffffffffffffffffffffffffffffffffff168173ffffffffffffffffffffffffffffffffffffffff167f8be0079c531659141344cd1fd0a4f28419497f9722a3daafe3b4186f6b6457e060405160405180910390a35050565b828054610a1390610f3c565b90600052602060002090601f016020900481019282610a355760008555610a7c565b82601f10610a4e57805160ff1916838001178555610a7c565b82800160010185558215610a7c579182015b82811115610a7b578251825591602001919060010190610a60565b5b509050610a899190610a8d565b5090565b5b80821115610aa6576000816000905550600101610a8e565b5090565b6000610abd610ab884610e41565b610e1c565b905082815260208101848484011115610ad557600080fd5b610ae0848285610efa565b509392505050565b600081359050610af78161119c565b92915050565b600081359050610b0c816111b3565b92915050565b600082601f830112610b2357600080fd5b8135610b33848260208601610aaa565b91505092915050565b600081359050610b4b816111ca565b92915050565b600060208284031215610b6357600080fd5b6000610b7184828501610ae8565b91505092915050565b600060208284031215610b8c57600080fd5b6000610b9a84828501610afd565b91505092915050565b600060208284031215610bb557600080fd5b600082013567ffffffffffffffff811115610bcf57600080fd5b610bdb84828501610b12565b91505092915050565b600060208284031215610bf657600080fd5b6000610c0484828501610b3c565b91505092915050565b610c1681610e8e565b82525050565b610c2581610ea0565b82525050565b610c3481610ed6565b82525050565b6000610c4582610e72565b610c4f8185610e7d565b9350610c5f818560208601610f09565b610c6881611075565b840191505092915050565b6000610c80602683610e7d565b9150610c8b82611086565b604082019050919050565b6000610ca3602b83610e7d565b9150610cae826110d5565b604082019050919050565b6000610cc6602e83610e7d565b9150610cd182611124565b604082019050919050565b6000610ce9602083610e7d565b9150610cf482611173565b602082019050919050565b610d0881610ecc565b82525050565b6000602082019050610d236000830184610c0d565b92915050565b6000602082019050610d3e6000830184610c1c565b92915050565b6000602082019050610d596000830184610c2b565b92915050565b60006020820190508181036000830152610d798184610c3a565b905092915050565b60006020820190508181036000830152610d9a81610c73565b9050919050565b60006020820190508181036000830152610dba81610c96565b9050919050565b60006020820190508181036000830152610dda81610cb9565b9050919050565b60006020820190508181036000830152610dfa81610cdc565b9050919050565b6000602082019050610e166000830184610cff565b92915050565b6000610e26610e37565b9050610e328282610f6e565b919050565b6000604051905090565b600067ffffffffffffffff821115610e5c57610e5b611046565b5b610e6582611075565b9050602081019050919050565b600081519050919050565b600082825260208201905092915050565b6000610e9982610eac565b9050919050565b60008115159050919050565b600073ffffffffffffffffffffffffffffffffffffffff82169050919050565b6000819050919050565b6000610ee182610ee8565b9050919050565b6000610ef382610eac565b9050919050565b82818337600083830152505050565b60005b83811015610f27578082015181840152602081019050610f0c565b83811115610f36576000848401525b50505050565b60006002820490506001821680610f5457607f821691505b60208210811415610f6857610f67611017565b5b50919050565b610f7782611075565b810181811067ffffffffffffffff82111715610f9657610f95611046565b5b80604052505050565b6000610faa82610ecc565b91507fffffffffffffffffffffffffffffffffffffffffffffffffffffffffffffffff821415610fdd57610fdc610fe8565b5b600182019050919050565b7f4e487b7100000000000000000000000000000000000000000000000000000000600052601160045260246000fd5b7f4e487b7100000000000000000000000000000000000000000000000000000000600052602260045260246000fd5b7f4e487b7100000000000000000000000000000000000000000000000000000000600052604160045260246000fd5b6000601f19601f8301169050919050565b7f4f776e61626c653a206e6577206f776e657220697320746865207a65726f206160008201527f6464726573730000000000000000000000000000000000000000000000000000602082015250565b7f43616c6c657220616464726573732068617320616c7265616479206c696b656460008201527f207468697320706f73742e000000000000000000000000000000000000000000602082015250565b7f43616c6c657220697320746865206f776e65722e2043616e6e6f74206265206360008201527f616c6c6564206279206f776e6572000000000000000000000000000000000000602082015250565b7f4f776e61626c653a2063616c6c6572206973206e6f7420746865206f776e6572600082015250565b6111a581610e8e565b81146111b057600080fd5b50565b6111bc81610ea0565b81146111c757600080fd5b50565b6111d381610ecc565b81146111de57600080fd5b5056fea2646970667358221220c02ef2c20daa4aa63e2e07357f334c3446b4ff58f88e74d1c2de786113c22a6964736f6c63430008010033a2646970667358221220b4367616908b6f6b7f33cc0773fe229cee9a9f66ee6cdfafc1f7e84e8b676f2d64736f6c63430008010033",
  "immutableReferences": {},
  "source": "// SPDX-License-Identifier: MIT\r\npragma solidity >=0.4.22 <0.9.0;\r\n\r\nimport \"./DBlogPostContract.sol\";\r\nimport '@openzeppelin/contracts/access/Ownable.sol';\r\n\r\ncontract DBlogContract is Ownable {\r\n    \r\n    string public blogName;\r\n    uint public postCount;\r\n    uint public tagCount;\r\n    \r\n    mapping(uint => DBlogPostContract) public postMap;\r\n    mapping(uint => string) public tagNames;\r\n    \r\n    // required for ui to iterate through page names for given tag\r\n    mapping(string => mapping(uint => address)) public tagPageMap;\r\n    mapping(string => uint) public tagPageCounts;\r\n    mapping(string => bool) public tagExistence;\r\n\r\n    event PostCreated(DBlogPostContract indexed _postAddress);\r\n    \r\n    constructor(\r\n        address _blogOwnerAddress,\r\n        string memory _blogName) {\r\n        transferOwnership(_blogOwnerAddress);\r\n\r\n        blogName = _blogName;\r\n        postCount = 0;\r\n        tagCount = 0;\r\n    }\r\n    \r\n    function publishBlogPost(string memory _postTitle, \r\n        string memory _postContent, \r\n        string[] memory _tags,\r\n        bool _commentsEnabled) onlyOwner public returns(uint postNum)  {\r\n        \r\n        // TODO handle duplicate tags passed\r\n        postCount++;\r\n        postMap[postCount] = new DBlogPostContract(address(this), postCount, _postTitle, _postContent, _tags, _commentsEnabled);\r\n        \r\n        for(uint i = 0; i < _tags.length; i++) {\r\n            string memory lowercaseTagName = _tags[i];\r\n            \r\n            if (!tagExistence[lowercaseTagName]) {\r\n                tagExistence[lowercaseTagName] = true;\r\n                tagNames[tagCount++] = lowercaseTagName;\r\n                tagPageCounts[lowercaseTagName] = 1;\r\n            }\r\n            else {\r\n                tagPageCounts[lowercaseTagName]++;\r\n            }\r\n            \r\n            tagPageMap[lowercaseTagName][tagPageCounts[lowercaseTagName] - 1] = address(postMap[postCount]);\r\n        }\r\n        \r\n        emit PostCreated(postMap[postCount]);\r\n        return postCount;\r\n    }\r\n    \r\n    function deleteBlogPost(uint _postNum) public {\r\n        // must be owner\r\n        \r\n        // if (postMap[_postNum]) {\r\n        //     postMap[_postNum].isDeleted = true;\r\n        // }\r\n        \r\n        // todo delete tag if no posts \r\n    }\r\n\r\n    function setBlogName(string memory _blogName) onlyOwner public {\r\n        blogName = _blogName;\r\n    }\r\n}",
  "sourcePath": "C:/Users/EREID/Desktop/Repos/dblog-dapp/src/contracts/DBlogContract.sol",
  "compiler": {
    "name": "solc",
    "version": "0.8.1+commit.df193b15.Emscripten.clang"
  },
  "schemaVersion": "3.4.1",
  "updatedAt": "2021-07-29T01:05:47.870Z",
  "networkType": "ethereum",
  "devdoc": {
    "kind": "dev",
    "methods": {
      "owner()": {
        "details": "Returns the address of the current owner."
      },
      "renounceOwnership()": {
        "details": "Leaves the contract without owner. It will not be possible to call `onlyOwner` functions anymore. Can only be called by the current owner. NOTE: Renouncing ownership will leave the contract without an owner, thereby removing any functionality that is only available to the owner."
      },
      "transferOwnership(address)": {
        "details": "Transfers ownership of the contract to a new account (`newOwner`). Can only be called by the current owner."
      }
    },
    "version": 1
  },
  "userdoc": {
    "kind": "user",
    "methods": {},
    "version": 1
  }
}