{
  "contractName": "DBlogPostContract",
  "abi": [
    {
      "inputs": [
        {
          "internalType": "address",
          "name": "_blogAddress",
          "type": "address"
        },
        {
          "internalType": "uint256",
          "name": "_postNum",
          "type": "uint256"
        },
        {
          "internalType": "string",
          "name": "_postTitle",
          "type": "string"
        },
        {
          "internalType": "string",
          "name": "_postContentIpfsCid",
          "type": "string"
        }
      ],
      "stateMutability": "nonpayable",
      "type": "constructor"
    },
    {
      "anonymous": false,
      "inputs": [
        {
          "indexed": true,
          "internalType": "address",
          "name": "previousOwner",
          "type": "address"
        },
        {
          "indexed": true,
          "internalType": "address",
          "name": "newOwner",
          "type": "address"
        }
      ],
      "name": "OwnershipTransferred",
      "type": "event"
    },
    {
      "inputs": [],
      "name": "blog",
      "outputs": [
        {
          "internalType": "contract DBlogContract",
          "name": "",
          "type": "address"
        }
      ],
      "stateMutability": "view",
      "type": "function"
    },
    {
      "inputs": [],
      "name": "contentIpfsCid",
      "outputs": [
        {
          "internalType": "string",
          "name": "",
          "type": "string"
        }
      ],
      "stateMutability": "view",
      "type": "function"
    },
    {
      "inputs": [],
      "name": "isDeleted",
      "outputs": [
        {
          "internalType": "bool",
          "name": "",
          "type": "bool"
        }
      ],
      "stateMutability": "view",
      "type": "function"
    },
    {
      "inputs": [],
      "name": "likeCount",
      "outputs": [
        {
          "internalType": "uint256",
          "name": "",
          "type": "uint256"
        }
      ],
      "stateMutability": "view",
      "type": "function"
    },
    {
      "inputs": [
        {
          "internalType": "address",
          "name": "",
          "type": "address"
        }
      ],
      "name": "likers",
      "outputs": [
        {
          "internalType": "bool",
          "name": "",
          "type": "bool"
        }
      ],
      "stateMutability": "view",
      "type": "function"
    },
    {
      "inputs": [],
      "name": "owner",
      "outputs": [
        {
          "internalType": "address",
          "name": "",
          "type": "address"
        }
      ],
      "stateMutability": "view",
      "type": "function"
    },
    {
      "inputs": [],
      "name": "postNum",
      "outputs": [
        {
          "internalType": "uint256",
          "name": "",
          "type": "uint256"
        }
      ],
      "stateMutability": "view",
      "type": "function"
    },
    {
      "inputs": [],
      "name": "renounceOwnership",
      "outputs": [],
      "stateMutability": "nonpayable",
      "type": "function"
    },
    {
      "inputs": [],
      "name": "title",
      "outputs": [
        {
          "internalType": "string",
          "name": "",
          "type": "string"
        }
      ],
      "stateMutability": "view",
      "type": "function"
    },
    {
      "inputs": [
        {
          "internalType": "address",
          "name": "newOwner",
          "type": "address"
        }
      ],
      "name": "transferOwnership",
      "outputs": [],
      "stateMutability": "nonpayable",
      "type": "function"
    },
    {
      "inputs": [],
      "name": "likePost",
      "outputs": [],
      "stateMutability": "nonpayable",
      "type": "function"
    },
    {
      "inputs": [
        {
          "internalType": "bool",
          "name": "_isDeleted",
          "type": "bool"
        }
      ],
      "name": "setDeleted",
      "outputs": [],
      "stateMutability": "nonpayable",
      "type": "function"
    }
  ],
  "bytecode": "0x60806040523480156200001157600080fd5b506040516200160f3803806200160f833981810160405281019062000037919062000485565b62000069620000546200010f640100000000026401000000009004565b62000117640100000000026401000000009004565b6200008384620001db640100000000026401000000009004565b83600160006101000a81548173ffffffffffffffffffffffffffffffffffffffff021916908373ffffffffffffffffffffffffffffffffffffffff160217905550826002819055508160039080519060200190620000e392919062000335565b508060049080519060200190620000fc92919062000335565b5060006005819055505050505062000820565b600033905090565b60008060009054906101000a900473ffffffffffffffffffffffffffffffffffffffff169050816000806101000a81548173ffffffffffffffffffffffffffffffffffffffff021916908373ffffffffffffffffffffffffffffffffffffffff1602179055508173ffffffffffffffffffffffffffffffffffffffff168173ffffffffffffffffffffffffffffffffffffffff167f8be0079c531659141344cd1fd0a4f28419497f9722a3daafe3b4186f6b6457e060405160405180910390a35050565b620001f46200010f640100000000026401000000009004565b73ffffffffffffffffffffffffffffffffffffffff16620002236200030c640100000000026401000000009004565b73ffffffffffffffffffffffffffffffffffffffff16146200027c576040517f08c379a0000000000000000000000000000000000000000000000000000000008152600401620002739062000593565b60405180910390fd5b600073ffffffffffffffffffffffffffffffffffffffff168173ffffffffffffffffffffffffffffffffffffffff161415620002ef576040517f08c379a0000000000000000000000000000000000000000000000000000000008152600401620002e69062000571565b60405180910390fd5b620003098162000117640100000000026401000000009004565b50565b60008060009054906101000a900473ffffffffffffffffffffffffffffffffffffffff16905090565b828054620003439062000699565b90600052602060002090601f016020900481019282620003675760008555620003b3565b82601f106200038257805160ff1916838001178555620003b3565b82800160010185558215620003b3579182015b82811115620003b257825182559160200191906001019062000395565b5b509050620003c29190620003c6565b5090565b5b80821115620003e1576000816000905550600101620003c7565b5090565b6000620003fc620003f684620005de565b620005b5565b9050828152602081018484840111156200041557600080fd5b6200042284828562000663565b509392505050565b6000815190506200043b81620007ec565b92915050565b600082601f8301126200045357600080fd5b815162000465848260208601620003e5565b91505092915050565b6000815190506200047f8162000806565b92915050565b600080600080608085870312156200049c57600080fd5b6000620004ac878288016200042a565b9450506020620004bf878288016200046e565b935050604085015167ffffffffffffffff811115620004dd57600080fd5b620004eb8782880162000441565b925050606085015167ffffffffffffffff8111156200050957600080fd5b620005178782880162000441565b91505092959194509250565b60006200053260268362000614565b91506200053f8262000774565b604082019050919050565b60006200055960208362000614565b91506200056682620007c3565b602082019050919050565b600060208201905081810360008301526200058c8162000523565b9050919050565b60006020820190508181036000830152620005ae816200054a565b9050919050565b6000620005c1620005d4565b9050620005cf8282620006cf565b919050565b6000604051905090565b600067ffffffffffffffff821115620005fc57620005fb62000734565b5b620006078262000763565b9050602081019050919050565b600082825260208201905092915050565b6000620006328262000639565b9050919050565b600073ffffffffffffffffffffffffffffffffffffffff82169050919050565b6000819050919050565b60005b838110156200068357808201518184015260208101905062000666565b8381111562000693576000848401525b50505050565b60006002820490506001821680620006b257607f821691505b60208210811415620006c957620006c862000705565b5b50919050565b620006da8262000763565b810181811067ffffffffffffffff82111715620006fc57620006fb62000734565b5b80604052505050565b7f4e487b7100000000000000000000000000000000000000000000000000000000600052602260045260246000fd5b7f4e487b7100000000000000000000000000000000000000000000000000000000600052604160045260246000fd5b6000601f19601f8301169050919050565b7f4f776e61626c653a206e6577206f776e657220697320746865207a65726f206160008201527f6464726573730000000000000000000000000000000000000000000000000000602082015250565b7f4f776e61626c653a2063616c6c6572206973206e6f7420746865206f776e6572600082015250565b620007f78162000625565b81146200080357600080fd5b50565b620008118162000659565b81146200081d57600080fd5b50565b610ddf80620008306000396000f3fe608060405234801561001057600080fd5b50600436106100d1576000357c010000000000000000000000000000000000000000000000000000000090048063818bf15d1161008e578063818bf15d146101605780638da5cb5b14610190578063bbc78bd7146101ae578063d7efb6b7146101cc578063e5a0af3d146101ea578063f2fde38b14610208576100d1565b80630ab89cc2146100d65780631aa30f53146100f25780632f23f022146101105780633af5faf51461011a5780634a79d50c14610138578063715018a614610156575b600080fd5b6100f060048036038101906100eb9190610888565b610224565b005b6100fa6102bd565b6040516101079190610aa5565b60405180910390f35b6101186102c3565b005b610122610445565b60405161012f9190610a03565b60405180910390f35b6101406104d3565b60405161014d9190610a03565b60405180910390f35b61015e610561565b005b61017a6004803603810190610175919061085f565b6105e9565b60405161018791906109cd565b60405180910390f35b610198610609565b6040516101a591906109b2565b60405180910390f35b6101b6610632565b6040516101c391906109e8565b60405180910390f35b6101d4610658565b6040516101e191906109cd565b60405180910390f35b6101f261066b565b6040516101ff9190610aa5565b60405180910390f35b610222600480360381019061021d919061085f565b610671565b005b61022c610769565b73ffffffffffffffffffffffffffffffffffffffff1661024a610609565b73ffffffffffffffffffffffffffffffffffffffff16146102a0576040517f08c379a000000000000000000000000000000000000000000000000000000000815260040161029790610a85565b60405180910390fd5b80600760006101000a81548160ff02191690831515021790555050565b60025481565b6102cb610769565b73ffffffffffffffffffffffffffffffffffffffff166102e9610609565b73ffffffffffffffffffffffffffffffffffffffff161415610340576040517f08c379a000000000000000000000000000000000000000000000000000000000815260040161033790610a65565b60405180910390fd5b60001515600660003373ffffffffffffffffffffffffffffffffffffffff1673ffffffffffffffffffffffffffffffffffffffff16815260200190815260200160002060009054906101000a900460ff161515146103d3576040517f08c379a00000000000000000000000000000000000000000000000000000000081526004016103ca90610a45565b60405180910390fd5b600560008154809291906103e690610bad565b91905055506001600660003373ffffffffffffffffffffffffffffffffffffffff1673ffffffffffffffffffffffffffffffffffffffff16815260200190815260200160002060006101000a81548160ff021916908315150217905550565b6004805461045290610b7b565b80601f016020809104026020016040519081016040528092919081815260200182805461047e90610b7b565b80156104cb5780601f106104a0576101008083540402835291602001916104cb565b820191906000526020600020905b8154815290600101906020018083116104ae57829003601f168201915b505050505081565b600380546104e090610b7b565b80601f016020809104026020016040519081016040528092919081815260200182805461050c90610b7b565b80156105595780601f1061052e57610100808354040283529160200191610559565b820191906000526020600020905b81548152906001019060200180831161053c57829003601f168201915b505050505081565b610569610769565b73ffffffffffffffffffffffffffffffffffffffff16610587610609565b73ffffffffffffffffffffffffffffffffffffffff16146105dd576040517f08c379a00000000000000000000000000000000000000000000000000000000081526004016105d490610a85565b60405180910390fd5b6105e76000610771565b565b60066020528060005260406000206000915054906101000a900460ff1681565b60008060009054906101000a900473ffffffffffffffffffffffffffffffffffffffff16905090565b600160009054906101000a900473ffffffffffffffffffffffffffffffffffffffff1681565b600760009054906101000a900460ff1681565b60055481565b610679610769565b73ffffffffffffffffffffffffffffffffffffffff16610697610609565b73ffffffffffffffffffffffffffffffffffffffff16146106ed576040517f08c379a00000000000000000000000000000000000000000000000000000000081526004016106e490610a85565b60405180910390fd5b600073ffffffffffffffffffffffffffffffffffffffff168173ffffffffffffffffffffffffffffffffffffffff16141561075d576040517f08c379a000000000000000000000000000000000000000000000000000000000815260040161075490610a25565b60405180910390fd5b61076681610771565b50565b600033905090565b60008060009054906101000a900473ffffffffffffffffffffffffffffffffffffffff169050816000806101000a81548173ffffffffffffffffffffffffffffffffffffffff021916908373ffffffffffffffffffffffffffffffffffffffff1602179055508173ffffffffffffffffffffffffffffffffffffffff168173ffffffffffffffffffffffffffffffffffffffff167f8be0079c531659141344cd1fd0a4f28419497f9722a3daafe3b4186f6b6457e060405160405180910390a35050565b60008135905061084481610d7b565b92915050565b60008135905061085981610d92565b92915050565b60006020828403121561087157600080fd5b600061087f84828501610835565b91505092915050565b60006020828403121561089a57600080fd5b60006108a88482850161084a565b91505092915050565b6108ba81610adc565b82525050565b6108c981610aee565b82525050565b6108d881610b24565b82525050565b60006108e982610ac0565b6108f38185610acb565b9350610903818560208601610b48565b61090c81610c54565b840191505092915050565b6000610924602683610acb565b915061092f82610c65565b604082019050919050565b6000610947602b83610acb565b915061095282610cb4565b604082019050919050565b600061096a602e83610acb565b915061097582610d03565b604082019050919050565b600061098d602083610acb565b915061099882610d52565b602082019050919050565b6109ac81610b1a565b82525050565b60006020820190506109c760008301846108b1565b92915050565b60006020820190506109e260008301846108c0565b92915050565b60006020820190506109fd60008301846108cf565b92915050565b60006020820190508181036000830152610a1d81846108de565b905092915050565b60006020820190508181036000830152610a3e81610917565b9050919050565b60006020820190508181036000830152610a5e8161093a565b9050919050565b60006020820190508181036000830152610a7e8161095d565b9050919050565b60006020820190508181036000830152610a9e81610980565b9050919050565b6000602082019050610aba60008301846109a3565b92915050565b600081519050919050565b600082825260208201905092915050565b6000610ae782610afa565b9050919050565b60008115159050919050565b600073ffffffffffffffffffffffffffffffffffffffff82169050919050565b6000819050919050565b6000610b2f82610b36565b9050919050565b6000610b4182610afa565b9050919050565b60005b83811015610b66578082015181840152602081019050610b4b565b83811115610b75576000848401525b50505050565b60006002820490506001821680610b9357607f821691505b60208210811415610ba757610ba6610c25565b5b50919050565b6000610bb882610b1a565b91507fffffffffffffffffffffffffffffffffffffffffffffffffffffffffffffffff821415610beb57610bea610bf6565b5b600182019050919050565b7f4e487b7100000000000000000000000000000000000000000000000000000000600052601160045260246000fd5b7f4e487b7100000000000000000000000000000000000000000000000000000000600052602260045260246000fd5b6000601f19601f8301169050919050565b7f4f776e61626c653a206e6577206f776e657220697320746865207a65726f206160008201527f6464726573730000000000000000000000000000000000000000000000000000602082015250565b7f43616c6c657220616464726573732068617320616c7265616479206c696b656460008201527f207468697320706f73742e000000000000000000000000000000000000000000602082015250565b7f43616c6c657220697320746865206f776e65722e2043616e6e6f74206265206360008201527f616c6c6564206279206f776e6572000000000000000000000000000000000000602082015250565b7f4f776e61626c653a2063616c6c6572206973206e6f7420746865206f776e6572600082015250565b610d8481610adc565b8114610d8f57600080fd5b50565b610d9b81610aee565b8114610da657600080fd5b5056fea264697066735822122013849bdf99fb6b88129ed84a214b28149d1136b2d61c4feac2861dfdccc3568d64736f6c63430008010033",
  "immutableReferences": {},
  "source": "// SPDX-License-Identifier: MIT\r\npragma solidity >=0.4.22 <0.9.0;\r\n\r\nimport \"./DBlogContract.sol\";\r\nimport '@openzeppelin/contracts/access/Ownable.sol';\r\n\r\ncontract DBlogPostContract is Ownable {\r\n    DBlogContract public blog;\r\n    uint public postNum;\r\n    string public title;\r\n    string public contentIpfsCid;\r\n    uint public likeCount;\r\n    mapping(address => bool) public likers;\r\n    bool public isDeleted;\r\n\r\n    constructor(\r\n        address _blogAddress,\r\n        uint _postNum,\r\n        string memory _postTitle,\r\n        string memory _postContentIpfsCid) {\r\n            \r\n        transferOwnership(_blogAddress);\r\n            \r\n        blog = DBlogContract(_blogAddress);\r\n        postNum = _postNum;\r\n        title = _postTitle;\r\n        contentIpfsCid = _postContentIpfsCid;\r\n        likeCount = 0;\r\n    }\r\n     \r\n    function likePost() notOwner public {\r\n        require(likers[msg.sender] == false, \"Caller address has already liked this post.\");\r\n       \r\n        likeCount++;\r\n        likers[msg.sender] = true;\r\n    }\r\n    \r\n    function setDeleted(bool _isDeleted) onlyOwner public {\r\n        isDeleted = _isDeleted;\r\n    }\r\n    \r\n    /**\r\n     * @dev Throws if called by the owner.\r\n     */\r\n    modifier notOwner() {\r\n        require(owner() != _msgSender(), \"Caller is the owner. Cannot be called by owner\");\r\n        _;\r\n    }\r\n}",
  "sourcePath": "C:/Users/EREID/Desktop/Repos/dblog-dapp/src/contracts/DBlogPostContract.sol",
  "compiler": {
    "name": "solc",
    "version": "0.8.1+commit.df193b15.Emscripten.clang"
  },
  "schemaVersion": "3.4.1",
  "updatedAt": "2021-10-30T21:05:06.149Z",
  "networkType": "ethereum",
  "devdoc": {
    "kind": "dev",
    "methods": {
      "owner()": {
        "details": "Returns the address of the current owner."
      },
      "renounceOwnership()": {
        "details": "Leaves the contract without owner. It will not be possible to call `onlyOwner` functions anymore. Can only be called by the current owner. NOTE: Renouncing ownership will leave the contract without an owner, thereby removing any functionality that is only available to the owner."
      },
      "transferOwnership(address)": {
        "details": "Transfers ownership of the contract to a new account (`newOwner`). Can only be called by the current owner."
      }
    },
    "version": 1
  },
  "userdoc": {
    "kind": "user",
    "methods": {},
    "version": 1
  }
}