{
  "contractName": "DBlogPostContract",
  "abi": [
    {
      "inputs": [
        {
          "internalType": "address",
          "name": "_blogAddress",
          "type": "address"
        },
        {
          "internalType": "uint256",
          "name": "_postNum",
          "type": "uint256"
        },
        {
          "internalType": "string",
          "name": "_postTitle",
          "type": "string"
        },
        {
          "internalType": "string",
          "name": "_postContent",
          "type": "string"
        },
        {
          "internalType": "string[]",
          "name": "_tags",
          "type": "string[]"
        },
        {
          "internalType": "bool",
          "name": "_commentsEnabled",
          "type": "bool"
        }
      ],
      "stateMutability": "nonpayable",
      "type": "constructor"
    },
    {
      "anonymous": false,
      "inputs": [
        {
          "indexed": true,
          "internalType": "address",
          "name": "previousOwner",
          "type": "address"
        },
        {
          "indexed": true,
          "internalType": "address",
          "name": "newOwner",
          "type": "address"
        }
      ],
      "name": "OwnershipTransferred",
      "type": "event"
    },
    {
      "inputs": [],
      "name": "blog",
      "outputs": [
        {
          "internalType": "contract DBlogContract",
          "name": "",
          "type": "address"
        }
      ],
      "stateMutability": "view",
      "type": "function",
      "constant": true
    },
    {
      "inputs": [],
      "name": "commentCount",
      "outputs": [
        {
          "internalType": "uint256",
          "name": "",
          "type": "uint256"
        }
      ],
      "stateMutability": "view",
      "type": "function",
      "constant": true
    },
    {
      "inputs": [],
      "name": "commentsEnabled",
      "outputs": [
        {
          "internalType": "bool",
          "name": "",
          "type": "bool"
        }
      ],
      "stateMutability": "view",
      "type": "function",
      "constant": true
    },
    {
      "inputs": [],
      "name": "content",
      "outputs": [
        {
          "internalType": "string",
          "name": "",
          "type": "string"
        }
      ],
      "stateMutability": "view",
      "type": "function",
      "constant": true
    },
    {
      "inputs": [],
      "name": "likeCount",
      "outputs": [
        {
          "internalType": "uint256",
          "name": "",
          "type": "uint256"
        }
      ],
      "stateMutability": "view",
      "type": "function",
      "constant": true
    },
    {
      "inputs": [],
      "name": "owner",
      "outputs": [
        {
          "internalType": "address",
          "name": "",
          "type": "address"
        }
      ],
      "stateMutability": "view",
      "type": "function",
      "constant": true
    },
    {
      "inputs": [],
      "name": "postNum",
      "outputs": [
        {
          "internalType": "uint256",
          "name": "",
          "type": "uint256"
        }
      ],
      "stateMutability": "view",
      "type": "function",
      "constant": true
    },
    {
      "inputs": [],
      "name": "renounceOwnership",
      "outputs": [],
      "stateMutability": "nonpayable",
      "type": "function"
    },
    {
      "inputs": [
        {
          "internalType": "uint256",
          "name": "",
          "type": "uint256"
        }
      ],
      "name": "tags",
      "outputs": [
        {
          "internalType": "string",
          "name": "",
          "type": "string"
        }
      ],
      "stateMutability": "view",
      "type": "function",
      "constant": true
    },
    {
      "inputs": [],
      "name": "title",
      "outputs": [
        {
          "internalType": "string",
          "name": "",
          "type": "string"
        }
      ],
      "stateMutability": "view",
      "type": "function",
      "constant": true
    },
    {
      "inputs": [
        {
          "internalType": "address",
          "name": "newOwner",
          "type": "address"
        }
      ],
      "name": "transferOwnership",
      "outputs": [],
      "stateMutability": "nonpayable",
      "type": "function"
    },
    {
      "inputs": [],
      "name": "likePost",
      "outputs": [],
      "stateMutability": "nonpayable",
      "type": "function"
    },
    {
      "inputs": [
        {
          "internalType": "string",
          "name": "_content",
          "type": "string"
        }
      ],
      "name": "addComment",
      "outputs": [],
      "stateMutability": "nonpayable",
      "type": "function"
    },
    {
      "inputs": [
        {
          "internalType": "bool",
          "name": "_isDeleted",
          "type": "bool"
        }
      ],
      "name": "setDeleted",
      "outputs": [],
      "stateMutability": "nonpayable",
      "type": "function"
    }
  ],
  "bytecode": "0x60806040523480156200001157600080fd5b5060405162001c9a38038062001c9a833981810160405281019062000037919062000640565b62000069620000546200014c640100000000026401000000009004565b62000154640100000000026401000000009004565b620000838662000218640100000000026401000000009004565b85600160006101000a81548173ffffffffffffffffffffffffffffffffffffffff021916908373ffffffffffffffffffffffffffffffffffffffff160217905550846002819055508360039080519060200190620000e392919062000372565b508260049080519060200190620000fc92919062000372565b5081600590805190602001906200011592919062000403565b506000600681905550600060098190555080600860016101000a81548160ff02191690831515021790555050505050505062000a73565b600033905090565b60008060009054906101000a900473ffffffffffffffffffffffffffffffffffffffff169050816000806101000a81548173ffffffffffffffffffffffffffffffffffffffff021916908373ffffffffffffffffffffffffffffffffffffffff1602179055508173ffffffffffffffffffffffffffffffffffffffff168173ffffffffffffffffffffffffffffffffffffffff167f8be0079c531659141344cd1fd0a4f28419497f9722a3daafe3b4186f6b6457e060405160405180910390a35050565b620002316200014c640100000000026401000000009004565b73ffffffffffffffffffffffffffffffffffffffff166200026062000349640100000000026401000000009004565b73ffffffffffffffffffffffffffffffffffffffff1614620002b9576040517f08c379a0000000000000000000000000000000000000000000000000000000008152600401620002b09062000791565b60405180910390fd5b600073ffffffffffffffffffffffffffffffffffffffff168173ffffffffffffffffffffffffffffffffffffffff1614156200032c576040517f08c379a000000000000000000000000000000000000000000000000000000000815260040162000323906200076f565b60405180910390fd5b620003468162000154640100000000026401000000009004565b50565b60008060009054906101000a900473ffffffffffffffffffffffffffffffffffffffff16905090565b8280546200038090620008d2565b90600052602060002090601f016020900481019282620003a45760008555620003f0565b82601f10620003bf57805160ff1916838001178555620003f0565b82800160010185558215620003f0579182015b82811115620003ef578251825591602001919060010190620003d2565b5b509050620003ff91906200046a565b5090565b82805482825590600052602060002090810192821562000457579160200282015b82811115620004565782518290805190602001906200044592919062000372565b509160200191906001019062000424565b5b50905062000466919062000489565b5090565b5b80821115620004855760008160009055506001016200046b565b5090565b5b80821115620004ad5760008181620004a39190620004b1565b506001016200048a565b5090565b508054620004bf90620008d2565b6000825580601f10620004d35750620004f4565b601f016020900490600052602060002090810190620004f391906200046a565b5b50565b60006200050e6200050884620007dc565b620007b3565b9050808382526020820190508260005b85811015620005525781518501620005378882620005fc565b8452602084019350602083019250506001810190506200051e565b5050509392505050565b6000620005736200056d846200080b565b620007b3565b9050828152602081018484840111156200058c57600080fd5b620005998482856200089c565b509392505050565b600081519050620005b28162000a25565b92915050565b600082601f830112620005ca57600080fd5b8151620005dc848260208601620004f7565b91505092915050565b600081519050620005f68162000a3f565b92915050565b600082601f8301126200060e57600080fd5b8151620006208482602086016200055c565b91505092915050565b6000815190506200063a8162000a59565b92915050565b60008060008060008060c087890312156200065a57600080fd5b60006200066a89828a01620005a1565b96505060206200067d89828a0162000629565b955050604087015167ffffffffffffffff8111156200069b57600080fd5b620006a989828a01620005fc565b945050606087015167ffffffffffffffff811115620006c757600080fd5b620006d589828a01620005fc565b935050608087015167ffffffffffffffff811115620006f357600080fd5b6200070189828a01620005b8565b92505060a06200071489828a01620005e5565b9150509295509295509295565b60006200073060268362000841565b91506200073d82620009ad565b604082019050919050565b60006200075760208362000841565b91506200076482620009fc565b602082019050919050565b600060208201905081810360008301526200078a8162000721565b9050919050565b60006020820190508181036000830152620007ac8162000748565b9050919050565b6000620007bf620007d2565b9050620007cd828262000908565b919050565b6000604051905090565b600067ffffffffffffffff821115620007fa57620007f96200096d565b5b602082029050602081019050919050565b600067ffffffffffffffff8211156200082957620008286200096d565b5b62000834826200099c565b9050602081019050919050565b600082825260208201905092915050565b60006200085f8262000872565b9050919050565b60008115159050919050565b600073ffffffffffffffffffffffffffffffffffffffff82169050919050565b6000819050919050565b60005b83811015620008bc5780820151818401526020810190506200089f565b83811115620008cc576000848401525b50505050565b60006002820490506001821680620008eb57607f821691505b602082108114156200090257620009016200093e565b5b50919050565b62000913826200099c565b810181811067ffffffffffffffff821117156200093557620009346200096d565b5b80604052505050565b7f4e487b7100000000000000000000000000000000000000000000000000000000600052602260045260246000fd5b7f4e487b7100000000000000000000000000000000000000000000000000000000600052604160045260246000fd5b6000601f19601f8301169050919050565b7f4f776e61626c653a206e6577206f776e657220697320746865207a65726f206160008201527f6464726573730000000000000000000000000000000000000000000000000000602082015250565b7f4f776e61626c653a2063616c6c6572206973206e6f7420746865206f776e6572600082015250565b62000a308162000852565b811462000a3c57600080fd5b50565b62000a4a8162000866565b811462000a5657600080fd5b50565b62000a648162000892565b811462000a7057600080fd5b50565b6112178062000a836000396000f3fe608060405234801561001057600080fd5b5060043610610107576000357c010000000000000000000000000000000000000000000000000000000090048063843b4386116100a9578063bbc78bd711610083578063bbc78bd71461021e578063d2c82ed91461023c578063e5a0af3d1461025a578063f2fde38b1461027857610107565b8063843b4386146101c65780638a4d5a67146101e25780638da5cb5b1461020057610107565b80632f23f022116100e55780632f23f0221461017657806345ff20de146101805780634a79d50c1461019e578063715018a6146101bc57610107565b80630ab89cc21461010c5780631aa30f531461012857806320822abc14610146575b600080fd5b61012660048036038101906101219190610b7a565b610294565b005b61013061032d565b60405161013d9190610e01565b60405180910390f35b610160600480360381019061015b9190610be4565b610333565b60405161016d9190610d5f565b60405180910390f35b61017e6103df565b005b610188610561565b6040516101959190610e01565b60405180910390f35b6101a6610567565b6040516101b39190610d5f565b60405180910390f35b6101c46105f5565b005b6101e060048036038101906101db9190610ba3565b61067d565b005b6101ea61074d565b6040516101f79190610d5f565b60405180910390f35b6102086107db565b6040516102159190610d0e565b60405180910390f35b610226610804565b6040516102339190610d44565b60405180910390f35b61024461082a565b6040516102519190610d29565b60405180910390f35b61026261083d565b60405161026f9190610e01565b60405180910390f35b610292600480360381019061028d9190610b51565b610843565b005b61029c61093b565b73ffffffffffffffffffffffffffffffffffffffff166102ba6107db565b73ffffffffffffffffffffffffffffffffffffffff1614610310576040517f08c379a000000000000000000000000000000000000000000000000000000000815260040161030790610de1565b60405180910390fd5b80600860006101000a81548160ff02191690831515021790555050565b60025481565b6005818154811061034357600080fd5b90600052602060002001600091509050805461035e90610f3c565b80601f016020809104026020016040519081016040528092919081815260200182805461038a90610f3c565b80156103d75780601f106103ac576101008083540402835291602001916103d7565b820191906000526020600020905b8154815290600101906020018083116103ba57829003601f168201915b505050505081565b6103e761093b565b73ffffffffffffffffffffffffffffffffffffffff166104056107db565b73ffffffffffffffffffffffffffffffffffffffff16141561045c576040517f08c379a000000000000000000000000000000000000000000000000000000000815260040161045390610dc1565b60405180910390fd5b60001515600760003373ffffffffffffffffffffffffffffffffffffffff1673ffffffffffffffffffffffffffffffffffffffff16815260200190815260200160002060009054906101000a900460ff161515146104ef576040517f08c379a00000000000000000000000000000000000000000000000000000000081526004016104e690610da1565b60405180910390fd5b6006600081548092919061050290610f9f565b91905055506001600760003373ffffffffffffffffffffffffffffffffffffffff1673ffffffffffffffffffffffffffffffffffffffff16815260200190815260200160002060006101000a81548160ff021916908315150217905550565b60095481565b6003805461057490610f3c565b80601f01602080910402602001604051908101604052809291908181526020018280546105a090610f3c565b80156105ed5780601f106105c2576101008083540402835291602001916105ed565b820191906000526020600020905b8154815290600101906020018083116105d057829003601f168201915b505050505081565b6105fd61093b565b73ffffffffffffffffffffffffffffffffffffffff1661061b6107db565b73ffffffffffffffffffffffffffffffffffffffff1614610671576040517f08c379a000000000000000000000000000000000000000000000000000000000815260040161066890610de1565b60405180910390fd5b61067b6000610943565b565b60405180606001604052806009600081548092919061069b90610f9f565b9190505581526020018281526020013373ffffffffffffffffffffffffffffffffffffffff16815250600a600060095481526020019081526020016000206000820151816000015560208201518160010190805190602001906106ff929190610a07565b5060408201518160020160006101000a81548173ffffffffffffffffffffffffffffffffffffffff021916908373ffffffffffffffffffffffffffffffffffffffff16021790555090505050565b6004805461075a90610f3c565b80601f016020809104026020016040519081016040528092919081815260200182805461078690610f3c565b80156107d35780601f106107a8576101008083540402835291602001916107d3565b820191906000526020600020905b8154815290600101906020018083116107b657829003601f168201915b505050505081565b60008060009054906101000a900473ffffffffffffffffffffffffffffffffffffffff16905090565b600160009054906101000a900473ffffffffffffffffffffffffffffffffffffffff1681565b600860019054906101000a900460ff1681565b60065481565b61084b61093b565b73ffffffffffffffffffffffffffffffffffffffff166108696107db565b73ffffffffffffffffffffffffffffffffffffffff16146108bf576040517f08c379a00000000000000000000000000000000000000000000000000000000081526004016108b690610de1565b60405180910390fd5b600073ffffffffffffffffffffffffffffffffffffffff168173ffffffffffffffffffffffffffffffffffffffff16141561092f576040517f08c379a000000000000000000000000000000000000000000000000000000000815260040161092690610d81565b60405180910390fd5b61093881610943565b50565b600033905090565b60008060009054906101000a900473ffffffffffffffffffffffffffffffffffffffff169050816000806101000a81548173ffffffffffffffffffffffffffffffffffffffff021916908373ffffffffffffffffffffffffffffffffffffffff1602179055508173ffffffffffffffffffffffffffffffffffffffff168173ffffffffffffffffffffffffffffffffffffffff167f8be0079c531659141344cd1fd0a4f28419497f9722a3daafe3b4186f6b6457e060405160405180910390a35050565b828054610a1390610f3c565b90600052602060002090601f016020900481019282610a355760008555610a7c565b82601f10610a4e57805160ff1916838001178555610a7c565b82800160010185558215610a7c579182015b82811115610a7b578251825591602001919060010190610a60565b5b509050610a899190610a8d565b5090565b5b80821115610aa6576000816000905550600101610a8e565b5090565b6000610abd610ab884610e41565b610e1c565b905082815260208101848484011115610ad557600080fd5b610ae0848285610efa565b509392505050565b600081359050610af78161119c565b92915050565b600081359050610b0c816111b3565b92915050565b600082601f830112610b2357600080fd5b8135610b33848260208601610aaa565b91505092915050565b600081359050610b4b816111ca565b92915050565b600060208284031215610b6357600080fd5b6000610b7184828501610ae8565b91505092915050565b600060208284031215610b8c57600080fd5b6000610b9a84828501610afd565b91505092915050565b600060208284031215610bb557600080fd5b600082013567ffffffffffffffff811115610bcf57600080fd5b610bdb84828501610b12565b91505092915050565b600060208284031215610bf657600080fd5b6000610c0484828501610b3c565b91505092915050565b610c1681610e8e565b82525050565b610c2581610ea0565b82525050565b610c3481610ed6565b82525050565b6000610c4582610e72565b610c4f8185610e7d565b9350610c5f818560208601610f09565b610c6881611075565b840191505092915050565b6000610c80602683610e7d565b9150610c8b82611086565b604082019050919050565b6000610ca3602b83610e7d565b9150610cae826110d5565b604082019050919050565b6000610cc6602e83610e7d565b9150610cd182611124565b604082019050919050565b6000610ce9602083610e7d565b9150610cf482611173565b602082019050919050565b610d0881610ecc565b82525050565b6000602082019050610d236000830184610c0d565b92915050565b6000602082019050610d3e6000830184610c1c565b92915050565b6000602082019050610d596000830184610c2b565b92915050565b60006020820190508181036000830152610d798184610c3a565b905092915050565b60006020820190508181036000830152610d9a81610c73565b9050919050565b60006020820190508181036000830152610dba81610c96565b9050919050565b60006020820190508181036000830152610dda81610cb9565b9050919050565b60006020820190508181036000830152610dfa81610cdc565b9050919050565b6000602082019050610e166000830184610cff565b92915050565b6000610e26610e37565b9050610e328282610f6e565b919050565b6000604051905090565b600067ffffffffffffffff821115610e5c57610e5b611046565b5b610e6582611075565b9050602081019050919050565b600081519050919050565b600082825260208201905092915050565b6000610e9982610eac565b9050919050565b60008115159050919050565b600073ffffffffffffffffffffffffffffffffffffffff82169050919050565b6000819050919050565b6000610ee182610ee8565b9050919050565b6000610ef382610eac565b9050919050565b82818337600083830152505050565b60005b83811015610f27578082015181840152602081019050610f0c565b83811115610f36576000848401525b50505050565b60006002820490506001821680610f5457607f821691505b60208210811415610f6857610f67611017565b5b50919050565b610f7782611075565b810181811067ffffffffffffffff82111715610f9657610f95611046565b5b80604052505050565b6000610faa82610ecc565b91507fffffffffffffffffffffffffffffffffffffffffffffffffffffffffffffffff821415610fdd57610fdc610fe8565b5b600182019050919050565b7f4e487b7100000000000000000000000000000000000000000000000000000000600052601160045260246000fd5b7f4e487b7100000000000000000000000000000000000000000000000000000000600052602260045260246000fd5b7f4e487b7100000000000000000000000000000000000000000000000000000000600052604160045260246000fd5b6000601f19601f8301169050919050565b7f4f776e61626c653a206e6577206f776e657220697320746865207a65726f206160008201527f6464726573730000000000000000000000000000000000000000000000000000602082015250565b7f43616c6c657220616464726573732068617320616c7265616479206c696b656460008201527f207468697320706f73742e000000000000000000000000000000000000000000602082015250565b7f43616c6c657220697320746865206f776e65722e2043616e6e6f74206265206360008201527f616c6c6564206279206f776e6572000000000000000000000000000000000000602082015250565b7f4f776e61626c653a2063616c6c6572206973206e6f7420746865206f776e6572600082015250565b6111a581610e8e565b81146111b057600080fd5b50565b6111bc81610ea0565b81146111c757600080fd5b50565b6111d381610ecc565b81146111de57600080fd5b5056fea2646970667358221220ff13684dc732e3a9b4a373db9192c6d82cc3a9c1a67e7e7d82410c539ca806d164736f6c63430008010033",
  "immutableReferences": {},
  "source": "// SPDX-License-Identifier: MIT\r\npragma solidity >=0.4.22 <0.9.0;\r\n\r\nimport \"./DBlogContract.sol\";\r\nimport '@openzeppelin/contracts/access/Ownable.sol';\r\n\r\ncontract DBlogPostContract is Ownable {\r\n    // TODO determine whether to store obj or address\r\n    DBlogContract public blog;\r\n    uint public postNum;\r\n    string public title;\r\n    string public content;\r\n    string[] public tags;\r\n    uint public likeCount;\r\n    mapping(address => bool) likers;\r\n    bool isDeleted;\r\n    \r\n    bool public commentsEnabled;\r\n    uint public commentCount;\r\n    mapping(uint => Comment) comments;\r\n\r\n    struct Comment {\r\n        uint exists;\r\n        string content;\r\n        address writer;\r\n    }\r\n    \r\n    // TODO owner of this is dblogcontract. Make owner the blog contract owner\r\n    constructor(\r\n        address _blogAddress,\r\n        uint _postNum,\r\n        string memory _postTitle,\r\n        string memory _postContent,\r\n        string[] memory _tags,\r\n        bool _commentsEnabled) {\r\n            \r\n        transferOwnership(_blogAddress);\r\n            \r\n        blog = DBlogContract(_blogAddress);\r\n        postNum = _postNum;\r\n        title = _postTitle;\r\n        content = _postContent;\r\n        tags = _tags;\r\n        likeCount = 0;\r\n        commentCount = 0;\r\n        commentsEnabled = _commentsEnabled;\r\n    }\r\n     \r\n    function likePost() notOwner public {\r\n        require(likers[msg.sender] == false, \"Caller address has already liked this post.\");\r\n       \r\n        likeCount++;\r\n        likers[msg.sender] = true;\r\n    }\r\n    \r\n    function addComment(string memory _content) public {\r\n        comments[commentCount] = Comment(commentCount++, _content, msg.sender);\r\n    }\r\n    \r\n    function setDeleted(bool _isDeleted) onlyOwner public {\r\n        isDeleted = _isDeleted;\r\n    }\r\n    \r\n    /**\r\n     * @dev Throws if called by the owner.\r\n     */\r\n    modifier notOwner() {\r\n        require(owner() != _msgSender(), \"Caller is the owner. Cannot be called by owner\");\r\n        _;\r\n    }\r\n}",
  "sourcePath": "C:/Users/EREID/Desktop/Repos/dblog-dapp/src/contracts/DBlogPostContract.sol",
  "compiler": {
    "name": "solc",
    "version": "0.8.1+commit.df193b15.Emscripten.clang"
  },
  "schemaVersion": "3.4.1",
  "updatedAt": "2021-07-12T01:54:45.007Z",
  "networkType": "ethereum",
  "devdoc": {
    "kind": "dev",
    "methods": {
      "owner()": {
        "details": "Returns the address of the current owner."
      },
      "renounceOwnership()": {
        "details": "Leaves the contract without owner. It will not be possible to call `onlyOwner` functions anymore. Can only be called by the current owner. NOTE: Renouncing ownership will leave the contract without an owner, thereby removing any functionality that is only available to the owner."
      },
      "transferOwnership(address)": {
        "details": "Transfers ownership of the contract to a new account (`newOwner`). Can only be called by the current owner."
      }
    },
    "version": 1
  },
  "userdoc": {
    "kind": "user",
    "methods": {},
    "version": 1
  }
}