{
  "contractName": "DBlogContract",
  "abi": [
    {
      "inputs": [
        {
          "internalType": "address",
          "name": "_blogOwnerAddress",
          "type": "address"
        },
        {
          "internalType": "string",
          "name": "_blogName",
          "type": "string"
        }
      ],
      "stateMutability": "nonpayable",
      "type": "constructor"
    },
    {
      "anonymous": false,
      "inputs": [
        {
          "indexed": true,
          "internalType": "address",
          "name": "previousOwner",
          "type": "address"
        },
        {
          "indexed": true,
          "internalType": "address",
          "name": "newOwner",
          "type": "address"
        }
      ],
      "name": "OwnershipTransferred",
      "type": "event"
    },
    {
      "anonymous": false,
      "inputs": [
        {
          "indexed": true,
          "internalType": "contract DBlogPostContract",
          "name": "_postAddress",
          "type": "address"
        }
      ],
      "name": "PostCreated",
      "type": "event"
    },
    {
      "inputs": [],
      "name": "blogName",
      "outputs": [
        {
          "internalType": "string",
          "name": "",
          "type": "string"
        }
      ],
      "stateMutability": "view",
      "type": "function"
    },
    {
      "inputs": [],
      "name": "owner",
      "outputs": [
        {
          "internalType": "address",
          "name": "",
          "type": "address"
        }
      ],
      "stateMutability": "view",
      "type": "function"
    },
    {
      "inputs": [],
      "name": "postCount",
      "outputs": [
        {
          "internalType": "uint256",
          "name": "",
          "type": "uint256"
        }
      ],
      "stateMutability": "view",
      "type": "function"
    },
    {
      "inputs": [
        {
          "internalType": "uint256",
          "name": "",
          "type": "uint256"
        }
      ],
      "name": "postMap",
      "outputs": [
        {
          "internalType": "contract DBlogPostContract",
          "name": "",
          "type": "address"
        }
      ],
      "stateMutability": "view",
      "type": "function"
    },
    {
      "inputs": [],
      "name": "renounceOwnership",
      "outputs": [],
      "stateMutability": "nonpayable",
      "type": "function"
    },
    {
      "inputs": [
        {
          "internalType": "address",
          "name": "newOwner",
          "type": "address"
        }
      ],
      "name": "transferOwnership",
      "outputs": [],
      "stateMutability": "nonpayable",
      "type": "function"
    },
    {
      "inputs": [
        {
          "internalType": "string",
          "name": "_postTitle",
          "type": "string"
        },
        {
          "internalType": "string",
          "name": "_postContent",
          "type": "string"
        }
      ],
      "name": "publishBlogPost",
      "outputs": [
        {
          "internalType": "uint256",
          "name": "postNum",
          "type": "uint256"
        }
      ],
      "stateMutability": "nonpayable",
      "type": "function"
    },
    {
      "inputs": [
        {
          "internalType": "string",
          "name": "_blogName",
          "type": "string"
        }
      ],
      "name": "setBlogName",
      "outputs": [],
      "stateMutability": "nonpayable",
      "type": "function"
    }
  ],
  "bytecode": "0x60806040523480156200001157600080fd5b5060405162002c8938038062002c8983398181016040528101906200003791906200040b565b6200006962000054620000ac640100000000026401000000009004565b620000b4640100000000026401000000009004565b620000838262000178640100000000026401000000009004565b80600190805190602001906200009b929190620002d2565b50600060028190555050506200073e565b600033905090565b60008060009054906101000a900473ffffffffffffffffffffffffffffffffffffffff169050816000806101000a81548173ffffffffffffffffffffffffffffffffffffffff021916908373ffffffffffffffffffffffffffffffffffffffff1602179055508173ffffffffffffffffffffffffffffffffffffffff168173ffffffffffffffffffffffffffffffffffffffff167f8be0079c531659141344cd1fd0a4f28419497f9722a3daafe3b4186f6b6457e060405160405180910390a35050565b62000191620000ac640100000000026401000000009004565b73ffffffffffffffffffffffffffffffffffffffff16620001c0620002a9640100000000026401000000009004565b73ffffffffffffffffffffffffffffffffffffffff161462000219576040517f08c379a00000000000000000000000000000000000000000000000000000000081526004016200021090620004d5565b60405180910390fd5b600073ffffffffffffffffffffffffffffffffffffffff168173ffffffffffffffffffffffffffffffffffffffff1614156200028c576040517f08c379a00000000000000000000000000000000000000000000000000000000081526004016200028390620004b3565b60405180910390fd5b620002a681620000b4640100000000026401000000009004565b50565b60008060009054906101000a900473ffffffffffffffffffffffffffffffffffffffff16905090565b828054620002e090620005d1565b90600052602060002090601f01602090048101928262000304576000855562000350565b82601f106200031f57805160ff191683800117855562000350565b8280016001018555821562000350579182015b828111156200034f57825182559160200191906001019062000332565b5b5090506200035f919062000363565b5090565b5b808211156200037e57600081600090555060010162000364565b5090565b600062000399620003938462000520565b620004f7565b905082815260208101848484011115620003b257600080fd5b620003bf8482856200059b565b509392505050565b600081519050620003d88162000724565b92915050565b600082601f830112620003f057600080fd5b81516200040284826020860162000382565b91505092915050565b600080604083850312156200041f57600080fd5b60006200042f85828601620003c7565b925050602083015167ffffffffffffffff8111156200044d57600080fd5b6200045b85828601620003de565b9150509250929050565b60006200047460268362000556565b91506200048182620006ac565b604082019050919050565b60006200049b60208362000556565b9150620004a882620006fb565b602082019050919050565b60006020820190508181036000830152620004ce8162000465565b9050919050565b60006020820190508181036000830152620004f0816200048c565b9050919050565b60006200050362000516565b905062000511828262000607565b919050565b6000604051905090565b600067ffffffffffffffff8211156200053e576200053d6200066c565b5b62000549826200069b565b9050602081019050919050565b600082825260208201905092915050565b600062000574826200057b565b9050919050565b600073ffffffffffffffffffffffffffffffffffffffff82169050919050565b60005b83811015620005bb5780820151818401526020810190506200059e565b83811115620005cb576000848401525b50505050565b60006002820490506001821680620005ea57607f821691505b602082108114156200060157620006006200063d565b5b50919050565b62000612826200069b565b810181811067ffffffffffffffff821117156200063457620006336200066c565b5b80604052505050565b7f4e487b7100000000000000000000000000000000000000000000000000000000600052602260045260246000fd5b7f4e487b7100000000000000000000000000000000000000000000000000000000600052604160045260246000fd5b6000601f19601f8301169050919050565b7f4f776e61626c653a206e6577206f776e657220697320746865207a65726f206160008201527f6464726573730000000000000000000000000000000000000000000000000000602082015250565b7f4f776e61626c653a2063616c6c6572206973206e6f7420746865206f776e6572600082015250565b6200072f8162000567565b81146200073b57600080fd5b50565b61253b806200074e6000396000f3fe60806040523480156200001157600080fd5b5060043610620000b1576000357c010000000000000000000000000000000000000000000000000000000090048063792bb13f1162000080578063792bb13f146200013a5780638da5cb5b146200015c578063b515f8b1146200017e578063f2fde38b14620001b457620000b1565b806317906c2e14620000b65780634c7cfe9a14620000d85780635ae46978146200010e578063715018a6146200012e575b600080fd5b620000c0620001d4565b604051620000cf919062000baf565b60405180910390f35b620000f66004803603810190620000f09190620009c4565b620001da565b60405162000105919062000b2a565b60405180910390f35b6200012c60048036038101906200012691906200090c565b6200020d565b005b62000138620002ac565b005b620001446200033d565b60405162000153919062000b47565b60405180910390f35b62000166620003d3565b60405162000175919062000ab2565b60405180910390f35b6200019c600480360381019062000196919062000951565b620003fc565b604051620001ab919062000baf565b60405180910390f35b620001d26004803603810190620001cc9190620008e0565b620005b2565b005b60025481565b60036020528060005260406000206000915054906101000a900473ffffffffffffffffffffffffffffffffffffffff1681565b62000217620006b6565b73ffffffffffffffffffffffffffffffffffffffff1662000237620003d3565b73ffffffffffffffffffffffffffffffffffffffff161462000290576040517f08c379a0000000000000000000000000000000000000000000000000000000008152600401620002879062000b8d565b60405180910390fd5b8060019080519060200190620002a892919062000782565b5050565b620002b6620006b6565b73ffffffffffffffffffffffffffffffffffffffff16620002d6620003d3565b73ffffffffffffffffffffffffffffffffffffffff16146200032f576040517f08c379a0000000000000000000000000000000000000000000000000000000008152600401620003269062000b8d565b60405180910390fd5b6200033b6000620006be565b565b600180546200034c9062000cf2565b80601f01602080910402602001604051908101604052809291908181526020018280546200037a9062000cf2565b8015620003cb5780601f106200039f57610100808354040283529160200191620003cb565b820191906000526020600020905b815481529060010190602001808311620003ad57829003601f168201915b505050505081565b60008060009054906101000a900473ffffffffffffffffffffffffffffffffffffffff16905090565b600062000408620006b6565b73ffffffffffffffffffffffffffffffffffffffff1662000428620003d3565b73ffffffffffffffffffffffffffffffffffffffff161462000481576040517f08c379a0000000000000000000000000000000000000000000000000000000008152600401620004789062000b8d565b60405180910390fd5b60026000815480929190620004969062000d5e565b9190505550306002548484604051620004af9062000813565b620004be949392919062000acf565b604051809103906000f080158015620004db573d6000803e3d6000fd5b5060036000600254815260200190815260200160002060006101000a81548173ffffffffffffffffffffffffffffffffffffffff021916908373ffffffffffffffffffffffffffffffffffffffff16021790555060036000600254815260200190815260200160002060009054906101000a900473ffffffffffffffffffffffffffffffffffffffff1673ffffffffffffffffffffffffffffffffffffffff167fb28b103e6296194f6aecace93990102a06a5ae0720dc23aaf51589d563d52dde60405160405180910390a2600254905092915050565b620005bc620006b6565b73ffffffffffffffffffffffffffffffffffffffff16620005dc620003d3565b73ffffffffffffffffffffffffffffffffffffffff161462000635576040517f08c379a00000000000000000000000000000000000000000000000000000000081526004016200062c9062000b8d565b60405180910390fd5b600073ffffffffffffffffffffffffffffffffffffffff168173ffffffffffffffffffffffffffffffffffffffff161415620006a8576040517f08c379a00000000000000000000000000000000000000000000000000000000081526004016200069f9062000b6b565b60405180910390fd5b620006b381620006be565b50565b600033905090565b60008060009054906101000a900473ffffffffffffffffffffffffffffffffffffffff169050816000806101000a81548173ffffffffffffffffffffffffffffffffffffffff021916908373ffffffffffffffffffffffffffffffffffffffff1602179055508173ffffffffffffffffffffffffffffffffffffffff168173ffffffffffffffffffffffffffffffffffffffff167f8be0079c531659141344cd1fd0a4f28419497f9722a3daafe3b4186f6b6457e060405160405180910390a35050565b828054620007909062000cf2565b90600052602060002090601f016020900481019282620007b4576000855562000800565b82601f10620007cf57805160ff191683800117855562000800565b8280016001018555821562000800579182015b82811115620007ff578251825591602001919060010190620007e2565b5b5090506200080f919062000821565b5090565b61160f8062000ef783390190565b5b808211156200083c57600081600090555060010162000822565b5090565b600062000857620008518462000bf5565b62000bcc565b9050828152602081018484840111156200087057600080fd5b6200087d84828562000cad565b509392505050565b600081359050620008968162000ec2565b92915050565b600082601f830112620008ae57600080fd5b8135620008c084826020860162000840565b91505092915050565b600081359050620008da8162000edc565b92915050565b600060208284031215620008f357600080fd5b6000620009038482850162000885565b91505092915050565b6000602082840312156200091f57600080fd5b600082013567ffffffffffffffff8111156200093a57600080fd5b62000948848285016200089c565b91505092915050565b600080604083850312156200096557600080fd5b600083013567ffffffffffffffff8111156200098057600080fd5b6200098e858286016200089c565b925050602083013567ffffffffffffffff811115620009ac57600080fd5b620009ba858286016200089c565b9150509250929050565b600060208284031215620009d757600080fd5b6000620009e784828501620008c9565b91505092915050565b620009fb8162000c47565b82525050565b62000a0c8162000c85565b82525050565b600062000a1f8262000c2b565b62000a2b818562000c36565b935062000a3d81856020860162000cbc565b62000a488162000e39565b840191505092915050565b600062000a6260268362000c36565b915062000a6f8262000e4a565b604082019050919050565b600062000a8960208362000c36565b915062000a968262000e99565b602082019050919050565b62000aac8162000c7b565b82525050565b600060208201905062000ac96000830184620009f0565b92915050565b600060808201905062000ae66000830187620009f0565b62000af5602083018662000aa1565b818103604083015262000b09818562000a12565b9050818103606083015262000b1f818462000a12565b905095945050505050565b600060208201905062000b41600083018462000a01565b92915050565b6000602082019050818103600083015262000b63818462000a12565b905092915050565b6000602082019050818103600083015262000b868162000a53565b9050919050565b6000602082019050818103600083015262000ba88162000a7a565b9050919050565b600060208201905062000bc6600083018462000aa1565b92915050565b600062000bd862000beb565b905062000be6828262000d28565b919050565b6000604051905090565b600067ffffffffffffffff82111562000c135762000c1262000e0a565b5b62000c1e8262000e39565b9050602081019050919050565b600081519050919050565b600082825260208201905092915050565b600062000c548262000c5b565b9050919050565b600073ffffffffffffffffffffffffffffffffffffffff82169050919050565b6000819050919050565b600062000c928262000c99565b9050919050565b600062000ca68262000c5b565b9050919050565b82818337600083830152505050565b60005b8381101562000cdc57808201518184015260208101905062000cbf565b8381111562000cec576000848401525b50505050565b6000600282049050600182168062000d0b57607f821691505b6020821081141562000d225762000d2162000ddb565b5b50919050565b62000d338262000e39565b810181811067ffffffffffffffff8211171562000d555762000d5462000e0a565b5b80604052505050565b600062000d6b8262000c7b565b91507fffffffffffffffffffffffffffffffffffffffffffffffffffffffffffffffff82141562000da15762000da062000dac565b5b600182019050919050565b7f4e487b7100000000000000000000000000000000000000000000000000000000600052601160045260246000fd5b7f4e487b7100000000000000000000000000000000000000000000000000000000600052602260045260246000fd5b7f4e487b7100000000000000000000000000000000000000000000000000000000600052604160045260246000fd5b6000601f19601f8301169050919050565b7f4f776e61626c653a206e6577206f776e657220697320746865207a65726f206160008201527f6464726573730000000000000000000000000000000000000000000000000000602082015250565b7f4f776e61626c653a2063616c6c6572206973206e6f7420746865206f776e6572600082015250565b62000ecd8162000c47565b811462000ed957600080fd5b50565b62000ee78162000c7b565b811462000ef357600080fd5b5056fe60806040523480156200001157600080fd5b506040516200160f3803806200160f833981810160405281019062000037919062000485565b62000069620000546200010f640100000000026401000000009004565b62000117640100000000026401000000009004565b6200008384620001db640100000000026401000000009004565b83600160006101000a81548173ffffffffffffffffffffffffffffffffffffffff021916908373ffffffffffffffffffffffffffffffffffffffff160217905550826002819055508160039080519060200190620000e392919062000335565b508060049080519060200190620000fc92919062000335565b5060006005819055505050505062000820565b600033905090565b60008060009054906101000a900473ffffffffffffffffffffffffffffffffffffffff169050816000806101000a81548173ffffffffffffffffffffffffffffffffffffffff021916908373ffffffffffffffffffffffffffffffffffffffff1602179055508173ffffffffffffffffffffffffffffffffffffffff168173ffffffffffffffffffffffffffffffffffffffff167f8be0079c531659141344cd1fd0a4f28419497f9722a3daafe3b4186f6b6457e060405160405180910390a35050565b620001f46200010f640100000000026401000000009004565b73ffffffffffffffffffffffffffffffffffffffff16620002236200030c640100000000026401000000009004565b73ffffffffffffffffffffffffffffffffffffffff16146200027c576040517f08c379a0000000000000000000000000000000000000000000000000000000008152600401620002739062000593565b60405180910390fd5b600073ffffffffffffffffffffffffffffffffffffffff168173ffffffffffffffffffffffffffffffffffffffff161415620002ef576040517f08c379a0000000000000000000000000000000000000000000000000000000008152600401620002e69062000571565b60405180910390fd5b620003098162000117640100000000026401000000009004565b50565b60008060009054906101000a900473ffffffffffffffffffffffffffffffffffffffff16905090565b828054620003439062000699565b90600052602060002090601f016020900481019282620003675760008555620003b3565b82601f106200038257805160ff1916838001178555620003b3565b82800160010185558215620003b3579182015b82811115620003b257825182559160200191906001019062000395565b5b509050620003c29190620003c6565b5090565b5b80821115620003e1576000816000905550600101620003c7565b5090565b6000620003fc620003f684620005de565b620005b5565b9050828152602081018484840111156200041557600080fd5b6200042284828562000663565b509392505050565b6000815190506200043b81620007ec565b92915050565b600082601f8301126200045357600080fd5b815162000465848260208601620003e5565b91505092915050565b6000815190506200047f8162000806565b92915050565b600080600080608085870312156200049c57600080fd5b6000620004ac878288016200042a565b9450506020620004bf878288016200046e565b935050604085015167ffffffffffffffff811115620004dd57600080fd5b620004eb8782880162000441565b925050606085015167ffffffffffffffff8111156200050957600080fd5b620005178782880162000441565b91505092959194509250565b60006200053260268362000614565b91506200053f8262000774565b604082019050919050565b60006200055960208362000614565b91506200056682620007c3565b602082019050919050565b600060208201905081810360008301526200058c8162000523565b9050919050565b60006020820190508181036000830152620005ae816200054a565b9050919050565b6000620005c1620005d4565b9050620005cf8282620006cf565b919050565b6000604051905090565b600067ffffffffffffffff821115620005fc57620005fb62000734565b5b620006078262000763565b9050602081019050919050565b600082825260208201905092915050565b6000620006328262000639565b9050919050565b600073ffffffffffffffffffffffffffffffffffffffff82169050919050565b6000819050919050565b60005b838110156200068357808201518184015260208101905062000666565b8381111562000693576000848401525b50505050565b60006002820490506001821680620006b257607f821691505b60208210811415620006c957620006c862000705565b5b50919050565b620006da8262000763565b810181811067ffffffffffffffff82111715620006fc57620006fb62000734565b5b80604052505050565b7f4e487b7100000000000000000000000000000000000000000000000000000000600052602260045260246000fd5b7f4e487b7100000000000000000000000000000000000000000000000000000000600052604160045260246000fd5b6000601f19601f8301169050919050565b7f4f776e61626c653a206e6577206f776e657220697320746865207a65726f206160008201527f6464726573730000000000000000000000000000000000000000000000000000602082015250565b7f4f776e61626c653a2063616c6c6572206973206e6f7420746865206f776e6572600082015250565b620007f78162000625565b81146200080357600080fd5b50565b620008118162000659565b81146200081d57600080fd5b50565b610ddf80620008306000396000f3fe608060405234801561001057600080fd5b50600436106100d1576000357c010000000000000000000000000000000000000000000000000000000090048063818bf15d1161008e578063818bf15d146101605780638da5cb5b14610190578063bbc78bd7146101ae578063d7efb6b7146101cc578063e5a0af3d146101ea578063f2fde38b14610208576100d1565b80630ab89cc2146100d65780631aa30f53146100f25780632f23f022146101105780633af5faf51461011a5780634a79d50c14610138578063715018a614610156575b600080fd5b6100f060048036038101906100eb9190610888565b610224565b005b6100fa6102bd565b6040516101079190610aa5565b60405180910390f35b6101186102c3565b005b610122610445565b60405161012f9190610a03565b60405180910390f35b6101406104d3565b60405161014d9190610a03565b60405180910390f35b61015e610561565b005b61017a6004803603810190610175919061085f565b6105e9565b60405161018791906109cd565b60405180910390f35b610198610609565b6040516101a591906109b2565b60405180910390f35b6101b6610632565b6040516101c391906109e8565b60405180910390f35b6101d4610658565b6040516101e191906109cd565b60405180910390f35b6101f261066b565b6040516101ff9190610aa5565b60405180910390f35b610222600480360381019061021d919061085f565b610671565b005b61022c610769565b73ffffffffffffffffffffffffffffffffffffffff1661024a610609565b73ffffffffffffffffffffffffffffffffffffffff16146102a0576040517f08c379a000000000000000000000000000000000000000000000000000000000815260040161029790610a85565b60405180910390fd5b80600760006101000a81548160ff02191690831515021790555050565b60025481565b6102cb610769565b73ffffffffffffffffffffffffffffffffffffffff166102e9610609565b73ffffffffffffffffffffffffffffffffffffffff161415610340576040517f08c379a000000000000000000000000000000000000000000000000000000000815260040161033790610a65565b60405180910390fd5b60001515600660003373ffffffffffffffffffffffffffffffffffffffff1673ffffffffffffffffffffffffffffffffffffffff16815260200190815260200160002060009054906101000a900460ff161515146103d3576040517f08c379a00000000000000000000000000000000000000000000000000000000081526004016103ca90610a45565b60405180910390fd5b600560008154809291906103e690610bad565b91905055506001600660003373ffffffffffffffffffffffffffffffffffffffff1673ffffffffffffffffffffffffffffffffffffffff16815260200190815260200160002060006101000a81548160ff021916908315150217905550565b6004805461045290610b7b565b80601f016020809104026020016040519081016040528092919081815260200182805461047e90610b7b565b80156104cb5780601f106104a0576101008083540402835291602001916104cb565b820191906000526020600020905b8154815290600101906020018083116104ae57829003601f168201915b505050505081565b600380546104e090610b7b565b80601f016020809104026020016040519081016040528092919081815260200182805461050c90610b7b565b80156105595780601f1061052e57610100808354040283529160200191610559565b820191906000526020600020905b81548152906001019060200180831161053c57829003601f168201915b505050505081565b610569610769565b73ffffffffffffffffffffffffffffffffffffffff16610587610609565b73ffffffffffffffffffffffffffffffffffffffff16146105dd576040517f08c379a00000000000000000000000000000000000000000000000000000000081526004016105d490610a85565b60405180910390fd5b6105e76000610771565b565b60066020528060005260406000206000915054906101000a900460ff1681565b60008060009054906101000a900473ffffffffffffffffffffffffffffffffffffffff16905090565b600160009054906101000a900473ffffffffffffffffffffffffffffffffffffffff1681565b600760009054906101000a900460ff1681565b60055481565b610679610769565b73ffffffffffffffffffffffffffffffffffffffff16610697610609565b73ffffffffffffffffffffffffffffffffffffffff16146106ed576040517f08c379a00000000000000000000000000000000000000000000000000000000081526004016106e490610a85565b60405180910390fd5b600073ffffffffffffffffffffffffffffffffffffffff168173ffffffffffffffffffffffffffffffffffffffff16141561075d576040517f08c379a000000000000000000000000000000000000000000000000000000000815260040161075490610a25565b60405180910390fd5b61076681610771565b50565b600033905090565b60008060009054906101000a900473ffffffffffffffffffffffffffffffffffffffff169050816000806101000a81548173ffffffffffffffffffffffffffffffffffffffff021916908373ffffffffffffffffffffffffffffffffffffffff1602179055508173ffffffffffffffffffffffffffffffffffffffff168173ffffffffffffffffffffffffffffffffffffffff167f8be0079c531659141344cd1fd0a4f28419497f9722a3daafe3b4186f6b6457e060405160405180910390a35050565b60008135905061084481610d7b565b92915050565b60008135905061085981610d92565b92915050565b60006020828403121561087157600080fd5b600061087f84828501610835565b91505092915050565b60006020828403121561089a57600080fd5b60006108a88482850161084a565b91505092915050565b6108ba81610adc565b82525050565b6108c981610aee565b82525050565b6108d881610b24565b82525050565b60006108e982610ac0565b6108f38185610acb565b9350610903818560208601610b48565b61090c81610c54565b840191505092915050565b6000610924602683610acb565b915061092f82610c65565b604082019050919050565b6000610947602b83610acb565b915061095282610cb4565b604082019050919050565b600061096a602e83610acb565b915061097582610d03565b604082019050919050565b600061098d602083610acb565b915061099882610d52565b602082019050919050565b6109ac81610b1a565b82525050565b60006020820190506109c760008301846108b1565b92915050565b60006020820190506109e260008301846108c0565b92915050565b60006020820190506109fd60008301846108cf565b92915050565b60006020820190508181036000830152610a1d81846108de565b905092915050565b60006020820190508181036000830152610a3e81610917565b9050919050565b60006020820190508181036000830152610a5e8161093a565b9050919050565b60006020820190508181036000830152610a7e8161095d565b9050919050565b60006020820190508181036000830152610a9e81610980565b9050919050565b6000602082019050610aba60008301846109a3565b92915050565b600081519050919050565b600082825260208201905092915050565b6000610ae782610afa565b9050919050565b60008115159050919050565b600073ffffffffffffffffffffffffffffffffffffffff82169050919050565b6000819050919050565b6000610b2f82610b36565b9050919050565b6000610b4182610afa565b9050919050565b60005b83811015610b66578082015181840152602081019050610b4b565b83811115610b75576000848401525b50505050565b60006002820490506001821680610b9357607f821691505b60208210811415610ba757610ba6610c25565b5b50919050565b6000610bb882610b1a565b91507fffffffffffffffffffffffffffffffffffffffffffffffffffffffffffffffff821415610beb57610bea610bf6565b5b600182019050919050565b7f4e487b7100000000000000000000000000000000000000000000000000000000600052601160045260246000fd5b7f4e487b7100000000000000000000000000000000000000000000000000000000600052602260045260246000fd5b6000601f19601f8301169050919050565b7f4f776e61626c653a206e6577206f776e657220697320746865207a65726f206160008201527f6464726573730000000000000000000000000000000000000000000000000000602082015250565b7f43616c6c657220616464726573732068617320616c7265616479206c696b656460008201527f207468697320706f73742e000000000000000000000000000000000000000000602082015250565b7f43616c6c657220697320746865206f776e65722e2043616e6e6f74206265206360008201527f616c6c6564206279206f776e6572000000000000000000000000000000000000602082015250565b7f4f776e61626c653a2063616c6c6572206973206e6f7420746865206f776e6572600082015250565b610d8481610adc565b8114610d8f57600080fd5b50565b610d9b81610aee565b8114610da657600080fd5b5056fea264697066735822122013849bdf99fb6b88129ed84a214b28149d1136b2d61c4feac2861dfdccc3568d64736f6c63430008010033a2646970667358221220cc118c86b4b126f1b324a226a627256046eb4e0c062db210206a39c4e14b100764736f6c63430008010033",
  "immutableReferences": {},
  "source": "// SPDX-License-Identifier: MIT\r\npragma solidity >=0.4.22 <0.9.0;\r\n\r\nimport \"./DBlogPostContract.sol\";\r\nimport '@openzeppelin/contracts/access/Ownable.sol';\r\n\r\ncontract DBlogContract is Ownable {\r\n    \r\n    string public blogName;\r\n    uint public postCount;\r\n    \r\n    mapping(uint => DBlogPostContract) public postMap;\r\n\r\n    event PostCreated(DBlogPostContract indexed _postAddress);\r\n    \r\n    constructor(\r\n        address _blogOwnerAddress,\r\n        string memory _blogName) {\r\n        transferOwnership(_blogOwnerAddress);\r\n\r\n        blogName = _blogName;\r\n        postCount = 0;\r\n    }\r\n    \r\n    function publishBlogPost(string memory _postTitle, \r\n        string memory _postContent) onlyOwner public returns(uint postNum)  {\r\n        \r\n        postCount++;\r\n        postMap[postCount] = new DBlogPostContract(address(this), postCount, _postTitle, _postContent);\r\n        \r\n        emit PostCreated(postMap[postCount]);\r\n        return postCount;\r\n    }\r\n\r\n    function setBlogName(string memory _blogName) onlyOwner public {\r\n        blogName = _blogName;\r\n    }\r\n}",
  "sourcePath": "C:/Users/EREID/Desktop/Repos/dblog-dapp/src/contracts/DBlogContract.sol",
  "compiler": {
    "name": "solc",
    "version": "0.8.1+commit.df193b15.Emscripten.clang"
  },
  "schemaVersion": "3.4.1",
  "updatedAt": "2021-10-30T21:05:06.154Z",
  "networkType": "ethereum",
  "devdoc": {
    "kind": "dev",
    "methods": {
      "owner()": {
        "details": "Returns the address of the current owner."
      },
      "renounceOwnership()": {
        "details": "Leaves the contract without owner. It will not be possible to call `onlyOwner` functions anymore. Can only be called by the current owner. NOTE: Renouncing ownership will leave the contract without an owner, thereby removing any functionality that is only available to the owner."
      },
      "transferOwnership(address)": {
        "details": "Transfers ownership of the contract to a new account (`newOwner`). Can only be called by the current owner."
      }
    },
    "version": 1
  },
  "userdoc": {
    "kind": "user",
    "methods": {},
    "version": 1
  }
}