{
  "contractName": "DBlogPostContract",
  "abi": [
    {
      "inputs": [
        {
          "internalType": "address",
          "name": "_blogAddress",
          "type": "address"
        },
        {
          "internalType": "uint256",
          "name": "_postNum",
          "type": "uint256"
        },
        {
          "internalType": "string",
          "name": "_postTitle",
          "type": "string"
        },
        {
          "internalType": "string",
          "name": "_postContent",
          "type": "string"
        },
        {
          "internalType": "string[]",
          "name": "_tags",
          "type": "string[]"
        },
        {
          "internalType": "bool",
          "name": "_commentsEnabled",
          "type": "bool"
        }
      ],
      "stateMutability": "nonpayable",
      "type": "constructor"
    },
    {
      "anonymous": false,
      "inputs": [
        {
          "indexed": true,
          "internalType": "address",
          "name": "previousOwner",
          "type": "address"
        },
        {
          "indexed": true,
          "internalType": "address",
          "name": "newOwner",
          "type": "address"
        }
      ],
      "name": "OwnershipTransferred",
      "type": "event"
    },
    {
      "inputs": [],
      "name": "blog",
      "outputs": [
        {
          "internalType": "contract DBlogContract",
          "name": "",
          "type": "address"
        }
      ],
      "stateMutability": "view",
      "type": "function"
    },
    {
      "inputs": [],
      "name": "commentCount",
      "outputs": [
        {
          "internalType": "uint256",
          "name": "",
          "type": "uint256"
        }
      ],
      "stateMutability": "view",
      "type": "function"
    },
    {
      "inputs": [],
      "name": "commentsEnabled",
      "outputs": [
        {
          "internalType": "bool",
          "name": "",
          "type": "bool"
        }
      ],
      "stateMutability": "view",
      "type": "function"
    },
    {
      "inputs": [],
      "name": "content",
      "outputs": [
        {
          "internalType": "string",
          "name": "",
          "type": "string"
        }
      ],
      "stateMutability": "view",
      "type": "function"
    },
    {
      "inputs": [],
      "name": "likeCount",
      "outputs": [
        {
          "internalType": "uint256",
          "name": "",
          "type": "uint256"
        }
      ],
      "stateMutability": "view",
      "type": "function"
    },
    {
      "inputs": [],
      "name": "owner",
      "outputs": [
        {
          "internalType": "address",
          "name": "",
          "type": "address"
        }
      ],
      "stateMutability": "view",
      "type": "function"
    },
    {
      "inputs": [],
      "name": "postNum",
      "outputs": [
        {
          "internalType": "uint256",
          "name": "",
          "type": "uint256"
        }
      ],
      "stateMutability": "view",
      "type": "function"
    },
    {
      "inputs": [],
      "name": "renounceOwnership",
      "outputs": [],
      "stateMutability": "nonpayable",
      "type": "function"
    },
    {
      "inputs": [
        {
          "internalType": "uint256",
          "name": "",
          "type": "uint256"
        }
      ],
      "name": "tags",
      "outputs": [
        {
          "internalType": "string",
          "name": "",
          "type": "string"
        }
      ],
      "stateMutability": "view",
      "type": "function"
    },
    {
      "inputs": [],
      "name": "title",
      "outputs": [
        {
          "internalType": "string",
          "name": "",
          "type": "string"
        }
      ],
      "stateMutability": "view",
      "type": "function"
    },
    {
      "inputs": [
        {
          "internalType": "address",
          "name": "newOwner",
          "type": "address"
        }
      ],
      "name": "transferOwnership",
      "outputs": [],
      "stateMutability": "nonpayable",
      "type": "function"
    },
    {
      "inputs": [],
      "name": "likePost",
      "outputs": [],
      "stateMutability": "nonpayable",
      "type": "function"
    },
    {
      "inputs": [],
      "name": "addComment",
      "outputs": [],
      "stateMutability": "nonpayable",
      "type": "function"
    },
    {
      "inputs": [
        {
          "internalType": "bool",
          "name": "_isDeleted",
          "type": "bool"
        }
      ],
      "name": "setDeleted",
      "outputs": [],
      "stateMutability": "nonpayable",
      "type": "function"
    }
  ],
  "bytecode": "0x60806040523480156200001157600080fd5b50604051620019a9380380620019a9833981810160405281019062000037919062000640565b62000069620000546200014c640100000000026401000000009004565b62000154640100000000026401000000009004565b620000838662000218640100000000026401000000009004565b85600160006101000a81548173ffffffffffffffffffffffffffffffffffffffff021916908373ffffffffffffffffffffffffffffffffffffffff160217905550846002819055508360039080519060200190620000e392919062000372565b508260049080519060200190620000fc92919062000372565b5081600590805190602001906200011592919062000403565b506000600681905550600060098190555080600860016101000a81548160ff02191690831515021790555050505050505062000a73565b600033905090565b60008060009054906101000a900473ffffffffffffffffffffffffffffffffffffffff169050816000806101000a81548173ffffffffffffffffffffffffffffffffffffffff021916908373ffffffffffffffffffffffffffffffffffffffff1602179055508173ffffffffffffffffffffffffffffffffffffffff168173ffffffffffffffffffffffffffffffffffffffff167f8be0079c531659141344cd1fd0a4f28419497f9722a3daafe3b4186f6b6457e060405160405180910390a35050565b620002316200014c640100000000026401000000009004565b73ffffffffffffffffffffffffffffffffffffffff166200026062000349640100000000026401000000009004565b73ffffffffffffffffffffffffffffffffffffffff1614620002b9576040517f08c379a0000000000000000000000000000000000000000000000000000000008152600401620002b09062000791565b60405180910390fd5b600073ffffffffffffffffffffffffffffffffffffffff168173ffffffffffffffffffffffffffffffffffffffff1614156200032c576040517f08c379a000000000000000000000000000000000000000000000000000000000815260040162000323906200076f565b60405180910390fd5b620003468162000154640100000000026401000000009004565b50565b60008060009054906101000a900473ffffffffffffffffffffffffffffffffffffffff16905090565b8280546200038090620008d2565b90600052602060002090601f016020900481019282620003a45760008555620003f0565b82601f10620003bf57805160ff1916838001178555620003f0565b82800160010185558215620003f0579182015b82811115620003ef578251825591602001919060010190620003d2565b5b509050620003ff91906200046a565b5090565b82805482825590600052602060002090810192821562000457579160200282015b82811115620004565782518290805190602001906200044592919062000372565b509160200191906001019062000424565b5b50905062000466919062000489565b5090565b5b80821115620004855760008160009055506001016200046b565b5090565b5b80821115620004ad5760008181620004a39190620004b1565b506001016200048a565b5090565b508054620004bf90620008d2565b6000825580601f10620004d35750620004f4565b601f016020900490600052602060002090810190620004f391906200046a565b5b50565b60006200050e6200050884620007dc565b620007b3565b9050808382526020820190508260005b85811015620005525781518501620005378882620005fc565b8452602084019350602083019250506001810190506200051e565b5050509392505050565b6000620005736200056d846200080b565b620007b3565b9050828152602081018484840111156200058c57600080fd5b620005998482856200089c565b509392505050565b600081519050620005b28162000a25565b92915050565b600082601f830112620005ca57600080fd5b8151620005dc848260208601620004f7565b91505092915050565b600081519050620005f68162000a3f565b92915050565b600082601f8301126200060e57600080fd5b8151620006208482602086016200055c565b91505092915050565b6000815190506200063a8162000a59565b92915050565b60008060008060008060c087890312156200065a57600080fd5b60006200066a89828a01620005a1565b96505060206200067d89828a0162000629565b955050604087015167ffffffffffffffff8111156200069b57600080fd5b620006a989828a01620005fc565b945050606087015167ffffffffffffffff811115620006c757600080fd5b620006d589828a01620005fc565b935050608087015167ffffffffffffffff811115620006f357600080fd5b6200070189828a01620005b8565b92505060a06200071489828a01620005e5565b9150509295509295509295565b60006200073060268362000841565b91506200073d82620009ad565b604082019050919050565b60006200075760208362000841565b91506200076482620009fc565b602082019050919050565b600060208201905081810360008301526200078a8162000721565b9050919050565b60006020820190508181036000830152620007ac8162000748565b9050919050565b6000620007bf620007d2565b9050620007cd828262000908565b919050565b6000604051905090565b600067ffffffffffffffff821115620007fa57620007f96200096d565b5b602082029050602081019050919050565b600067ffffffffffffffff8211156200082957620008286200096d565b5b62000834826200099c565b9050602081019050919050565b600082825260208201905092915050565b60006200085f8262000872565b9050919050565b60008115159050919050565b600073ffffffffffffffffffffffffffffffffffffffff82169050919050565b6000819050919050565b60005b83811015620008bc5780820151818401526020810190506200089f565b83811115620008cc576000848401525b50505050565b60006002820490506001821680620008eb57607f821691505b602082108114156200090257620009016200093e565b5b50919050565b62000913826200099c565b810181811067ffffffffffffffff821117156200093557620009346200096d565b5b80604052505050565b7f4e487b7100000000000000000000000000000000000000000000000000000000600052602260045260246000fd5b7f4e487b7100000000000000000000000000000000000000000000000000000000600052604160045260246000fd5b6000601f19601f8301169050919050565b7f4f776e61626c653a206e6577206f776e657220697320746865207a65726f206160008201527f6464726573730000000000000000000000000000000000000000000000000000602082015250565b7f4f776e61626c653a2063616c6c6572206973206e6f7420746865206f776e6572600082015250565b62000a308162000852565b811462000a3c57600080fd5b50565b62000a4a8162000866565b811462000a5657600080fd5b50565b62000a648162000892565b811462000a7057600080fd5b50565b610f268062000a836000396000f3fe608060405234801561001057600080fd5b5060043610610107576000357c0100000000000000000000000000000000000000000000000000000000900480638a4d5a67116100a9578063bbc78bd711610083578063bbc78bd71461020c578063d2c82ed91461022a578063e5a0af3d14610248578063f2fde38b1461026657610107565b80638a4d5a67146101c65780638a822105146101e45780638da5cb5b146101ee57610107565b80632f23f022116100e55780632f23f0221461017657806345ff20de146101805780634a79d50c1461019e578063715018a6146101bc57610107565b80630ab89cc21461010c5780631aa30f531461012857806320822abc14610146575b600080fd5b6101266004803603810190610121919061098f565b610282565b005b61013061031b565b60405161013d9190610bd5565b60405180910390f35b610160600480360381019061015b91906109b8565b610321565b60405161016d9190610b33565b60405180910390f35b61017e6103cd565b005b61018861054f565b6040516101959190610bd5565b60405180910390f35b6101a6610555565b6040516101b39190610b33565b60405180910390f35b6101c46105e3565b005b6101ce61066b565b6040516101db9190610b33565b60405180910390f35b6101ec6106f9565b005b6101f66106fb565b6040516102039190610ae2565b60405180910390f35b610214610724565b6040516102219190610b18565b60405180910390f35b61023261074a565b60405161023f9190610afd565b60405180910390f35b61025061075d565b60405161025d9190610bd5565b60405180910390f35b610280600480360381019061027b9190610966565b610763565b005b61028a61085b565b73ffffffffffffffffffffffffffffffffffffffff166102a86106fb565b73ffffffffffffffffffffffffffffffffffffffff16146102fe576040517f08c379a00000000000000000000000000000000000000000000000000000000081526004016102f590610bb5565b60405180910390fd5b80600860006101000a81548160ff02191690831515021790555050565b60025481565b6005818154811061033157600080fd5b90600052602060002001600091509050805461034c90610cab565b80601f016020809104026020016040519081016040528092919081815260200182805461037890610cab565b80156103c55780601f1061039a576101008083540402835291602001916103c5565b820191906000526020600020905b8154815290600101906020018083116103a857829003601f168201915b505050505081565b6103d561085b565b73ffffffffffffffffffffffffffffffffffffffff166103f36106fb565b73ffffffffffffffffffffffffffffffffffffffff16141561044a576040517f08c379a000000000000000000000000000000000000000000000000000000000815260040161044190610b95565b60405180910390fd5b60001515600760003373ffffffffffffffffffffffffffffffffffffffff1673ffffffffffffffffffffffffffffffffffffffff16815260200190815260200160002060009054906101000a900460ff161515146104dd576040517f08c379a00000000000000000000000000000000000000000000000000000000081526004016104d490610b75565b60405180910390fd5b600660008154809291906104f090610cdd565b91905055506001600760003373ffffffffffffffffffffffffffffffffffffffff1673ffffffffffffffffffffffffffffffffffffffff16815260200190815260200160002060006101000a81548160ff021916908315150217905550565b60095481565b6003805461056290610cab565b80601f016020809104026020016040519081016040528092919081815260200182805461058e90610cab565b80156105db5780601f106105b0576101008083540402835291602001916105db565b820191906000526020600020905b8154815290600101906020018083116105be57829003601f168201915b505050505081565b6105eb61085b565b73ffffffffffffffffffffffffffffffffffffffff166106096106fb565b73ffffffffffffffffffffffffffffffffffffffff161461065f576040517f08c379a000000000000000000000000000000000000000000000000000000000815260040161065690610bb5565b60405180910390fd5b6106696000610863565b565b6004805461067890610cab565b80601f01602080910402602001604051908101604052809291908181526020018280546106a490610cab565b80156106f15780601f106106c6576101008083540402835291602001916106f1565b820191906000526020600020905b8154815290600101906020018083116106d457829003601f168201915b505050505081565b565b60008060009054906101000a900473ffffffffffffffffffffffffffffffffffffffff16905090565b600160009054906101000a900473ffffffffffffffffffffffffffffffffffffffff1681565b600860019054906101000a900460ff1681565b60065481565b61076b61085b565b73ffffffffffffffffffffffffffffffffffffffff166107896106fb565b73ffffffffffffffffffffffffffffffffffffffff16146107df576040517f08c379a00000000000000000000000000000000000000000000000000000000081526004016107d690610bb5565b60405180910390fd5b600073ffffffffffffffffffffffffffffffffffffffff168173ffffffffffffffffffffffffffffffffffffffff16141561084f576040517f08c379a000000000000000000000000000000000000000000000000000000000815260040161084690610b55565b60405180910390fd5b61085881610863565b50565b600033905090565b60008060009054906101000a900473ffffffffffffffffffffffffffffffffffffffff169050816000806101000a81548173ffffffffffffffffffffffffffffffffffffffff021916908373ffffffffffffffffffffffffffffffffffffffff1602179055508173ffffffffffffffffffffffffffffffffffffffff168173ffffffffffffffffffffffffffffffffffffffff167f8be0079c531659141344cd1fd0a4f28419497f9722a3daafe3b4186f6b6457e060405160405180910390a35050565b60008135905061093681610eab565b92915050565b60008135905061094b81610ec2565b92915050565b60008135905061096081610ed9565b92915050565b60006020828403121561097857600080fd5b600061098684828501610927565b91505092915050565b6000602082840312156109a157600080fd5b60006109af8482850161093c565b91505092915050565b6000602082840312156109ca57600080fd5b60006109d884828501610951565b91505092915050565b6109ea81610c0c565b82525050565b6109f981610c1e565b82525050565b610a0881610c54565b82525050565b6000610a1982610bf0565b610a238185610bfb565b9350610a33818560208601610c78565b610a3c81610d84565b840191505092915050565b6000610a54602683610bfb565b9150610a5f82610d95565b604082019050919050565b6000610a77602b83610bfb565b9150610a8282610de4565b604082019050919050565b6000610a9a602e83610bfb565b9150610aa582610e33565b604082019050919050565b6000610abd602083610bfb565b9150610ac882610e82565b602082019050919050565b610adc81610c4a565b82525050565b6000602082019050610af760008301846109e1565b92915050565b6000602082019050610b1260008301846109f0565b92915050565b6000602082019050610b2d60008301846109ff565b92915050565b60006020820190508181036000830152610b4d8184610a0e565b905092915050565b60006020820190508181036000830152610b6e81610a47565b9050919050565b60006020820190508181036000830152610b8e81610a6a565b9050919050565b60006020820190508181036000830152610bae81610a8d565b9050919050565b60006020820190508181036000830152610bce81610ab0565b9050919050565b6000602082019050610bea6000830184610ad3565b92915050565b600081519050919050565b600082825260208201905092915050565b6000610c1782610c2a565b9050919050565b60008115159050919050565b600073ffffffffffffffffffffffffffffffffffffffff82169050919050565b6000819050919050565b6000610c5f82610c66565b9050919050565b6000610c7182610c2a565b9050919050565b60005b83811015610c96578082015181840152602081019050610c7b565b83811115610ca5576000848401525b50505050565b60006002820490506001821680610cc357607f821691505b60208210811415610cd757610cd6610d55565b5b50919050565b6000610ce882610c4a565b91507fffffffffffffffffffffffffffffffffffffffffffffffffffffffffffffffff821415610d1b57610d1a610d26565b5b600182019050919050565b7f4e487b7100000000000000000000000000000000000000000000000000000000600052601160045260246000fd5b7f4e487b7100000000000000000000000000000000000000000000000000000000600052602260045260246000fd5b6000601f19601f8301169050919050565b7f4f776e61626c653a206e6577206f776e657220697320746865207a65726f206160008201527f6464726573730000000000000000000000000000000000000000000000000000602082015250565b7f43616c6c657220616464726573732068617320616c7265616479206c696b656460008201527f207468697320706f73742e000000000000000000000000000000000000000000602082015250565b7f43616c6c657220697320746865206f776e65722e2043616e6e6f74206265206360008201527f616c6c6564206279206f776e6572000000000000000000000000000000000000602082015250565b7f4f776e61626c653a2063616c6c6572206973206e6f7420746865206f776e6572600082015250565b610eb481610c0c565b8114610ebf57600080fd5b50565b610ecb81610c1e565b8114610ed657600080fd5b50565b610ee281610c4a565b8114610eed57600080fd5b5056fea2646970667358221220d80ccb0b72da44a2a1134a441ce15909369db66d6acf7be9fe199426ecb7a76164736f6c63430008010033",
  "immutableReferences": {},
  "source": "// SPDX-License-Identifier: MIT\r\npragma solidity >=0.4.22 <0.9.0;\r\n\r\nimport \"./DBlogContract.sol\";\r\nimport '@openzeppelin/contracts/access/Ownable.sol';\r\n\r\ncontract DBlogPostContract is Ownable {\r\n    //bool exists;\r\n    //uint public postNum;\r\n    \r\n    // TODO determine whether to store obj or address\r\n    DBlogContract public blog;\r\n    uint public postNum;\r\n    string public title;\r\n    string public content;\r\n    string[] public tags;\r\n    uint public likeCount;\r\n    mapping(address => bool) likers;\r\n    bool isDeleted;\r\n    \r\n    bool public commentsEnabled;\r\n    uint public commentCount;\r\n    mapping(uint => Comment) comments;\r\n\r\n    struct Comment {\r\n        uint exists;\r\n        string content;\r\n        address writer;\r\n    }\r\n    \r\n    // TODO owner of this is dblogcontract. Make owner the blog contract owner\r\n    constructor(\r\n        address _blogAddress,\r\n        uint _postNum,\r\n        string memory _postTitle,\r\n        string memory _postContent,\r\n        string[] memory _tags,\r\n        bool _commentsEnabled) public {\r\n            \r\n        transferOwnership(_blogAddress);\r\n            \r\n        blog = DBlogContract(_blogAddress);\r\n        postNum = _postNum;\r\n        title = _postTitle;\r\n        content = _postContent;\r\n        tags = _tags;\r\n        likeCount = 0;\r\n        commentCount = 0;\r\n        commentsEnabled = _commentsEnabled;\r\n    }\r\n     \r\n    function likePost() notOwner public {\r\n        require(likers[msg.sender] == false, \"Caller address has already liked this post.\");\r\n       \r\n        likeCount++;\r\n        likers[msg.sender] = true;\r\n    }\r\n    \r\n    function addComment() public {\r\n        // requre sender to not be owner\r\n    }\r\n    \r\n    function setDeleted(bool _isDeleted) onlyOwner public {\r\n        isDeleted = _isDeleted;\r\n    }\r\n    \r\n    /**\r\n     * @dev Throws if called by the owner.\r\n     */\r\n    modifier notOwner() {\r\n        require(owner() != _msgSender(), \"Caller is the owner. Cannot be called by owner\");\r\n        _;\r\n    }\r\n}",
  "sourcePath": "C:/Users/EREID/Desktop/Repos/dblog-dapp/src/contracts/DBlogPostContract.sol",
  "compiler": {
    "name": "solc",
    "version": "0.8.1+commit.df193b15.Emscripten.clang"
  },
  "schemaVersion": "3.4.1",
  "updatedAt": "2021-07-10T07:52:25.918Z",
  "devdoc": {
    "kind": "dev",
    "methods": {
      "owner()": {
        "details": "Returns the address of the current owner."
      },
      "renounceOwnership()": {
        "details": "Leaves the contract without owner. It will not be possible to call `onlyOwner` functions anymore. Can only be called by the current owner. NOTE: Renouncing ownership will leave the contract without an owner, thereby removing any functionality that is only available to the owner."
      },
      "transferOwnership(address)": {
        "details": "Transfers ownership of the contract to a new account (`newOwner`). Can only be called by the current owner."
      }
    },
    "version": 1
  },
  "userdoc": {
    "kind": "user",
    "methods": {},
    "version": 1
  }
}